{
  "abi": [
    {
      "inputs": [
        {
          "internalType": "address",
          "name": "_vault",
          "type": "address"
        },
        {
          "internalType": "string",
          "name": "_name",
          "type": "string"
        }
      ],
      "stateMutability": "nonpayable",
      "type": "constructor"
    },
    {
      "anonymous": false,
      "inputs": [
        {
          "indexed": true,
          "internalType": "address",
          "name": "clone",
          "type": "address"
        }
      ],
      "name": "Cloned",
      "type": "event"
    },
    {
      "anonymous": false,
      "inputs": [],
      "name": "EmergencyExitEnabled",
      "type": "event"
    },
    {
      "anonymous": false,
      "inputs": [
        {
          "indexed": false,
          "internalType": "uint256",
          "name": "profit",
          "type": "uint256"
        },
        {
          "indexed": false,
          "internalType": "uint256",
          "name": "loss",
          "type": "uint256"
        },
        {
          "indexed": false,
          "internalType": "uint256",
          "name": "debtPayment",
          "type": "uint256"
        },
        {
          "indexed": false,
          "internalType": "uint256",
          "name": "debtOutstanding",
          "type": "uint256"
        }
      ],
      "name": "Harvested",
      "type": "event"
    },
    {
      "anonymous": false,
      "inputs": [
        {
          "indexed": false,
          "internalType": "uint256",
          "name": "debtThreshold",
          "type": "uint256"
        }
      ],
      "name": "UpdatedDebtThreshold",
      "type": "event"
    },
    {
      "anonymous": false,
      "inputs": [
        {
          "indexed": false,
          "internalType": "address",
          "name": "newKeeper",
          "type": "address"
        }
      ],
      "name": "UpdatedKeeper",
      "type": "event"
    },
    {
      "anonymous": false,
      "inputs": [
        {
          "indexed": false,
          "internalType": "uint256",
          "name": "delay",
          "type": "uint256"
        }
      ],
      "name": "UpdatedMaxReportDelay",
      "type": "event"
    },
    {
      "anonymous": false,
      "inputs": [
        {
          "indexed": false,
          "internalType": "string",
          "name": "metadataURI",
          "type": "string"
        }
      ],
      "name": "UpdatedMetadataURI",
      "type": "event"
    },
    {
      "anonymous": false,
      "inputs": [
        {
          "indexed": false,
          "internalType": "uint256",
          "name": "delay",
          "type": "uint256"
        }
      ],
      "name": "UpdatedMinReportDelay",
      "type": "event"
    },
    {
      "anonymous": false,
      "inputs": [
        {
          "indexed": false,
          "internalType": "uint256",
          "name": "profitFactor",
          "type": "uint256"
        }
      ],
      "name": "UpdatedProfitFactor",
      "type": "event"
    },
    {
      "anonymous": false,
      "inputs": [
        {
          "indexed": false,
          "internalType": "address",
          "name": "rewards",
          "type": "address"
        }
      ],
      "name": "UpdatedRewards",
      "type": "event"
    },
    {
      "anonymous": false,
      "inputs": [
        {
          "indexed": false,
          "internalType": "address",
          "name": "newStrategist",
          "type": "address"
        }
      ],
      "name": "UpdatedStrategist",
      "type": "event"
    },
    {
      "inputs": [],
      "name": "apiVersion",
      "outputs": [
        {
          "internalType": "string",
          "name": "",
          "type": "string"
        }
      ],
      "stateMutability": "pure",
      "type": "function"
    },
    {
      "inputs": [
        {
          "internalType": "uint256",
          "name": "liquidity",
          "type": "uint256"
        }
      ],
      "name": "balanceOfConstituents",
      "outputs": [
        {
          "internalType": "uint256",
          "name": "amountBoo",
          "type": "uint256"
        },
        {
          "internalType": "uint256",
          "name": "amountXBoo",
          "type": "uint256"
        }
      ],
      "stateMutability": "view",
      "type": "function"
    },
    {
      "inputs": [],
      "name": "balanceOfLPStaked",
      "outputs": [
        {
          "internalType": "uint256",
          "name": "",
          "type": "uint256"
        }
      ],
      "stateMutability": "view",
      "type": "function"
    },
    {
      "inputs": [],
      "name": "balanceOfWant",
      "outputs": [
        {
          "internalType": "uint256",
          "name": "",
          "type": "uint256"
        }
      ],
      "stateMutability": "view",
      "type": "function"
    },
    {
      "inputs": [
        {
          "internalType": "uint256",
          "name": "xbooAmount",
          "type": "uint256"
        }
      ],
      "name": "balanceOfXbooInWant",
      "outputs": [
        {
          "internalType": "uint256",
          "name": "",
          "type": "uint256"
        }
      ],
      "stateMutability": "view",
      "type": "function"
    },
    {
      "inputs": [
        {
          "internalType": "uint256",
          "name": "amountOfBooWeWant",
          "type": "uint256"
        }
      ],
      "name": "booToLpTokens",
      "outputs": [
        {
          "internalType": "uint256",
          "name": "",
          "type": "uint256"
        }
      ],
      "stateMutability": "nonpayable",
      "type": "function"
    },
    {
      "inputs": [],
      "name": "debtThreshold",
      "outputs": [
        {
          "internalType": "uint256",
          "name": "",
          "type": "uint256"
        }
      ],
      "stateMutability": "view",
      "type": "function"
    },
    {
      "inputs": [],
      "name": "delegatedAssets",
      "outputs": [
        {
          "internalType": "uint256",
          "name": "",
          "type": "uint256"
        }
      ],
      "stateMutability": "view",
      "type": "function"
    },
    {
      "inputs": [],
      "name": "depositerAvoid",
      "outputs": [
        {
          "internalType": "bool",
          "name": "",
          "type": "bool"
        }
      ],
      "stateMutability": "view",
      "type": "function"
    },
    {
      "inputs": [],
      "name": "doHealthCheck",
      "outputs": [
        {
          "internalType": "bool",
          "name": "",
          "type": "bool"
        }
      ],
      "stateMutability": "view",
      "type": "function"
    },
    {
      "inputs": [],
      "name": "emergencyExit",
      "outputs": [
        {
          "internalType": "bool",
          "name": "",
          "type": "bool"
        }
      ],
      "stateMutability": "view",
      "type": "function"
    },
    {
      "inputs": [],
      "name": "estimatedTotalAssets",
      "outputs": [
        {
          "internalType": "uint256",
          "name": "",
          "type": "uint256"
        }
      ],
      "stateMutability": "view",
      "type": "function"
    },
    {
      "inputs": [
        {
          "internalType": "uint256",
          "name": "_amtInWei",
          "type": "uint256"
        }
      ],
      "name": "ethToWant",
      "outputs": [
        {
          "internalType": "uint256",
          "name": "",
          "type": "uint256"
        }
      ],
      "stateMutability": "view",
      "type": "function"
    },
    {
      "inputs": [],
      "name": "harvest",
      "outputs": [],
      "stateMutability": "nonpayable",
      "type": "function"
    },
    {
      "inputs": [
        {
          "internalType": "uint256",
          "name": "callCostinEth",
          "type": "uint256"
        }
      ],
      "name": "harvestTrigger",
      "outputs": [
        {
          "internalType": "bool",
          "name": "",
          "type": "bool"
        }
      ],
      "stateMutability": "view",
      "type": "function"
    },
    {
      "inputs": [],
      "name": "healthCheck",
      "outputs": [
        {
          "internalType": "address",
          "name": "",
          "type": "address"
        }
      ],
      "stateMutability": "view",
      "type": "function"
    },
    {
      "inputs": [],
      "name": "isActive",
      "outputs": [
        {
          "internalType": "bool",
          "name": "",
          "type": "bool"
        }
      ],
      "stateMutability": "view",
      "type": "function"
    },
    {
      "inputs": [],
      "name": "keeper",
      "outputs": [
        {
          "internalType": "address",
          "name": "",
          "type": "address"
        }
      ],
      "stateMutability": "view",
      "type": "function"
    },
    {
      "inputs": [],
      "name": "lpDepositer",
      "outputs": [
        {
          "internalType": "contract ILpDepositer",
          "name": "",
          "type": "address"
        }
      ],
      "stateMutability": "view",
      "type": "function"
    },
    {
      "inputs": [],
      "name": "lpToken",
      "outputs": [
        {
          "internalType": "address",
          "name": "",
          "type": "address"
        }
      ],
      "stateMutability": "view",
      "type": "function"
    },
    {
      "inputs": [
        {
          "internalType": "address",
          "name": "lp",
          "type": "address"
        },
        {
          "internalType": "uint256",
          "name": "amount",
          "type": "uint256"
        }
      ],
      "name": "manualWithdraw",
      "outputs": [],
      "stateMutability": "nonpayable",
      "type": "function"
    },
    {
      "inputs": [],
      "name": "maxReportDelay",
      "outputs": [
        {
          "internalType": "uint256",
          "name": "",
          "type": "uint256"
        }
      ],
      "stateMutability": "view",
      "type": "function"
    },
    {
      "inputs": [],
      "name": "metadataURI",
      "outputs": [
        {
          "internalType": "string",
          "name": "",
          "type": "string"
        }
      ],
      "stateMutability": "view",
      "type": "function"
    },
    {
      "inputs": [
        {
          "internalType": "address",
          "name": "_newStrategy",
          "type": "address"
        }
      ],
      "name": "migrate",
      "outputs": [],
      "stateMutability": "nonpayable",
      "type": "function"
    },
    {
      "inputs": [],
      "name": "minHarvestCredit",
      "outputs": [
        {
          "internalType": "uint256",
          "name": "",
          "type": "uint256"
        }
      ],
      "stateMutability": "view",
      "type": "function"
    },
    {
      "inputs": [],
      "name": "minReportDelay",
      "outputs": [
        {
          "internalType": "uint256",
          "name": "",
          "type": "uint256"
        }
      ],
      "stateMutability": "view",
      "type": "function"
    },
    {
      "inputs": [],
      "name": "name",
      "outputs": [
        {
          "internalType": "string",
          "name": "",
          "type": "string"
        }
      ],
      "stateMutability": "view",
      "type": "function"
    },
    {
      "inputs": [],
      "name": "profitFactor",
      "outputs": [
        {
          "internalType": "uint256",
          "name": "",
          "type": "uint256"
        }
      ],
      "stateMutability": "view",
      "type": "function"
    },
    {
      "inputs": [],
      "name": "removeTradeFactoryPermissions",
      "outputs": [],
      "stateMutability": "nonpayable",
      "type": "function"
    },
    {
      "inputs": [],
      "name": "rewards",
      "outputs": [
        {
          "internalType": "address",
          "name": "",
          "type": "address"
        }
      ],
      "stateMutability": "view",
      "type": "function"
    },
    {
      "inputs": [
        {
          "internalType": "uint256",
          "name": "_debtThreshold",
          "type": "uint256"
        }
      ],
      "name": "setDebtThreshold",
      "outputs": [],
      "stateMutability": "nonpayable",
      "type": "function"
    },
    {
      "inputs": [
        {
          "internalType": "bool",
          "name": "_avoid",
          "type": "bool"
        }
      ],
      "name": "setDepositerAvoid",
      "outputs": [],
      "stateMutability": "nonpayable",
      "type": "function"
    },
    {
      "inputs": [
        {
          "internalType": "bool",
          "name": "_doHealthCheck",
          "type": "bool"
        }
      ],
      "name": "setDoHealthCheck",
      "outputs": [],
      "stateMutability": "nonpayable",
      "type": "function"
    },
    {
      "inputs": [],
      "name": "setEmergencyExit",
      "outputs": [],
      "stateMutability": "nonpayable",
      "type": "function"
    },
    {
      "inputs": [
        {
          "internalType": "bool",
          "name": "_forceHarvestTriggerOnce",
          "type": "bool"
        }
      ],
      "name": "setForceHarvestTriggerOnce",
      "outputs": [],
      "stateMutability": "nonpayable",
      "type": "function"
    },
    {
      "inputs": [
        {
          "internalType": "address",
          "name": "_healthCheck",
          "type": "address"
        }
      ],
      "name": "setHealthCheck",
      "outputs": [],
      "stateMutability": "nonpayable",
      "type": "function"
    },
    {
      "inputs": [
        {
          "internalType": "address",
          "name": "_keeper",
          "type": "address"
        }
      ],
      "name": "setKeeper",
      "outputs": [],
      "stateMutability": "nonpayable",
      "type": "function"
    },
    {
      "inputs": [
        {
          "internalType": "uint256",
          "name": "_delay",
          "type": "uint256"
        }
      ],
      "name": "setMaxReportDelay",
      "outputs": [],
      "stateMutability": "nonpayable",
      "type": "function"
    },
    {
      "inputs": [
        {
          "internalType": "string",
          "name": "_metadataURI",
          "type": "string"
        }
      ],
      "name": "setMetadataURI",
      "outputs": [],
      "stateMutability": "nonpayable",
      "type": "function"
    },
    {
      "inputs": [
        {
          "internalType": "uint256",
          "name": "_minHarvestCredit",
          "type": "uint256"
        }
      ],
      "name": "setMinHarvestCredit",
      "outputs": [],
      "stateMutability": "nonpayable",
      "type": "function"
    },
    {
      "inputs": [
        {
          "internalType": "uint256",
          "name": "_delay",
          "type": "uint256"
        }
      ],
      "name": "setMinReportDelay",
      "outputs": [],
      "stateMutability": "nonpayable",
      "type": "function"
    },
    {
      "inputs": [
        {
          "internalType": "uint256",
          "name": "_profitFactor",
          "type": "uint256"
        }
      ],
      "name": "setProfitFactor",
      "outputs": [],
      "stateMutability": "nonpayable",
      "type": "function"
    },
    {
      "inputs": [
        {
          "internalType": "address",
          "name": "_rewards",
          "type": "address"
        }
      ],
      "name": "setRewards",
      "outputs": [],
      "stateMutability": "nonpayable",
      "type": "function"
    },
    {
      "inputs": [
        {
          "internalType": "address",
          "name": "_strategist",
          "type": "address"
        }
      ],
      "name": "setStrategist",
      "outputs": [],
      "stateMutability": "nonpayable",
      "type": "function"
    },
    {
      "inputs": [],
      "name": "strategist",
      "outputs": [
        {
          "internalType": "address",
          "name": "",
          "type": "address"
        }
      ],
      "stateMutability": "view",
      "type": "function"
    },
    {
      "inputs": [
        {
          "internalType": "address",
          "name": "_token",
          "type": "address"
        }
      ],
      "name": "sweep",
      "outputs": [],
      "stateMutability": "nonpayable",
      "type": "function"
    },
    {
      "inputs": [],
      "name": "tend",
      "outputs": [],
      "stateMutability": "nonpayable",
      "type": "function"
    },
    {
      "inputs": [
        {
          "internalType": "uint256",
          "name": "callCostInWei",
          "type": "uint256"
        }
      ],
      "name": "tendTrigger",
      "outputs": [
        {
          "internalType": "bool",
          "name": "",
          "type": "bool"
        }
      ],
      "stateMutability": "view",
      "type": "function"
    },
    {
      "inputs": [],
      "name": "tradeFactory",
      "outputs": [
        {
          "internalType": "address",
          "name": "",
          "type": "address"
        }
      ],
      "stateMutability": "view",
      "type": "function"
    },
    {
      "inputs": [],
      "name": "tradesEnabled",
      "outputs": [
        {
          "internalType": "bool",
          "name": "",
          "type": "bool"
        }
      ],
      "stateMutability": "view",
      "type": "function"
    },
    {
      "inputs": [
        {
          "internalType": "address",
          "name": "_newTradeFactory",
          "type": "address"
        }
      ],
      "name": "updateTradeFactory",
      "outputs": [],
      "stateMutability": "nonpayable",
      "type": "function"
    },
    {
      "inputs": [],
      "name": "vault",
      "outputs": [
        {
          "internalType": "contract VaultAPI",
          "name": "",
          "type": "address"
        }
      ],
      "stateMutability": "view",
      "type": "function"
    },
    {
      "inputs": [],
      "name": "want",
      "outputs": [
        {
          "internalType": "contract IERC20",
          "name": "",
          "type": "address"
        }
      ],
      "stateMutability": "view",
      "type": "function"
    },
    {
      "inputs": [
        {
          "internalType": "uint256",
          "name": "_amountNeeded",
          "type": "uint256"
        }
      ],
      "name": "withdraw",
      "outputs": [
        {
          "internalType": "uint256",
          "name": "_loss",
          "type": "uint256"
        }
      ],
      "stateMutability": "nonpayable",
      "type": "function"
    }
  ],
  "bytecode": "6080604052600b805476d3f89c21719ec5961a3e6b0f9bbf9f9b4180e9e90000006301000000600160b81b0319909116179055600d80546001600160a01b0319908116735804f6c40f44cf7593f73cf3aa16f7037213a62317909155600e80549091167326e1a0d851cf28e697870e1b7f053b605c8b060f1790553480156200008757600080fd5b506040516200555b3803806200555b833981016040819052620000aa91620009d3565b81620000b981338080620000cd565b50620000c581620002b1565b505062000c95565b6006546001600160a01b031615620001025760405162461bcd60e51b8152600401620000f99062000b4d565b60405180910390fd5b600280546001600160a01b0319166001600160a01b03868116919091179182905560408051637e062a3560e11b81529051929091169163fc0c546a91600480820192602092909190829003018186803b1580156200015f57600080fd5b505afa15801562000174573d6000803e3d6000fd5b505050506040513d601f19601f820116820180604052508101906200019a9190620009ae565b600680546001600160a01b0319166001600160a01b039283161790819055620001d491168560001962000625602090811b620027f917901c565b600380546001600160a01b038086166001600160a01b03199283161790925560048054858416908316178082556005805486861694169390931790925560006007819055620151806008556064600955600a5560025460405163095ea7b360e01b81529084169363095ea7b3936200025493911691600019910162000aff565b602060405180830381600087803b1580156200026f57600080fd5b505af115801562000284573d6000803e3d6000fd5b505050506040513d601f19601f82011682018060405250810190620002aa919062000a8c565b5050505050565b61a8c060085560018054610100600160a81b03191674f13cd6887c62b5bec145e30c38c4938c5e627fe0001790558051620002f490600c906020840190620008f4565b50600019600f819055600d54600e5460405163095ea7b360e01b81526001600160a01b039283169363095ea7b3936200033293169160040162000aff565b602060405180830381600087803b1580156200034d57600080fd5b505af115801562000362573d6000803e3d6000fd5b505050506040513d601f19601f8201168201806040525081019062000388919062000a8c565b50600d5460405163095ea7b360e01b81526001600160a01b039091169063095ea7b390620003d39073a38cd27185a464914d3046f0ab9d43356b34829d906000199060040162000aff565b602060405180830381600087803b158015620003ee57600080fd5b505af115801562000403573d6000803e3d6000fd5b505050506040513d601f19601f8201168201806040525081019062000429919062000a8c565b5060405163095ea7b360e01b815273a48d959ae2e88f1daa7d5f611e01908106de75989063095ea7b3906200047b9073a38cd27185a464914d3046f0ab9d43356b34829d906000199060040162000aff565b602060405180830381600087803b1580156200049657600080fd5b505af1158015620004ab573d6000803e3d6000fd5b505050506040513d601f19601f82011682018060405250810190620004d1919062000a8c565b5060405163095ea7b360e01b815273841fad6eae12c286d1fd18d1d525dffa75c7effe9063095ea7b390620005239073a48d959ae2e88f1daa7d5f611e01908106de7598906000199060040162000aff565b602060405180830381600087803b1580156200053e57600080fd5b505af115801562000553573d6000803e3d6000fd5b505050506040513d601f19601f8201168201806040525081019062000579919062000a8c565b5060405163095ea7b360e01b815273841fad6eae12c286d1fd18d1d525dffa75c7effe9063095ea7b390620005cb9073a38cd27185a464914d3046f0ab9d43356b34829d906000199060040162000aff565b602060405180830381600087803b158015620005e657600080fd5b505af1158015620005fb573d6000803e3d6000fd5b505050506040513d601f19601f8201168201806040525081019062000621919062000a8c565b5050565b801580620006b45750604051636eb1769f60e11b81526001600160a01b0384169063dd62ed3e906200065e903090869060040162000ae5565b60206040518083038186803b1580156200067757600080fd5b505afa1580156200068c573d6000803e3d6000fd5b505050506040513d601f19601f82011682018060405250810190620006b2919062000aae565b155b620006d35760405162461bcd60e51b8152600401620000f99062000c05565b6200072e8363095ea7b360e01b8484604051602401620006f592919062000aff565b60408051808303601f190181529190526020810180516001600160e01b0319939093166001600160e01b03938416179052906200073316565b505050565b60606200078f826040518060400160405280602081526020017f5361666545524332303a206c6f772d6c6576656c2063616c6c206661696c6564815250856001600160a01b0316620007cf60201b620028f8179092919060201c565b8051909150156200072e5780806020019051810190620007b0919062000a8c565b6200072e5760405162461bcd60e51b8152600401620000f99062000bbb565b6060620007e08484600085620007e8565b949350505050565b6060620007f585620008ba565b620008145760405162461bcd60e51b8152600401620000f99062000b84565b60006060866001600160a01b0316858760405162000833919062000ac7565b60006040518083038185875af1925050503d806000811462000872576040519150601f19603f3d011682016040523d82523d6000602084013e62000877565b606091505b509150915081156200088d579150620007e09050565b8051156200089e5780518082602001fd5b8360405162461bcd60e51b8152600401620000f9919062000b18565b6000813f7fc5d2460186f7233c927e7db2dcc703c0e500b653ca82273b7bfad8045d85a470818114801590620007e0575050151592915050565b828054600181600116156101000203166002900490600052602060002090601f016020900481019282601f106200093757805160ff191683800117855562000967565b8280016001018555821562000967579182015b82811115620009675782518255916020019190600101906200094a565b506200097592915062000979565b5090565b5b808211156200097557600081556001016200097a565b80516001600160a01b0381168114620009a857600080fd5b92915050565b600060208284031215620009c0578081fd5b620009cc838362000990565b9392505050565b60008060408385031215620009e6578081fd5b620009f2848462000990565b60208401519092506001600160401b038082111562000a0f578283fd5b818501915085601f83011262000a23578283fd5b81518181111562000a32578384fd5b604051601f8201601f19168101602001838111828210171562000a53578586fd5b60405281815283820160200188101562000a6b578485fd5b62000a7e82602083016020870162000c62565b809450505050509250929050565b60006020828403121562000a9e578081fd5b81518015158114620009cc578182fd5b60006020828403121562000ac0578081fd5b5051919050565b6000825162000adb81846020870162000c62565b9190910192915050565b6001600160a01b0392831681529116602082015260400190565b6001600160a01b03929092168252602082015260400190565b600060208252825180602084015262000b3981604085016020870162000c62565b601f01601f19169190910160400192915050565b6020808252601c908201527f537472617465677920616c726561647920696e697469616c697a656400000000604082015260600190565b6020808252601d908201527f416464726573733a2063616c6c20746f206e6f6e2d636f6e7472616374000000604082015260600190565b6020808252602a908201527f5361666545524332303a204552433230206f7065726174696f6e20646964206e6040820152691bdd081cdd58d8d9595960b21b606082015260800190565b60208082526036908201527f5361666545524332303a20617070726f76652066726f6d206e6f6e2d7a65726f60408201527f20746f206e6f6e2d7a65726f20616c6c6f77616e636500000000000000000000606082015260800190565b60005b8381101562000c7f57818101518382015260200162000c65565b8381111562000c8f576000848401525b50505050565b6148b68062000ca56000396000f3fe608060405234801561001057600080fd5b50600436106103425760003560e01c80636d37122d116101b8578063b252720b11610104578063ec38a862116100a2578063f017c92f1161007c578063f017c92f14610621578063f1b0d88214610634578063fbfa77cf1461063c578063fcf2d0ad1461064457610342565b8063ec38a862146105f3578063ed882c2b14610606578063efbb5cb01461061957610342565b8063ce5494bb116100de578063ce5494bb146105b2578063d8c658c2146105c5578063db1633e2146105d8578063e5e19b4a146105eb57610342565b8063b252720b1461058f578063c1a3d44c14610597578063c7b9d5301461059f57610342565b80638cdfe1661161017157806395e80c501161014b57806395e80c50146105645780639ec5a8941461056c578063ac00ff2614610574578063aced16611461058757610342565b80638cdfe166146105415780638e6350e21461054957806391397ab41461055157610342565b80636d37122d146104e55780636d51a20f146104ed578063735fd189146104f5578063748747e614610508578063750521f51461051b578063780022a01461052e57610342565b806324b5a31d116102925780634641257d116102305780635bd2afda1161020a5780635bd2afda146104af5780635fcbd285146104c2578063650d1880146104ca5780636718835f146104dd57610342565b80634641257d1461048c5780635137fb09146104945780635641ec03146104a757610342565b80632e1a7d4d1161026c5780632e1a7d4d1461045657806339a172a8146104695780633a662fcd1461047c578063440368a31461048457610342565b806324b5a31d1461043e578063258294101461044657806328b7ccf71461044e57610342565b80630f969b87116102ff5780631d12f28b116102d95780631d12f28b146104115780631f1fcd51146104195780631fe4a6861461042157806322f3e2d41461042957610342565b80630f969b87146103ca57806311a8ce90146103dd57806311bc8245146103fe57610342565b806301681a621461034757806303ee438c1461035c578063040cdb5f1461037a57806306fdde031461039a578063081748dc146103a25780630ada4dab146103b7575b600080fd5b61035a610355366004614156565b61064c565b005b6103646107eb565b6040516103719190614512565b60405180910390f35b61038d6103883660046142dc565b610879565b60405161037191906144da565b610364610905565b6103aa61099b565b6040516103719190614378565b61035a6103c53660046141b9565b6109aa565b61035a6103d83660046142dc565b610a15565b6103f06103eb3660046142dc565b610aa2565b604051610371929190614788565b61035a61040c366004614156565b610b5f565b61038d610c60565b6103aa610c66565b6103aa610c75565b610431610c84565b60405161037191906144cf565b61038d610d26565b610364610dae565b61038d610dcd565b61038d6104643660046142dc565b610dd3565b61035a6104773660046142dc565b610e2e565b610431610eb0565b61035a610ebf565b61035a6110e8565b61035a6104a23660046142dc565b6115c1565b610431611613565b61038d6104bd3660046142dc565b61161c565b6103aa6116ec565b6104316104d83660046142dc565b6116fb565b610431611711565b61043161171a565b61035a611728565b61035a61050336600461418e565b6118bf565b61035a610516366004614156565b611ab6565b61035a6105293660046141f1565b611b61565b61038d61053c3660046142dc565b611bf8565b61038d611bfe565b61038d611c04565b61035a61055f3660046142dc565b611c09565b61038d611c8b565b6103aa611c91565b61035a6105823660046141b9565b611ca0565b6103aa611d8c565b6103aa611d9b565b61038d611daf565b61035a6105ad366004614156565b611de0565b61035a6105c0366004614156565b611e8b565b61035a6105d3366004614156565b611fd9565b61035a6105e63660046141b9565b61205d565b6103aa6120c6565b61035a610601366004614156565b6120dc565b6104316106143660046142dc565b61226f565b61038d6123e3565b61035a61062f3660046142dc565b61253d565b61038d6125bf565b6103aa6125c5565b61035a6125d4565b61065461290f565b6001600160a01b0316336001600160a01b03161461068d5760405162461bcd60e51b81526004016106849061469f565b60405180910390fd5b6006546001600160a01b03828116911614156106bb5760405162461bcd60e51b81526004016106849061456a565b6002546001600160a01b03828116911614156106e95760405162461bcd60e51b815260040161068490614647565b60606106f361298c565b905060005b815181101561074e5781818151811061070d57fe5b60200260200101516001600160a01b0316836001600160a01b031614156107465760405162461bcd60e51b81526004016106849061470e565b6001016106f8565b506107e761075a61290f565b6040516370a0823160e01b81526001600160a01b038516906370a0823190610786903090600401614378565b60206040518083038186803b15801561079e57600080fd5b505afa1580156107b2573d6000803e3d6000fd5b505050506040513d601f19601f820116820180604052508101906107d691906142f4565b6001600160a01b0385169190612991565b5050565b6000805460408051602060026001851615610100026000190190941693909304601f810184900484028201840190925281815292918301828280156108715780601f1061084657610100808354040283529160200191610871565b820191906000526020600020905b81548152906001019060200180831161085457829003601f168201915b505050505081565b6040516343b0ff5160e01b8152600090600080516020614861833981519152906343b0ff51906108ad9085906004016144da565b60206040518083038186803b1580156108c557600080fd5b505afa1580156108d9573d6000803e3d6000fd5b505050506040513d601f19601f820116820180604052508101906108fd91906142f4565b90505b919050565b600c8054604080516020601f60026000196101006001881615020190951694909404938401819004810282018101909252828152606093909290918301828280156109915780601f1061096657610100808354040283529160200191610991565b820191906000526020600020905b81548152906001019060200180831161097457829003601f168201915b5050505050905090565b600e546001600160a01b031681565b6003546001600160a01b03163314806109db57506109c661290f565b6001600160a01b0316336001600160a01b0316145b6109f75760405162461bcd60e51b81526004016106849061469f565b600e8054911515600160a01b0260ff60a01b19909216919091179055565b6003546001600160a01b0316331480610a465750610a3161290f565b6001600160a01b0316336001600160a01b0316145b610a625760405162461bcd60e51b81526004016106849061469f565b600a8190556040517fa68ba126373d04c004c5748c300c9fca12bd444b3d4332e261f3bd2bac4a860090610a979083906144da565b60405180910390a150565b6040516310e1b98f60e21b8152600090819073a38cd27185a464914d3046f0ab9d43356b34829d90634386e63c90610b069073841fad6eae12c286d1fd18d1d525dffa75c7effe9060008051602061486183398151915290869089906004016143a6565b604080518083038186803b158015610b1d57600080fd5b505afa158015610b31573d6000803e3d6000fd5b505050506040513d601f19601f82011682018060405250810190610b55919061430c565b9094909350915050565b600260009054906101000a90046001600160a01b03166001600160a01b03166388a8d6026040518163ffffffff1660e01b815260040160206040518083038186803b158015610bad57600080fd5b505afa158015610bc1573d6000803e3d6000fd5b505050506040513d601f19601f82011682018060405250810190610be59190614172565b6001600160a01b0316336001600160a01b03161480610c1c5750610c0761290f565b6001600160a01b0316336001600160a01b0316145b610c385760405162461bcd60e51b81526004016106849061469f565b600180546001600160a01b0390921661010002610100600160a81b0319909216919091179055565b600a5481565b6006546001600160a01b031681565b6003546001600160a01b031681565b6002546040516339ebf82360e01b815260009182916001600160a01b03909116906339ebf82390610cb9903090600401614378565b6101206040518083038186803b158015610cd257600080fd5b505afa158015610ce6573d6000803e3d6000fd5b505050506040513d601f19601f82011682018060405250810190610d0a919061425e565b604001511180610d2157506000610d1f6123e3565b115b905090565b600e54600d5460405163015b6a3360e71b81526000926001600160a01b039081169263adb5198092610d5e923092169060040161438c565b60206040518083038186803b158015610d7657600080fd5b505afa158015610d8a573d6000803e3d6000fd5b505050506040513d601f19601f82011682018060405250810190610d2191906142f4565b60408051808201909152600581526418171a171960d91b602082015290565b60085481565b6002546000906001600160a01b03163314610e005760405162461bcd60e51b815260040161068490614627565b6000610e0b836129b0565b600654909350909150610e28906001600160a01b03163383612991565b50919050565b6003546001600160a01b0316331480610e5f5750610e4a61290f565b6001600160a01b0316336001600160a01b0316145b610e7b5760405162461bcd60e51b81526004016106849061469f565b60078190556040517fbb2c369a0355a34b02ab5fce0643150c87e1c8dfe7c918d465591879f57948b190610a979083906144da565b600b5462010000900460ff1681565b6005546001600160a01b0316331480610ee257506003546001600160a01b031633145b80610f055750610ef061290f565b6001600160a01b0316336001600160a01b0316145b80610fa65750600260009054906101000a90046001600160a01b03166001600160a01b031663452a93206040518163ffffffff1660e01b815260040160206040518083038186803b158015610f5957600080fd5b505afa158015610f6d573d6000803e3d6000fd5b505050506040513d601f19601f82011682018060405250810190610f919190614172565b6001600160a01b0316336001600160a01b0316145b806110475750600260009054906101000a90046001600160a01b03166001600160a01b03166388a8d6026040518163ffffffff1660e01b815260040160206040518083038186803b158015610ffa57600080fd5b505afa15801561100e573d6000803e3d6000fd5b505050506040513d601f19601f820116820180604052508101906110329190614172565b6001600160a01b0316336001600160a01b0316145b6110635760405162461bcd60e51b81526004016106849061469f565b6002546040805163bf3759b560e01b815290516110e6926001600160a01b03169163bf3759b5916004808301926020929190829003018186803b1580156110a957600080fd5b505afa1580156110bd573d6000803e3d6000fd5b505050506040513d601f19601f820116820180604052508101906110e191906142f4565b612f2c565b565b6005546001600160a01b031633148061110b57506003546001600160a01b031633145b8061112e575061111961290f565b6001600160a01b0316336001600160a01b0316145b806111cf5750600260009054906101000a90046001600160a01b03166001600160a01b031663452a93206040518163ffffffff1660e01b815260040160206040518083038186803b15801561118257600080fd5b505afa158015611196573d6000803e3d6000fd5b505050506040513d601f19601f820116820180604052508101906111ba9190614172565b6001600160a01b0316336001600160a01b0316145b806112705750600260009054906101000a90046001600160a01b03166001600160a01b03166388a8d6026040518163ffffffff1660e01b815260040160206040518083038186803b15801561122357600080fd5b505afa158015611237573d6000803e3d6000fd5b505050506040513d601f19601f8201168201806040525081019061125b9190614172565b6001600160a01b0316336001600160a01b0316145b61128c5760405162461bcd60e51b81526004016106849061469f565b6000806000600260009054906101000a90046001600160a01b03166001600160a01b031663bf3759b56040518163ffffffff1660e01b815260040160206040518083038186803b1580156112df57600080fd5b505afa1580156112f3573d6000803e3d6000fd5b505050506040513d601f19601f8201168201806040525081019061131791906142f4565b600b5490915060009060ff161561137457600061133261345f565b90508281101561134d5761134683826136f1565b9350611362565b828111156113625761135f81846136f1565b94505b61136c83856136f1565b915050611385565b61137d8261373c565b919550935090505b6002546040516339ebf82360e01b81526000916001600160a01b0316906339ebf823906113b6903090600401614378565b6101206040518083038186803b1580156113cf57600080fd5b505afa1580156113e3573d6000803e3d6000fd5b505050506040513d601f19601f82011682018060405250810190611407919061425e565b60c001516002546040516328766ebf60e21b81529192506001600160a01b03169063a1d9bafc9061144090889088908790600401614796565b602060405180830381600087803b15801561145a57600080fd5b505af115801561146e573d6000803e3d6000fd5b505050506040513d601f19601f8201168201806040525081019061149291906142f4565b925061149d83612f2c565b60015460ff1680156114be575060015461010090046001600160a01b031615155b156115705760015460405163c70fa00b60e01b81526101009091046001600160a01b03169063c70fa00b906114ff90889088908790899088906004016147c7565b60206040518083038186803b15801561151757600080fd5b505afa15801561152b573d6000803e3d6000fd5b505050506040513d601f19601f8201168201806040525081019061154f91906141d5565b61156b5760405162461bcd60e51b8152600401610684906145c0565b61157d565b6001805460ff1916811790555b7f4c0f499ffe6befa0ca7c826b0916cf87bea98de658013e76938489368d60d509858584866040516115b294939291906147ac565b60405180910390a15050505050565b6003546001600160a01b03163314806115f257506115dd61290f565b6001600160a01b0316336001600160a01b0316145b61160e5760405162461bcd60e51b81526004016106849061469f565b600f55565b600b5460ff1681565b6000806000611632670de0b6b3a7640000610aa2565b6040516343b0ff5160e01b815291935091506116c390600080516020614861833981519152906343b0ff519061166c9085906004016144da565b60206040518083038186803b15801561168457600080fd5b505afa158015611698573d6000803e3d6000fd5b505050506040513d601f19601f820116820180604052508101906116bc91906142f4565b83906139d5565b915060006116e3836116dd87670de0b6b3a76400006139fa565b90613a34565b95945050505050565b600d546001600160a01b031681565b60008061170783611bf8565b5060009392505050565b60015460ff1681565b600b54610100900460ff1681565b6003546001600160a01b0316331480611759575061174461290f565b6001600160a01b0316336001600160a01b0316145b806117fa5750600260009054906101000a90046001600160a01b03166001600160a01b031663452a93206040518163ffffffff1660e01b815260040160206040518083038186803b1580156117ad57600080fd5b505afa1580156117c1573d6000803e3d6000fd5b505050506040513d601f19601f820116820180604052508101906117e59190614172565b6001600160a01b0316336001600160a01b0316145b8061189b5750600260009054906101000a90046001600160a01b03166001600160a01b03166388a8d6026040518163ffffffff1660e01b815260040160206040518083038186803b15801561184e57600080fd5b505afa158015611862573d6000803e3d6000fd5b505050506040513d601f19601f820116820180604052508101906118869190614172565b6001600160a01b0316336001600160a01b0316145b6118b75760405162461bcd60e51b81526004016106849061469f565b6110e6613a76565b6003546001600160a01b03163314806118f057506118db61290f565b6001600160a01b0316336001600160a01b0316145b806119915750600260009054906101000a90046001600160a01b03166001600160a01b031663452a93206040518163ffffffff1660e01b815260040160206040518083038186803b15801561194457600080fd5b505afa158015611958573d6000803e3d6000fd5b505050506040513d601f19601f8201168201806040525081019061197c9190614172565b6001600160a01b0316336001600160a01b0316145b80611a325750600260009054906101000a90046001600160a01b03166001600160a01b03166388a8d6026040518163ffffffff1660e01b815260040160206040518083038186803b1580156119e557600080fd5b505afa1580156119f9573d6000803e3d6000fd5b505050506040513d601f19601f82011682018060405250810190611a1d9190614172565b6001600160a01b0316336001600160a01b0316145b611a4e5760405162461bcd60e51b81526004016106849061469f565b600e5460405163f3fef3a360e01b81526001600160a01b039091169063f3fef3a390611a809085908590600401614469565b600060405180830381600087803b158015611a9a57600080fd5b505af1158015611aae573d6000803e3d6000fd5b505050505050565b6003546001600160a01b0316331480611ae75750611ad261290f565b6001600160a01b0316336001600160a01b0316145b611b035760405162461bcd60e51b81526004016106849061469f565b6001600160a01b038116611b1657600080fd5b600580546001600160a01b0319166001600160a01b0383161790556040517f2f202ddb4a2e345f6323ed90f8fc8559d770a7abbbeee84dde8aca3351fe715490610a97908390614378565b6003546001600160a01b0316331480611b925750611b7d61290f565b6001600160a01b0316336001600160a01b0316145b611bae5760405162461bcd60e51b81526004016106849061469f565b611bba60008383614077565b507f300e67d5a415b6d015a471d9c7b95dd58f3e8290af965e84e0f845de2996dda68282604051611bec9291906144e3565b60405180910390a15050565b50600090565b60095481565b600090565b6003546001600160a01b0316331480611c3a5750611c2561290f565b6001600160a01b0316336001600160a01b0316145b611c565760405162461bcd60e51b81526004016106849061469f565b60098190556040517fd94596337df4c2f0f44d30a7fc5db1c7bb60d9aca4185ed77c6fd96eb45ec29890610a979083906144da565b60075481565b6004546001600160a01b031681565b600260009054906101000a90046001600160a01b03166001600160a01b03166388a8d6026040518163ffffffff1660e01b815260040160206040518083038186803b158015611cee57600080fd5b505afa158015611d02573d6000803e3d6000fd5b505050506040513d601f19601f82011682018060405250810190611d269190614172565b6001600160a01b0316336001600160a01b03161480611d5d5750611d4861290f565b6001600160a01b0316336001600160a01b0316145b611d795760405162461bcd60e51b81526004016106849061469f565b6001805460ff1916911515919091179055565b6005546001600160a01b031681565b60015461010090046001600160a01b031681565b6006546040516370a0823160e01b81526000916001600160a01b0316906370a0823190610d5e903090600401614378565b6003546001600160a01b0316331480611e115750611dfc61290f565b6001600160a01b0316336001600160a01b0316145b611e2d5760405162461bcd60e51b81526004016106849061469f565b6001600160a01b038116611e4057600080fd5b600380546001600160a01b0319166001600160a01b0383161790556040517f352ececae6d7d1e6d26bcf2c549dfd55be1637e9b22dc0cf3b71ddb36097a6b490610a97908390614378565b6002546001600160a01b03163314611ea257600080fd5b6002546040805163fbfa77cf60e01b815290516001600160a01b039283169284169163fbfa77cf916004808301926020929190829003018186803b158015611ee957600080fd5b505afa158015611efd573d6000803e3d6000fd5b505050506040513d601f19601f82011682018060405250810190611f219190614172565b6001600160a01b031614611f3457600080fd5b611f3d81613ade565b6006546040516370a0823160e01b8152611fd69183916001600160a01b03909116906370a0823190611f73903090600401614378565b60206040518083038186803b158015611f8b57600080fd5b505afa158015611f9f573d6000803e3d6000fd5b505050506040513d601f19601f82011682018060405250810190611fc391906142f4565b6006546001600160a01b03169190612991565b50565b611fe161290f565b6001600160a01b0316336001600160a01b0316146120115760405162461bcd60e51b81526004016106849061469f565b600b54630100000090046001600160a01b03161561203157612031613a76565b600b80546301000000600160b81b03191663010000006001600160a01b03841602179055611fd6613d16565b6003546001600160a01b031633148061208e575061207961290f565b6001600160a01b0316336001600160a01b0316145b6120aa5760405162461bcd60e51b81526004016106849061469f565b600b8054911515620100000262ff000019909216919091179055565b600b54630100000090046001600160a01b031681565b6003546001600160a01b031633146121065760405162461bcd60e51b815260040161068490614545565b6001600160a01b03811661211957600080fd5b6002546004805460405163095ea7b360e01b81526001600160a01b039384169363095ea7b393612150939091169160009101614469565b602060405180830381600087803b15801561216a57600080fd5b505af115801561217e573d6000803e3d6000fd5b505050506040513d601f19601f820116820180604052508101906121a291906141d5565b50600480546001600160a01b0319166001600160a01b038381169190911780835560025460405163095ea7b360e01b81529083169363095ea7b3936121ed9316916000199101614469565b602060405180830381600087803b15801561220757600080fd5b505af115801561221b573d6000803e3d6000fd5b505050506040513d601f19601f8201168201806040525081019061223f91906141d5565b507fafbb66abf8f3b719799940473a4052a3717cdd8e40fb6c8a3faadab316b1a06981604051610a979190614378565b60006122796140f5565b6002546040516339ebf82360e01b81526001600160a01b03909116906339ebf823906122a9903090600401614378565b6101206040518083038186803b1580156122c257600080fd5b505afa1580156122d6573d6000803e3d6000fd5b505050506040513d601f19601f820116820180604052508101906122fa919061425e565b90506008546123168260a00151426136f190919063ffffffff16565b1115612326576001915050610900565b600e54600160a01b900460ff1615612342576001915050610900565b600f54600260009054906101000a90046001600160a01b03166001600160a01b031663112c1f9b6040518163ffffffff1660e01b815260040160206040518083038186803b15801561239357600080fd5b505afa1580156123a7573d6000803e3d6000fd5b505050506040513d601f19601f820116820180604052508101906123cb91906142f4565b106123da576001915050610900565b50600092915050565b600d546040516370a0823160e01b81526000918291612478916001600160a01b0316906370a082319061241a903090600401614378565b60206040518083038186803b15801561243257600080fd5b505afa158015612446573d6000803e3d6000fd5b505050506040513d601f19601f8201168201806040525081019061246a91906142f4565b612472610d26565b906139d5565b905060008061248683610aa2565b9150915060006125236103886000805160206148618339815191526001600160a01b03166370a08231306040518263ffffffff1660e01b81526004016124cc9190614378565b60206040518083038186803b1580156124e457600080fd5b505afa1580156124f8573d6000803e3d6000fd5b505050506040513d601f19601f8201168201806040525081019061251c91906142f4565b84906139d5565b90506125348361247261251c611daf565b94505050505090565b6003546001600160a01b031633148061256e575061255961290f565b6001600160a01b0316336001600160a01b0316145b61258a5760405162461bcd60e51b81526004016106849061469f565b60088190556040517f5430e11864ad7aa9775b07d12657fe52df9aa2ba734355bd8ef8747be2c800c590610a979083906144da565b600f5481565b6002546001600160a01b031681565b6003546001600160a01b031633148061260557506125f061290f565b6001600160a01b0316336001600160a01b0316145b806126a65750600260009054906101000a90046001600160a01b03166001600160a01b031663452a93206040518163ffffffff1660e01b815260040160206040518083038186803b15801561265957600080fd5b505afa15801561266d573d6000803e3d6000fd5b505050506040513d601f19601f820116820180604052508101906126919190614172565b6001600160a01b0316336001600160a01b0316145b806127475750600260009054906101000a90046001600160a01b03166001600160a01b03166388a8d6026040518163ffffffff1660e01b815260040160206040518083038186803b1580156126fa57600080fd5b505afa15801561270e573d6000803e3d6000fd5b505050506040513d601f19601f820116820180604052508101906127329190614172565b6001600160a01b0316336001600160a01b0316145b6127635760405162461bcd60e51b81526004016106849061469f565b600b805460ff191660011790556002546040805163507257cd60e11b815290516001600160a01b039092169163a0e4af9a9160048082019260009290919082900301818387803b1580156127b657600080fd5b505af11580156127ca573d6000803e3d6000fd5b50506040517f97e963041e952738788b9d4871d854d282065b8f90a464928d6528f2e9a4fd0b925060009150a1565b8015806128815750604051636eb1769f60e11b81526001600160a01b0384169063dd62ed3e9061282f903090869060040161438c565b60206040518083038186803b15801561284757600080fd5b505afa15801561285b573d6000803e3d6000fd5b505050506040513d601f19601f8201168201806040525081019061287f91906142f4565b155b61289d5760405162461bcd60e51b815260040161068490614732565b6128f38363095ea7b360e01b84846040516024016128bc929190614469565b60408051601f198184030181529190526020810180516001600160e01b03166001600160e01b031990931692909217909152613e72565b505050565b60606129078484600085613f01565b949350505050565b60025460408051635aa6e67560e01b815290516000926001600160a01b031691635aa6e675916004808301926020929190829003018186803b15801561295457600080fd5b505afa158015612968573d6000803e3d6000fd5b505050506040513d601f19601f82011682018060405250810190610d219190614172565b606090565b6128f38363a9059cbb60e01b84846040516024016128bc929190614469565b6040516370a0823160e01b81526000908190600080516020614861833981519152906367dfd4c99082906370a08231906129ee903090600401614378565b60206040518083038186803b158015612a0657600080fd5b505afa158015612a1a573d6000803e3d6000fd5b505050506040513d601f19601f82011682018060405250810190612a3e91906142f4565b6040518263ffffffff1660e01b8152600401612a5a91906144da565b600060405180830381600087803b158015612a7457600080fd5b505af1158015612a88573d6000803e3d6000fd5b50506006546040516370a0823160e01b8152600093506001600160a01b0390911691506370a0823190612abf903090600401614378565b60206040518083038186803b158015612ad757600080fd5b505afa158015612aeb573d6000803e3d6000fd5b505050506040513d601f19601f82011682018060405250810190612b0f91906142f4565b905083811015612f22576000612b2585836136f1565b90506000612b328261161c565b600d546040516370a0823160e01b81529192506000916001600160a01b03909116906370a0823190612b68903090600401614378565b60206040518083038186803b158015612b8057600080fd5b505afa158015612b94573d6000803e3d6000fd5b505050506040513d601f19601f82011682018060405250810190612bb891906142f4565b905081811015612cd4576000612bce83836136f1565b90506000612bda610d26565b600e54600d549192506001600160a01b039081169163f3fef3a39116612c008585613fc5565b6040518363ffffffff1660e01b8152600401612c1d929190614469565b600060405180830381600087803b158015612c3757600080fd5b505af1158015612c4b573d6000803e3d6000fd5b5050600d546040516370a0823160e01b81526001600160a01b0390911692506370a082319150612c7f903090600401614378565b60206040518083038186803b158015612c9757600080fd5b505afa158015612cab573d6000803e3d6000fd5b505050506040513d601f19601f82011682018060405250810190612ccf91906142f4565b925050505b60008073a38cd27185a464914d3046f0ab9d43356b34829d630dede6c473841fad6eae12c286d1fd18d1d525dffa75c7effe60008051602061486183398151915284612d208989613fc5565b600080306000196040518963ffffffff1660e01b8152600401612d4a9897969594939291906143d1565b6040805180830381600087803b158015612d6357600080fd5b505af1158015612d77573d6000803e3d6000fd5b505050506040513d601f19601f82011682018060405250810190612d9b919061430c565b6040516370a0823160e01b81529193509150600080516020614861833981519152906367dfd4c99082906370a0823190612dd9903090600401614378565b60206040518083038186803b158015612df157600080fd5b505afa158015612e05573d6000803e3d6000fd5b505050506040513d601f19601f82011682018060405250810190612e2991906142f4565b6040518263ffffffff1660e01b8152600401612e4591906144da565b600060405180830381600087803b158015612e5f57600080fd5b505af1158015612e73573d6000803e3d6000fd5b50506006546040516370a0823160e01b8152612f0193506001600160a01b0390911691506370a0823190612eab903090600401614378565b60206040518083038186803b158015612ec357600080fd5b505afa158015612ed7573d6000803e3d6000fd5b505050506040513d601f19601f82011682018060405250810190612efb91906142f4565b8a613fc5565b975088881015612f1857612f1589896136f1565b96505b5050505050612f26565b8392505b50915091565b600b5460ff1615612f3c57611fd6565b6000612f46611daf565b905080156107e757600d546040516370a0823160e01b815260009173841fad6eae12c286d1fd18d1d525dffa75c7effe916370a0823191612f95916001600160a01b0390911690600401614378565b60206040518083038186803b158015612fad57600080fd5b505afa158015612fc1573d6000803e3d6000fd5b505050506040513d601f19601f82011682018060405250810190612fe591906142f4565b600d546040516370a0823160e01b8152919250600091600080516020614861833981519152916370a0823191613027916001600160a01b031690600401614378565b60206040518083038186803b15801561303f57600080fd5b505afa158015613053573d6000803e3d6000fd5b505050506040513d601f19601f8201168201806040525081019061307791906142f4565b90506000613091836116dd84670de0b6b3a76400006139fa565b6040516343b0ff5160e01b8152909150600090600080516020614861833981519152906343b0ff51906130d090670de0b6b3a7640000906004016144da565b60206040518083038186803b1580156130e857600080fd5b505afa1580156130fc573d6000803e3d6000fd5b505050506040513d601f19601f8201168201806040525081019061312091906142f4565b9050600061312e86836139fa565b9050600061313c83856139d5565b90506000613157620f42406131518585613a34565b906136f1565b604051632967cf8360e21b81529091506000805160206148618339815191529063a59f3e0c9061318b9084906004016144da565b600060405180830381600087803b1580156131a557600080fd5b505af11580156131b9573d6000803e3d6000fd5b50506040516370a0823160e01b815273a38cd27185a464914d3046f0ab9d43356b34829d9250635a47ddc3915073841fad6eae12c286d1fd18d1d525dffa75c7effe906000805160206148618339815191529060009083906370a0823190613225903090600401614378565b60206040518083038186803b15801561323d57600080fd5b505afa158015613251573d6000803e3d6000fd5b505050506040513d601f19601f8201168201806040525081019061327591906142f4565b6040516370a0823160e01b8152600080516020614861833981519152906370a08231906132a6903090600401614378565b60206040518083038186803b1580156132be57600080fd5b505afa1580156132d2573d6000803e3d6000fd5b505050506040513d601f19601f820116820180604052508101906132f691906142f4565b600080306000196040518a63ffffffff1660e01b81526004016133219998979695949392919061441a565b606060405180830381600087803b15801561333b57600080fd5b505af115801561334f573d6000803e3d6000fd5b505050506040513d601f19601f82011682018060405250810190613373919061432f565b5050600e54600d546040516370a0823160e01b81526001600160a01b0392831693506347e7ef24929091169081906370a08231906133b5903090600401614378565b60206040518083038186803b1580156133cd57600080fd5b505afa1580156133e1573d6000803e3d6000fd5b505050506040513d601f19601f8201168201806040525081019061340591906142f4565b6040518363ffffffff1660e01b8152600401613422929190614469565b600060405180830381600087803b15801561343c57600080fd5b505af1158015613450573d6000803e3d6000fd5b50505050505050505050505050565b600e54600d546000916001600160a01b039081169163f3fef3a39116613483610d26565b6040518363ffffffff1660e01b81526004016134a0929190614469565b600060405180830381600087803b1580156134ba57600080fd5b505af11580156134ce573d6000803e3d6000fd5b5050600d546040516370a0823160e01b815273a38cd27185a464914d3046f0ab9d43356b34829d9350630dede6c4925073841fad6eae12c286d1fd18d1d525dffa75c7effe91600080516020614861833981519152916000916001600160a01b0316906370a0823190613545903090600401614378565b60206040518083038186803b15801561355d57600080fd5b505afa158015613571573d6000803e3d6000fd5b505050506040513d601f19601f8201168201806040525081019061359591906142f4565b600080306000196040518963ffffffff1660e01b81526004016135bf9897969594939291906143d1565b6040805180830381600087803b1580156135d857600080fd5b505af11580156135ec573d6000803e3d6000fd5b505050506040513d601f19601f82011682018060405250810190613610919061430c565b50506040516370a0823160e01b8152600080516020614861833981519152906367dfd4c99082906370a082319061364b903090600401614378565b60206040518083038186803b15801561366357600080fd5b505afa158015613677573d6000803e3d6000fd5b505050506040513d601f19601f8201168201806040525081019061369b91906142f4565b6040518263ffffffff1660e01b81526004016136b791906144da565b600060405180830381600087803b1580156136d157600080fd5b505af11580156136e5573d6000803e3d6000fd5b50505050610d21611daf565b600061373383836040518060400160405280601e81526020017f536166654d6174683a207375627472616374696f6e206f766572666c6f770000815250613fdb565b90505b92915050565b600b5460009081908190610100900460ff1615801561376c5750600b54630100000090046001600160a01b031615155b1561377957613779613d16565b604080516001808252818301909252606091602080830190803683375050600d5482519293506001600160a01b0316918391506000906137b557fe5b6001600160a01b039283166020918202929092010152600e54604051633febe83160e11b8152911690637fd7d062906137f2908490600401614482565b600060405180830381600087803b15801561380c57600080fd5b505af1158015613820573d6000803e3d6000fd5b50505050600061382e6123e3565b9050600061383a611daf565b6002546040516339ebf82360e01b81529192506000916001600160a01b03909116906339ebf82390613870903090600401614378565b6101206040518083038186803b15801561388957600080fd5b505afa15801561389d573d6000803e3d6000fd5b505050506040513d601f19601f820116820180604052508101906138c1919061425e565b60c00151905060008184106139ba578895506138dd84836136f1565b97506138e988876139d5565b90506000811180156138fa57508083105b156139ba57613908816129b0565b50506006546040516370a0823160e01b81526000916001600160a01b0316906370a082319061393b903090600401614378565b60206040518083038186803b15801561395357600080fd5b505afa158015613967573d6000803e3d6000fd5b505050506040513d601f19601f8201168201806040525081019061398b91906142f4565b9050818110156139b857808911156139a957809850600096506139b8565b6139b589820388613fc5565b96505b505b5050600e805460ff60a01b1916905550939592945090925050565b6000828201838110156137335760405162461bcd60e51b815260040161068490614589565b600082613a0957506000613736565b82820282848281613a1657fe5b04146137335760405162461bcd60e51b8152600401610684906145e6565b600061373383836040518060400160405280601a81526020017f536166654d6174683a206469766973696f6e206279207a65726f000000000000815250614007565b600b54630100000090046001600160a01b0316613aa973d31fcd1f7ba190dbc75354046f6024a9b86014d78260006127f9565b613ac973888ef71766ca594ded1f0fa3ae64ed2941740a208260006127f9565b50600b805462ff0100600160b81b0319169055565b600b5462010000900460ff16613b5f57600e54600d546001600160a01b039182169163f3fef3a39116613b0f610d26565b6040518363ffffffff1660e01b8152600401613b2c929190614469565b600060405180830381600087803b158015613b4657600080fd5b505af1158015613b5a573d6000803e3d6000fd5b505050505b600d546040516370a0823160e01b81526000916001600160a01b0316906370a0823190613b90903090600401614378565b60206040518083038186803b158015613ba857600080fd5b505afa158015613bbc573d6000803e3d6000fd5b505050506040513d601f19601f82011682018060405250810190613be091906142f4565b90508015613bff57600d54613bff906001600160a01b03168383612991565b6040516370a0823160e01b8152600090600080516020614861833981519152906370a0823190613c33903090600401614378565b60206040518083038186803b158015613c4b57600080fd5b505afa158015613c5f573d6000803e3d6000fd5b505050506040513d601f19601f82011682018060405250810190613c8391906142f4565b905080156128f35760405163a9059cbb60e01b81526000805160206148618339815191529063a9059cbb90613cbe9086908590600401614469565b602060405180830381600087803b158015613cd857600080fd5b505af1158015613cec573d6000803e3d6000fd5b505050506040513d601f19601f82011682018060405250810190613d1091906141d5565b50505050565b600b54630100000090046001600160a01b031680613d4b73d31fcd1f7ba190dbc75354046f6024a9b86014d7826000196127f9565b600654604051632642a09360e11b81526001600160a01b0380841692634c85412692613d919273d31fcd1f7ba190dbc75354046f6024a9b86014d792169060040161438c565b600060405180830381600087803b158015613dab57600080fd5b505af1158015613dbf573d6000803e3d6000fd5b50613de7925073888ef71766ca594ded1f0fa3ae64ed2941740a2091508490506000196127f9565b600654604051632642a09360e11b81526001600160a01b0380841692634c85412692613e2d9273888ef71766ca594ded1f0fa3ae64ed2941740a2092169060040161438c565b600060405180830381600087803b158015613e4757600080fd5b505af1158015613e5b573d6000803e3d6000fd5b5050600b805461ff00191661010017905550505050565b6060613ec7826040518060400160405280602081526020017f5361666545524332303a206c6f772d6c6576656c2063616c6c206661696c6564815250856001600160a01b03166128f89092919063ffffffff16565b8051909150156128f35780806020019051810190613ee591906141d5565b6128f35760405162461bcd60e51b8152600401610684906146c4565b6060613f0c8561403e565b613f285760405162461bcd60e51b815260040161068490614668565b60006060866001600160a01b03168587604051613f45919061435c565b60006040518083038185875af1925050503d8060008114613f82576040519150601f19603f3d011682016040523d82523d6000602084013e613f87565b606091505b50915091508115613f9b5791506129079050565b805115613fab5780518082602001fd5b8360405162461bcd60e51b81526004016106849190614512565b6000818310613fd45781613733565b5090919050565b60008184841115613fff5760405162461bcd60e51b81526004016106849190614512565b505050900390565b600081836140285760405162461bcd60e51b81526004016106849190614512565b50600083858161403457fe5b0495945050505050565b6000813f7fc5d2460186f7233c927e7db2dcc703c0e500b653ca82273b7bfad8045d85a470818114801590612907575050151592915050565b828054600181600116156101000203166002900490600052602060002090601f016020900481019282601f106140b85782800160ff198235161785556140e5565b828001600101855582156140e5579182015b828111156140e55782358255916020019190600101906140ca565b506140f1929150614141565b5090565b6040518061012001604052806000815260200160008152602001600081526020016000815260200160008152602001600081526020016000815260200160008152602001600081525090565b5b808211156140f15760008155600101614142565b600060208284031215614167578081fd5b81356137338161483d565b600060208284031215614183578081fd5b81516137338161483d565b600080604083850312156141a0578081fd5b82356141ab8161483d565b946020939093013593505050565b6000602082840312156141ca578081fd5b813561373381614852565b6000602082840312156141e6578081fd5b815161373381614852565b60008060208385031215614203578182fd5b823567ffffffffffffffff8082111561421a578384fd5b818501915085601f83011261422d578384fd5b81358181111561423b578485fd5b86602082850101111561424c578485fd5b60209290920196919550909350505050565b6000610120808385031215614271578182fd5b61427a816147ea565b9050825181526020830151602082015260408301516040820152606083015160608201526080830151608082015260a083015160a082015260c083015160c082015260e083015160e08201526101008084015181830152508091505092915050565b6000602082840312156142ed578081fd5b5035919050565b600060208284031215614305578081fd5b5051919050565b6000806040838503121561431e578182fd5b505080516020909101519092909150565b600080600060608486031215614343578081fd5b8351925060208401519150604084015190509250925092565b6000825161436e818460208701614811565b9190910192915050565b6001600160a01b0391909116815260200190565b6001600160a01b0392831681529116602082015260400190565b6001600160a01b03948516815292909316602083015215156040820152606081019190915260800190565b6001600160a01b039889168152968816602088015294151560408701526060860193909352608085019190915260a084015290921660c082015260e08101919091526101000190565b6001600160a01b03998a168152978916602089015295151560408801526060870194909452608086019290925260a085015260c084015290921660e08201526101008101919091526101200190565b6001600160a01b03929092168252602082015260400190565b6020808252825182820181905260009190848201906040850190845b818110156144c35783516001600160a01b03168352928401929184019160010161449e565b50909695505050505050565b901515815260200190565b90815260200190565b60006020825282602083015282846040840137818301604090810191909152601f909201601f19160101919050565b6000602082528251806020840152614531816040850160208701614811565b601f01601f19169190910160400192915050565b6020808252600b908201526a085cdd1c985d1959da5cdd60aa1b604082015260600190565b602080825260059082015264085dd85b9d60da1b604082015260600190565b6020808252601b908201527f536166654d6174683a206164646974696f6e206f766572666c6f770000000000604082015260600190565b6020808252600c908201526b216865616c7468636865636b60a01b604082015260600190565b60208082526021908201527f536166654d6174683a206d756c7469706c69636174696f6e206f766572666c6f6040820152607760f81b606082015260800190565b602080825260069082015265085d985d5b1d60d21b604082015260600190565b6020808252600790820152662173686172657360c81b604082015260600190565b6020808252601d908201527f416464726573733a2063616c6c20746f206e6f6e2d636f6e7472616374000000604082015260600190565b6020808252600b908201526a08585d5d1a1bdc9a5e995960aa1b604082015260600190565b6020808252602a908201527f5361666545524332303a204552433230206f7065726174696f6e20646964206e6040820152691bdd081cdd58d8d9595960b21b606082015260800190565b6020808252600a9082015269085c1c9bdd1958dd195960b21b604082015260600190565b60208082526036908201527f5361666545524332303a20617070726f76652066726f6d206e6f6e2d7a65726f60408201527520746f206e6f6e2d7a65726f20616c6c6f77616e636560501b606082015260800190565b918252602082015260400190565b9283526020830191909152604082015260600190565b93845260208401929092526040830152606082015260800190565b948552602085019390935260408401919091526060830152608082015260a00190565b60405181810167ffffffffffffffff8111828210171561480957600080fd5b604052919050565b60005b8381101561482c578181015183820152602001614814565b83811115613d105750506000910152565b6001600160a01b0381168114611fd657600080fd5b8015158114611fd657600080fdfe000000000000000000000000a48d959ae2e88f1daa7d5f611e01908106de7598a2646970667358221220d2e07c9aa948f169d44f4a58217bde6fdfa078def8cd14e5626bb282ec5d703364736f6c634300060c0033",
  "bytecodeSha1": "db4ca21a21a0c736d723f1c1b5fd1870157a781c",
  "compiler": {
    "evm_version": "istanbul",
    "optimizer": {
      "enabled": true,
      "runs": 200
    },
    "version": "0.6.12+commit.27d51765"
  },
  "contractName": "Strategy",
  "language": "Solidity",
  "natspec": {
    "kind": "dev",
    "methods": {
      "apiVersion()": {
        "details": "The Strategy's version must match the Vault's `API_VERSION`.",
        "notice": "Used to track which version of `StrategyAPI` this Strategy  implements.",
        "returns": {
          "_0": "A string which holds the current API version of this contract."
        }
      },
      "delegatedAssets()": {
        "details": "You can override this field to set it to a non-zero value if some of the assets of this  Strategy is somehow delegated inside another part of of Yearn's ecosystem e.g. another Vault.  Note that this value must be strictly less than or equal to the amount provided by  `estimatedTotalAssets()` below, as the TVL calc will be total assets minus delegated assets.  Also note that this value is used to determine the total assets under management by this  strategy, for the purposes of computing the management fee in `Vault`",
        "notice": "The amount (priced in want) of the total assets managed by this strategy should not count  towards Yearn's TVL calculations.",
        "returns": {
          "_0": "The amount of assets this strategy manages that should not be included in Yearn's Total Value  Locked (TVL) calculation across it's ecosystem."
        }
      },
      "estimatedTotalAssets()": {
        "details": "Care must be taken in using this function, since it relies on external  systems, which could be manipulated by the attacker to give an inflated  (or reduced) value produced by this function, based on current on-chain  conditions (e.g. this function is possible to influence through  flashloan attacks, oracle manipulations, or other DeFi attack  mechanisms).  It is up to governance to use this function to correctly order this  Strategy relative to its peers in the withdrawal queue to minimize  losses for the Vault based on sudden withdrawals. This value should be  higher than the total debt of the Strategy and higher than its expected  value to be \"safe\".",
        "notice": "Provide an accurate estimate for the total amount of assets  (principle + return) that this Strategy is currently managing,  denominated in terms of `want` tokens.  This total should be \"realizable\" e.g. the total value that could  *actually* be obtained from this Strategy if it were to divest its  entire position based on current on-chain conditions.",
        "returns": {
          "_0": "The estimated total assets in this Strategy."
        }
      },
      "ethToWant(uint256)": {
        "details": "Care must be taken when working with decimals to assure that the conversion  is compatible. As an example:      given 1e17 wei (0.1 ETH) as input, and want is USDC (6 decimals),      with USDC/ETH = 1800, this should give back 1800000000 (180 USDC)",
        "notice": "Provide an accurate conversion from `_amtInWei` (denominated in wei)  to `want` (using the native decimal characteristics of `want`).",
        "params": {
          "_amtInWei": "The amount (in wei/1e-18 ETH) to convert to `want`"
        },
        "returns": {
          "_0": "The amount in `want` of `_amtInEth` converted to `want`*"
        }
      },
      "harvest()": {
        "details": "When `harvest()` is called, the Strategy reports to the Vault (via  `vault.report()`), so in some cases `harvest()` must be called in order  to take in profits, to borrow newly available funds from the Vault, or  otherwise adjust its position. In other cases `harvest()` must be  called to report to the Vault on the Strategy's position, especially if  any losses have occurred.",
        "notice": "Harvests the Strategy, recognizing any profits or losses and adjusting  the Strategy's position.  In the rare case the Strategy is in emergency shutdown, this will exit  the Strategy's position.  This may only be called by governance, the strategist, or the keeper."
      },
      "migrate(address)": {
        "details": "The new Strategy's Vault must be the same as this Strategy's Vault.  The migration process should be carefully performed to make sure all the assets are migrated to the new address, which should have never interacted with the vault before.",
        "notice": "Transfers all `want` from this Strategy to `_newStrategy`.  This may only be called by the Vault.",
        "params": {
          "_newStrategy": "The Strategy to migrate to."
        }
      },
      "name()": {
        "details": "You can use this field to manage the \"version\" of this Strategy, e.g.  `StrategySomethingOrOtherV1`. However, \"API Version\" is managed by  `apiVersion()` function above.",
        "notice": "This Strategy's name.",
        "returns": {
          "_0": "This Strategy's name."
        }
      },
      "setDebtThreshold(uint256)": {
        "notice": "Sets how far the Strategy can go into loss without a harvest and report  being required.  By default this is 0, meaning any losses would cause a harvest which  will subsequently report the loss to the Vault for tracking. (See  `harvestTrigger()` for more details.)  This may only be called by governance or the strategist.",
        "params": {
          "_debtThreshold": "How big of a loss this Strategy may carry without being required to report to the Vault."
        }
      },
      "setEmergencyExit()": {
        "details": "See `vault.setEmergencyShutdown()` and `harvest()` for further details.",
        "notice": "Activates emergency exit. Once activated, the Strategy will exit its  position upon the next harvest, depositing all funds into the Vault as  quickly as is reasonable given on-chain conditions.  This may only be called by governance or the strategist."
      },
      "setForceHarvestTriggerOnce(bool)": {
        "notice": "This allows us to manually harvest with our keeper as needed"
      },
      "setKeeper(address)": {
        "notice": "Used to change `keeper`.  `keeper` is the only address that may call `tend()` or `harvest()`,  other than `governance()` or `strategist`. However, unlike  `governance()` or `strategist`, `keeper` may *only* call `tend()`  and `harvest()`, and no other authorized functions, following the  principle of least privilege.  This may only be called by governance or the strategist.",
        "params": {
          "_keeper": "The new address to assign as `keeper`."
        }
      },
      "setMaxReportDelay(uint256)": {
        "notice": "Used to change `maxReportDelay`. `maxReportDelay` is the maximum number  of blocks that should pass for `harvest()` to be called.  For external keepers (such as the Keep3r network), this is the maximum  time between jobs to wait. (see `harvestTrigger()`  for more details.)  This may only be called by governance or the strategist.",
        "params": {
          "_delay": "The maximum number of seconds to wait between harvests."
        }
      },
      "setMetadataURI(string)": {
        "notice": "Used to change `metadataURI`. `metadataURI` is used to store the URI of the file describing the strategy.  This may only be called by governance or the strategist.",
        "params": {
          "_metadataURI": "The URI that describe the strategy."
        }
      },
      "setMinHarvestCredit(uint256)": {
        "notice": "When our strategy has this much credit, harvestTrigger will be true."
      },
      "setMinReportDelay(uint256)": {
        "notice": "Used to change `minReportDelay`. `minReportDelay` is the minimum number  of blocks that should pass for `harvest()` to be called.  For external keepers (such as the Keep3r network), this is the minimum  time between jobs to wait. (see `harvestTrigger()`  for more details.)  This may only be called by governance or the strategist.",
        "params": {
          "_delay": "The minimum number of seconds to wait between harvests."
        }
      },
      "setProfitFactor(uint256)": {
        "notice": "Used to change `profitFactor`. `profitFactor` is used to determine  if it's worthwhile to harvest, given gas costs. (See `harvestTrigger()`  for more details.)  This may only be called by governance or the strategist.",
        "params": {
          "_profitFactor": "A ratio to multiply anticipated `harvest()` gas cost against."
        }
      },
      "setRewards(address)": {
        "notice": "Used to change `rewards`. EOA or smart contract which has the permission  to pull rewards from the vault.  This may only be called by the strategist.",
        "params": {
          "_rewards": "The address to use for pulling rewards."
        }
      },
      "setStrategist(address)": {
        "notice": "Used to change `strategist`.  This may only be called by governance or the existing strategist.",
        "params": {
          "_strategist": "The new address to assign as `strategist`."
        }
      },
      "sweep(address)": {
        "details": "Implement `protectedTokens()` to specify any additional tokens that  should be protected from sweeping in addition to `want`.",
        "notice": "Removes tokens from this Strategy that are not the type of tokens  managed by this Strategy. This may be used in case of accidentally  sending the wrong kind of token to this Strategy.  Tokens will be sent to `governance()`.  This will fail if an attempt is made to sweep `want`, or any tokens  that are protected by this Strategy.  This may only be called by governance.",
        "params": {
          "_token": "The token to transfer out of this vault."
        }
      },
      "tend()": {
        "notice": "Adjust the Strategy's position. The purpose of tending isn't to  realize gains, but to maximize yield by reinvesting any returns.  See comments on `adjustPosition()`.  This may only be called by governance, the strategist, or the keeper."
      },
      "tendTrigger(uint256)": {
        "details": "`callCostInWei` must be priced in terms of `wei` (1e-18 ETH).  This call and `harvestTrigger()` should never return `true` at the same  time.",
        "notice": "Provide a signal to the keeper that `tend()` should be called. The  keeper will provide the estimated gas cost that they would pay to call  `tend()`, and this function should use that estimate to make a  determination if calling it is \"worth it\" for the keeper. This is not  the only consideration into issuing this trigger, for example if the  position would be negatively affected if `tend()` is not called  shortly, then this can return `true` even if the keeper might be  \"at a loss\" (keepers are always reimbursed by Yearn).",
        "params": {
          "callCostInWei": "The keeper's estimated gas cost to call `tend()` (in wei)."
        },
        "returns": {
          "_0": "`true` if `tend()` should be called, `false` otherwise."
        }
      },
      "withdraw(uint256)": {
        "notice": "Withdraws `_amountNeeded` to `vault`.  This may only be called by the Vault.",
        "params": {
          "_amountNeeded": "How much `want` to withdraw."
        },
        "returns": {
          "_loss": "Any realized losses"
        }
      }
    },
    "version": 1
  },
  "opcodes": "PUSH1 0x80 PUSH1 0x40 MSTORE CALLVALUE DUP1 ISZERO PUSH2 0x10 JUMPI PUSH1 0x0 DUP1 REVERT JUMPDEST POP PUSH1 0x4 CALLDATASIZE LT PUSH2 0x342 JUMPI PUSH1 0x0 CALLDATALOAD PUSH1 0xE0 SHR DUP1 PUSH4 0x6D37122D GT PUSH2 0x1B8 JUMPI DUP1 PUSH4 0xB252720B GT PUSH2 0x104 JUMPI DUP1 PUSH4 0xEC38A862 GT PUSH2 0xA2 JUMPI DUP1 PUSH4 0xF017C92F GT PUSH2 0x7C JUMPI DUP1 PUSH4 0xF017C92F EQ PUSH2 0x621 JUMPI DUP1 PUSH4 0xF1B0D882 EQ PUSH2 0x634 JUMPI DUP1 PUSH4 0xFBFA77CF EQ PUSH2 0x63C JUMPI DUP1 PUSH4 0xFCF2D0AD EQ PUSH2 0x644 JUMPI PUSH2 0x342 JUMP JUMPDEST DUP1 PUSH4 0xEC38A862 EQ PUSH2 0x5F3 JUMPI DUP1 PUSH4 0xED882C2B EQ PUSH2 0x606 JUMPI DUP1 PUSH4 0xEFBB5CB0 EQ PUSH2 0x619 JUMPI PUSH2 0x342 JUMP JUMPDEST DUP1 PUSH4 0xCE5494BB GT PUSH2 0xDE JUMPI DUP1 PUSH4 0xCE5494BB EQ PUSH2 0x5B2 JUMPI DUP1 PUSH4 0xD8C658C2 EQ PUSH2 0x5C5 JUMPI DUP1 PUSH4 0xDB1633E2 EQ PUSH2 0x5D8 JUMPI DUP1 PUSH4 0xE5E19B4A EQ PUSH2 0x5EB JUMPI PUSH2 0x342 JUMP JUMPDEST DUP1 PUSH4 0xB252720B EQ PUSH2 0x58F JUMPI DUP1 PUSH4 0xC1A3D44C EQ PUSH2 0x597 JUMPI DUP1 PUSH4 0xC7B9D530 EQ PUSH2 0x59F JUMPI PUSH2 0x342 JUMP JUMPDEST DUP1 PUSH4 0x8CDFE166 GT PUSH2 0x171 JUMPI DUP1 PUSH4 0x95E80C50 GT PUSH2 0x14B JUMPI DUP1 PUSH4 0x95E80C50 EQ PUSH2 0x564 JUMPI DUP1 PUSH4 0x9EC5A894 EQ PUSH2 0x56C JUMPI DUP1 PUSH4 0xAC00FF26 EQ PUSH2 0x574 JUMPI DUP1 PUSH4 0xACED1661 EQ PUSH2 0x587 JUMPI PUSH2 0x342 JUMP JUMPDEST DUP1 PUSH4 0x8CDFE166 EQ PUSH2 0x541 JUMPI DUP1 PUSH4 0x8E6350E2 EQ PUSH2 0x549 JUMPI DUP1 PUSH4 0x91397AB4 EQ PUSH2 0x551 JUMPI PUSH2 0x342 JUMP JUMPDEST DUP1 PUSH4 0x6D37122D EQ PUSH2 0x4E5 JUMPI DUP1 PUSH4 0x6D51A20F EQ PUSH2 0x4ED JUMPI DUP1 PUSH4 0x735FD189 EQ PUSH2 0x4F5 JUMPI DUP1 PUSH4 0x748747E6 EQ PUSH2 0x508 JUMPI DUP1 PUSH4 0x750521F5 EQ PUSH2 0x51B JUMPI DUP1 PUSH4 0x780022A0 EQ PUSH2 0x52E JUMPI PUSH2 0x342 JUMP JUMPDEST DUP1 PUSH4 0x24B5A31D GT PUSH2 0x292 JUMPI DUP1 PUSH4 0x4641257D GT PUSH2 0x230 JUMPI DUP1 PUSH4 0x5BD2AFDA GT PUSH2 0x20A JUMPI DUP1 PUSH4 0x5BD2AFDA EQ PUSH2 0x4AF JUMPI DUP1 PUSH4 0x5FCBD285 EQ PUSH2 0x4C2 JUMPI DUP1 PUSH4 0x650D1880 EQ PUSH2 0x4CA JUMPI DUP1 PUSH4 0x6718835F EQ PUSH2 0x4DD JUMPI PUSH2 0x342 JUMP JUMPDEST DUP1 PUSH4 0x4641257D EQ PUSH2 0x48C JUMPI DUP1 PUSH4 0x5137FB09 EQ PUSH2 0x494 JUMPI DUP1 PUSH4 0x5641EC03 EQ PUSH2 0x4A7 JUMPI PUSH2 0x342 JUMP JUMPDEST DUP1 PUSH4 0x2E1A7D4D GT PUSH2 0x26C JUMPI DUP1 PUSH4 0x2E1A7D4D EQ PUSH2 0x456 JUMPI DUP1 PUSH4 0x39A172A8 EQ PUSH2 0x469 JUMPI DUP1 PUSH4 0x3A662FCD EQ PUSH2 0x47C JUMPI DUP1 PUSH4 0x440368A3 EQ PUSH2 0x484 JUMPI PUSH2 0x342 JUMP JUMPDEST DUP1 PUSH4 0x24B5A31D EQ PUSH2 0x43E JUMPI DUP1 PUSH4 0x25829410 EQ PUSH2 0x446 JUMPI DUP1 PUSH4 0x28B7CCF7 EQ PUSH2 0x44E JUMPI PUSH2 0x342 JUMP JUMPDEST DUP1 PUSH4 0xF969B87 GT PUSH2 0x2FF JUMPI DUP1 PUSH4 0x1D12F28B GT PUSH2 0x2D9 JUMPI DUP1 PUSH4 0x1D12F28B EQ PUSH2 0x411 JUMPI DUP1 PUSH4 0x1F1FCD51 EQ PUSH2 0x419 JUMPI DUP1 PUSH4 0x1FE4A686 EQ PUSH2 0x421 JUMPI DUP1 PUSH4 0x22F3E2D4 EQ PUSH2 0x429 JUMPI PUSH2 0x342 JUMP JUMPDEST DUP1 PUSH4 0xF969B87 EQ PUSH2 0x3CA JUMPI DUP1 PUSH4 0x11A8CE90 EQ PUSH2 0x3DD JUMPI DUP1 PUSH4 0x11BC8245 EQ PUSH2 0x3FE JUMPI PUSH2 0x342 JUMP JUMPDEST DUP1 PUSH4 0x1681A62 EQ PUSH2 0x347 JUMPI DUP1 PUSH4 0x3EE438C EQ PUSH2 0x35C JUMPI DUP1 PUSH4 0x40CDB5F EQ PUSH2 0x37A JUMPI DUP1 PUSH4 0x6FDDE03 EQ PUSH2 0x39A JUMPI DUP1 PUSH4 0x81748DC EQ PUSH2 0x3A2 JUMPI DUP1 PUSH4 0xADA4DAB EQ PUSH2 0x3B7 JUMPI JUMPDEST PUSH1 0x0 DUP1 REVERT JUMPDEST PUSH2 0x35A PUSH2 0x355 CALLDATASIZE PUSH1 0x4 PUSH2 0x4156 JUMP JUMPDEST PUSH2 0x64C JUMP JUMPDEST STOP JUMPDEST PUSH2 0x364 PUSH2 0x7EB JUMP JUMPDEST PUSH1 0x40 MLOAD PUSH2 0x371 SWAP2 SWAP1 PUSH2 0x4512 JUMP JUMPDEST PUSH1 0x40 MLOAD DUP1 SWAP2 SUB SWAP1 RETURN JUMPDEST PUSH2 0x38D PUSH2 0x388 CALLDATASIZE PUSH1 0x4 PUSH2 0x42DC JUMP JUMPDEST PUSH2 0x879 JUMP JUMPDEST PUSH1 0x40 MLOAD PUSH2 0x371 SWAP2 SWAP1 PUSH2 0x44DA JUMP JUMPDEST PUSH2 0x364 PUSH2 0x905 JUMP JUMPDEST PUSH2 0x3AA PUSH2 0x99B JUMP JUMPDEST PUSH1 0x40 MLOAD PUSH2 0x371 SWAP2 SWAP1 PUSH2 0x4378 JUMP JUMPDEST PUSH2 0x35A PUSH2 0x3C5 CALLDATASIZE PUSH1 0x4 PUSH2 0x41B9 JUMP JUMPDEST PUSH2 0x9AA JUMP JUMPDEST PUSH2 0x35A PUSH2 0x3D8 CALLDATASIZE PUSH1 0x4 PUSH2 0x42DC JUMP JUMPDEST PUSH2 0xA15 JUMP JUMPDEST PUSH2 0x3F0 PUSH2 0x3EB CALLDATASIZE PUSH1 0x4 PUSH2 0x42DC JUMP JUMPDEST PUSH2 0xAA2 JUMP JUMPDEST PUSH1 0x40 MLOAD PUSH2 0x371 SWAP3 SWAP2 SWAP1 PUSH2 0x4788 JUMP JUMPDEST PUSH2 0x35A PUSH2 0x40C CALLDATASIZE PUSH1 0x4 PUSH2 0x4156 JUMP JUMPDEST PUSH2 0xB5F JUMP JUMPDEST PUSH2 0x38D PUSH2 0xC60 JUMP JUMPDEST PUSH2 0x3AA PUSH2 0xC66 JUMP JUMPDEST PUSH2 0x3AA PUSH2 0xC75 JUMP JUMPDEST PUSH2 0x431 PUSH2 0xC84 JUMP JUMPDEST PUSH1 0x40 MLOAD PUSH2 0x371 SWAP2 SWAP1 PUSH2 0x44CF JUMP JUMPDEST PUSH2 0x38D PUSH2 0xD26 JUMP JUMPDEST PUSH2 0x364 PUSH2 0xDAE JUMP JUMPDEST PUSH2 0x38D PUSH2 0xDCD JUMP JUMPDEST PUSH2 0x38D PUSH2 0x464 CALLDATASIZE PUSH1 0x4 PUSH2 0x42DC JUMP JUMPDEST PUSH2 0xDD3 JUMP JUMPDEST PUSH2 0x35A PUSH2 0x477 CALLDATASIZE PUSH1 0x4 PUSH2 0x42DC JUMP JUMPDEST PUSH2 0xE2E JUMP JUMPDEST PUSH2 0x431 PUSH2 0xEB0 JUMP JUMPDEST PUSH2 0x35A PUSH2 0xEBF JUMP JUMPDEST PUSH2 0x35A PUSH2 0x10E8 JUMP JUMPDEST PUSH2 0x35A PUSH2 0x4A2 CALLDATASIZE PUSH1 0x4 PUSH2 0x42DC JUMP JUMPDEST PUSH2 0x15C1 JUMP JUMPDEST PUSH2 0x431 PUSH2 0x1613 JUMP JUMPDEST PUSH2 0x38D PUSH2 0x4BD CALLDATASIZE PUSH1 0x4 PUSH2 0x42DC JUMP JUMPDEST PUSH2 0x161C JUMP JUMPDEST PUSH2 0x3AA PUSH2 0x16EC JUMP JUMPDEST PUSH2 0x431 PUSH2 0x4D8 CALLDATASIZE PUSH1 0x4 PUSH2 0x42DC JUMP JUMPDEST PUSH2 0x16FB JUMP JUMPDEST PUSH2 0x431 PUSH2 0x1711 JUMP JUMPDEST PUSH2 0x431 PUSH2 0x171A JUMP JUMPDEST PUSH2 0x35A PUSH2 0x1728 JUMP JUMPDEST PUSH2 0x35A PUSH2 0x503 CALLDATASIZE PUSH1 0x4 PUSH2 0x418E JUMP JUMPDEST PUSH2 0x18BF JUMP JUMPDEST PUSH2 0x35A PUSH2 0x516 CALLDATASIZE PUSH1 0x4 PUSH2 0x4156 JUMP JUMPDEST PUSH2 0x1AB6 JUMP JUMPDEST PUSH2 0x35A PUSH2 0x529 CALLDATASIZE PUSH1 0x4 PUSH2 0x41F1 JUMP JUMPDEST PUSH2 0x1B61 JUMP JUMPDEST PUSH2 0x38D PUSH2 0x53C CALLDATASIZE PUSH1 0x4 PUSH2 0x42DC JUMP JUMPDEST PUSH2 0x1BF8 JUMP JUMPDEST PUSH2 0x38D PUSH2 0x1BFE JUMP JUMPDEST PUSH2 0x38D PUSH2 0x1C04 JUMP JUMPDEST PUSH2 0x35A PUSH2 0x55F CALLDATASIZE PUSH1 0x4 PUSH2 0x42DC JUMP JUMPDEST PUSH2 0x1C09 JUMP JUMPDEST PUSH2 0x38D PUSH2 0x1C8B JUMP JUMPDEST PUSH2 0x3AA PUSH2 0x1C91 JUMP JUMPDEST PUSH2 0x35A PUSH2 0x582 CALLDATASIZE PUSH1 0x4 PUSH2 0x41B9 JUMP JUMPDEST PUSH2 0x1CA0 JUMP JUMPDEST PUSH2 0x3AA PUSH2 0x1D8C JUMP JUMPDEST PUSH2 0x3AA PUSH2 0x1D9B JUMP JUMPDEST PUSH2 0x38D PUSH2 0x1DAF JUMP JUMPDEST PUSH2 0x35A PUSH2 0x5AD CALLDATASIZE PUSH1 0x4 PUSH2 0x4156 JUMP JUMPDEST PUSH2 0x1DE0 JUMP JUMPDEST PUSH2 0x35A PUSH2 0x5C0 CALLDATASIZE PUSH1 0x4 PUSH2 0x4156 JUMP JUMPDEST PUSH2 0x1E8B JUMP JUMPDEST PUSH2 0x35A PUSH2 0x5D3 CALLDATASIZE PUSH1 0x4 PUSH2 0x4156 JUMP JUMPDEST PUSH2 0x1FD9 JUMP JUMPDEST PUSH2 0x35A PUSH2 0x5E6 CALLDATASIZE PUSH1 0x4 PUSH2 0x41B9 JUMP JUMPDEST PUSH2 0x205D JUMP JUMPDEST PUSH2 0x3AA PUSH2 0x20C6 JUMP JUMPDEST PUSH2 0x35A PUSH2 0x601 CALLDATASIZE PUSH1 0x4 PUSH2 0x4156 JUMP JUMPDEST PUSH2 0x20DC JUMP JUMPDEST PUSH2 0x431 PUSH2 0x614 CALLDATASIZE PUSH1 0x4 PUSH2 0x42DC JUMP JUMPDEST PUSH2 0x226F JUMP JUMPDEST PUSH2 0x38D PUSH2 0x23E3 JUMP JUMPDEST PUSH2 0x35A PUSH2 0x62F CALLDATASIZE PUSH1 0x4 PUSH2 0x42DC JUMP JUMPDEST PUSH2 0x253D JUMP JUMPDEST PUSH2 0x38D PUSH2 0x25BF JUMP JUMPDEST PUSH2 0x3AA PUSH2 0x25C5 JUMP JUMPDEST PUSH2 0x35A PUSH2 0x25D4 JUMP JUMPDEST PUSH2 0x654 PUSH2 0x290F JUMP JUMPDEST PUSH1 0x1 PUSH1 0x1 PUSH1 0xA0 SHL SUB AND CALLER PUSH1 0x1 PUSH1 0x1 PUSH1 0xA0 SHL SUB AND EQ PUSH2 0x68D JUMPI PUSH1 0x40 MLOAD PUSH3 0x461BCD PUSH1 0xE5 SHL DUP2 MSTORE PUSH1 0x4 ADD PUSH2 0x684 SWAP1 PUSH2 0x469F JUMP JUMPDEST PUSH1 0x40 MLOAD DUP1 SWAP2 SUB SWAP1 REVERT JUMPDEST PUSH1 0x6 SLOAD PUSH1 0x1 PUSH1 0x1 PUSH1 0xA0 SHL SUB DUP3 DUP2 AND SWAP2 AND EQ ISZERO PUSH2 0x6BB JUMPI PUSH1 0x40 MLOAD PUSH3 0x461BCD PUSH1 0xE5 SHL DUP2 MSTORE PUSH1 0x4 ADD PUSH2 0x684 SWAP1 PUSH2 0x456A JUMP JUMPDEST PUSH1 0x2 SLOAD PUSH1 0x1 PUSH1 0x1 PUSH1 0xA0 SHL SUB DUP3 DUP2 AND SWAP2 AND EQ ISZERO PUSH2 0x6E9 JUMPI PUSH1 0x40 MLOAD PUSH3 0x461BCD PUSH1 0xE5 SHL DUP2 MSTORE PUSH1 0x4 ADD PUSH2 0x684 SWAP1 PUSH2 0x4647 JUMP JUMPDEST PUSH1 0x60 PUSH2 0x6F3 PUSH2 0x298C JUMP JUMPDEST SWAP1 POP PUSH1 0x0 JUMPDEST DUP2 MLOAD DUP2 LT ISZERO PUSH2 0x74E JUMPI DUP2 DUP2 DUP2 MLOAD DUP2 LT PUSH2 0x70D JUMPI INVALID JUMPDEST PUSH1 0x20 MUL PUSH1 0x20 ADD ADD MLOAD PUSH1 0x1 PUSH1 0x1 PUSH1 0xA0 SHL SUB AND DUP4 PUSH1 0x1 PUSH1 0x1 PUSH1 0xA0 SHL SUB AND EQ ISZERO PUSH2 0x746 JUMPI PUSH1 0x40 MLOAD PUSH3 0x461BCD PUSH1 0xE5 SHL DUP2 MSTORE PUSH1 0x4 ADD PUSH2 0x684 SWAP1 PUSH2 0x470E JUMP JUMPDEST PUSH1 0x1 ADD PUSH2 0x6F8 JUMP JUMPDEST POP PUSH2 0x7E7 PUSH2 0x75A PUSH2 0x290F JUMP JUMPDEST PUSH1 0x40 MLOAD PUSH4 0x70A08231 PUSH1 0xE0 SHL DUP2 MSTORE PUSH1 0x1 PUSH1 0x1 PUSH1 0xA0 SHL SUB DUP6 AND SWAP1 PUSH4 0x70A08231 SWAP1 PUSH2 0x786 SWAP1 ADDRESS SWAP1 PUSH1 0x4 ADD PUSH2 0x4378 JUMP JUMPDEST PUSH1 0x20 PUSH1 0x40 MLOAD DUP1 DUP4 SUB DUP2 DUP7 DUP1 EXTCODESIZE ISZERO DUP1 ISZERO PUSH2 0x79E JUMPI PUSH1 0x0 DUP1 REVERT JUMPDEST POP GAS STATICCALL ISZERO DUP1 ISZERO PUSH2 0x7B2 JUMPI RETURNDATASIZE PUSH1 0x0 DUP1 RETURNDATACOPY RETURNDATASIZE PUSH1 0x0 REVERT JUMPDEST POP POP POP POP PUSH1 0x40 MLOAD RETURNDATASIZE PUSH1 0x1F NOT PUSH1 0x1F DUP3 ADD AND DUP3 ADD DUP1 PUSH1 0x40 MSTORE POP DUP2 ADD SWAP1 PUSH2 0x7D6 SWAP2 SWAP1 PUSH2 0x42F4 JUMP JUMPDEST PUSH1 0x1 PUSH1 0x1 PUSH1 0xA0 SHL SUB DUP6 AND SWAP2 SWAP1 PUSH2 0x2991 JUMP JUMPDEST POP POP JUMP JUMPDEST PUSH1 0x0 DUP1 SLOAD PUSH1 0x40 DUP1 MLOAD PUSH1 0x20 PUSH1 0x2 PUSH1 0x1 DUP6 AND ISZERO PUSH2 0x100 MUL PUSH1 0x0 NOT ADD SWAP1 SWAP5 AND SWAP4 SWAP1 SWAP4 DIV PUSH1 0x1F DUP2 ADD DUP5 SWAP1 DIV DUP5 MUL DUP3 ADD DUP5 ADD SWAP1 SWAP3 MSTORE DUP2 DUP2 MSTORE SWAP3 SWAP2 DUP4 ADD DUP3 DUP3 DUP1 ISZERO PUSH2 0x871 JUMPI DUP1 PUSH1 0x1F LT PUSH2 0x846 JUMPI PUSH2 0x100 DUP1 DUP4 SLOAD DIV MUL DUP4 MSTORE SWAP2 PUSH1 0x20 ADD SWAP2 PUSH2 0x871 JUMP JUMPDEST DUP3 ADD SWAP2 SWAP1 PUSH1 0x0 MSTORE PUSH1 0x20 PUSH1 0x0 KECCAK256 SWAP1 JUMPDEST DUP2 SLOAD DUP2 MSTORE SWAP1 PUSH1 0x1 ADD SWAP1 PUSH1 0x20 ADD DUP1 DUP4 GT PUSH2 0x854 JUMPI DUP3 SWAP1 SUB PUSH1 0x1F AND DUP3 ADD SWAP2 JUMPDEST POP POP POP POP POP DUP2 JUMP JUMPDEST PUSH1 0x40 MLOAD PUSH4 0x43B0FF51 PUSH1 0xE0 SHL DUP2 MSTORE PUSH1 0x0 SWAP1 PUSH1 0x0 DUP1 MLOAD PUSH1 0x20 PUSH2 0x4861 DUP4 CODECOPY DUP2 MLOAD SWAP2 MSTORE SWAP1 PUSH4 0x43B0FF51 SWAP1 PUSH2 0x8AD SWAP1 DUP6 SWAP1 PUSH1 0x4 ADD PUSH2 0x44DA JUMP JUMPDEST PUSH1 0x20 PUSH1 0x40 MLOAD DUP1 DUP4 SUB DUP2 DUP7 DUP1 EXTCODESIZE ISZERO DUP1 ISZERO PUSH2 0x8C5 JUMPI PUSH1 0x0 DUP1 REVERT JUMPDEST POP GAS STATICCALL ISZERO DUP1 ISZERO PUSH2 0x8D9 JUMPI RETURNDATASIZE PUSH1 0x0 DUP1 RETURNDATACOPY RETURNDATASIZE PUSH1 0x0 REVERT JUMPDEST POP POP POP POP PUSH1 0x40 MLOAD RETURNDATASIZE PUSH1 0x1F NOT PUSH1 0x1F DUP3 ADD AND DUP3 ADD DUP1 PUSH1 0x40 MSTORE POP DUP2 ADD SWAP1 PUSH2 0x8FD SWAP2 SWAP1 PUSH2 0x42F4 JUMP JUMPDEST SWAP1 POP JUMPDEST SWAP2 SWAP1 POP JUMP JUMPDEST PUSH1 0xC DUP1 SLOAD PUSH1 0x40 DUP1 MLOAD PUSH1 0x20 PUSH1 0x1F PUSH1 0x2 PUSH1 0x0 NOT PUSH2 0x100 PUSH1 0x1 DUP9 AND ISZERO MUL ADD SWAP1 SWAP6 AND SWAP5 SWAP1 SWAP5 DIV SWAP4 DUP5 ADD DUP2 SWAP1 DIV DUP2 MUL DUP3 ADD DUP2 ADD SWAP1 SWAP3 MSTORE DUP3 DUP2 MSTORE PUSH1 0x60 SWAP4 SWAP1 SWAP3 SWAP1 SWAP2 DUP4 ADD DUP3 DUP3 DUP1 ISZERO PUSH2 0x991 JUMPI DUP1 PUSH1 0x1F LT PUSH2 0x966 JUMPI PUSH2 0x100 DUP1 DUP4 SLOAD DIV MUL DUP4 MSTORE SWAP2 PUSH1 0x20 ADD SWAP2 PUSH2 0x991 JUMP JUMPDEST DUP3 ADD SWAP2 SWAP1 PUSH1 0x0 MSTORE PUSH1 0x20 PUSH1 0x0 KECCAK256 SWAP1 JUMPDEST DUP2 SLOAD DUP2 MSTORE SWAP1 PUSH1 0x1 ADD SWAP1 PUSH1 0x20 ADD DUP1 DUP4 GT PUSH2 0x974 JUMPI DUP3 SWAP1 SUB PUSH1 0x1F AND DUP3 ADD SWAP2 JUMPDEST POP POP POP POP POP SWAP1 POP SWAP1 JUMP JUMPDEST PUSH1 0xE SLOAD PUSH1 0x1 PUSH1 0x1 PUSH1 0xA0 SHL SUB AND DUP2 JUMP JUMPDEST PUSH1 0x3 SLOAD PUSH1 0x1 PUSH1 0x1 PUSH1 0xA0 SHL SUB AND CALLER EQ DUP1 PUSH2 0x9DB JUMPI POP PUSH2 0x9C6 PUSH2 0x290F JUMP JUMPDEST PUSH1 0x1 PUSH1 0x1 PUSH1 0xA0 SHL SUB AND CALLER PUSH1 0x1 PUSH1 0x1 PUSH1 0xA0 SHL SUB AND EQ JUMPDEST PUSH2 0x9F7 JUMPI PUSH1 0x40 MLOAD PUSH3 0x461BCD PUSH1 0xE5 SHL DUP2 MSTORE PUSH1 0x4 ADD PUSH2 0x684 SWAP1 PUSH2 0x469F JUMP JUMPDEST PUSH1 0xE DUP1 SLOAD SWAP2 ISZERO ISZERO PUSH1 0x1 PUSH1 0xA0 SHL MUL PUSH1 0xFF PUSH1 0xA0 SHL NOT SWAP1 SWAP3 AND SWAP2 SWAP1 SWAP2 OR SWAP1 SSTORE JUMP JUMPDEST PUSH1 0x3 SLOAD PUSH1 0x1 PUSH1 0x1 PUSH1 0xA0 SHL SUB AND CALLER EQ DUP1 PUSH2 0xA46 JUMPI POP PUSH2 0xA31 PUSH2 0x290F JUMP JUMPDEST PUSH1 0x1 PUSH1 0x1 PUSH1 0xA0 SHL SUB AND CALLER PUSH1 0x1 PUSH1 0x1 PUSH1 0xA0 SHL SUB AND EQ JUMPDEST PUSH2 0xA62 JUMPI PUSH1 0x40 MLOAD PUSH3 0x461BCD PUSH1 0xE5 SHL DUP2 MSTORE PUSH1 0x4 ADD PUSH2 0x684 SWAP1 PUSH2 0x469F JUMP JUMPDEST PUSH1 0xA DUP2 SWAP1 SSTORE PUSH1 0x40 MLOAD PUSH32 0xA68BA126373D04C004C5748C300C9FCA12BD444B3D4332E261F3BD2BAC4A8600 SWAP1 PUSH2 0xA97 SWAP1 DUP4 SWAP1 PUSH2 0x44DA JUMP JUMPDEST PUSH1 0x40 MLOAD DUP1 SWAP2 SUB SWAP1 LOG1 POP JUMP JUMPDEST PUSH1 0x40 MLOAD PUSH4 0x10E1B98F PUSH1 0xE2 SHL DUP2 MSTORE PUSH1 0x0 SWAP1 DUP2 SWAP1 PUSH20 0xA38CD27185A464914D3046F0AB9D43356B34829D SWAP1 PUSH4 0x4386E63C SWAP1 PUSH2 0xB06 SWAP1 PUSH20 0x841FAD6EAE12C286D1FD18D1D525DFFA75C7EFFE SWAP1 PUSH1 0x0 DUP1 MLOAD PUSH1 0x20 PUSH2 0x4861 DUP4 CODECOPY DUP2 MLOAD SWAP2 MSTORE SWAP1 DUP7 SWAP1 DUP10 SWAP1 PUSH1 0x4 ADD PUSH2 0x43A6 JUMP JUMPDEST PUSH1 0x40 DUP1 MLOAD DUP1 DUP4 SUB DUP2 DUP7 DUP1 EXTCODESIZE ISZERO DUP1 ISZERO PUSH2 0xB1D JUMPI PUSH1 0x0 DUP1 REVERT JUMPDEST POP GAS STATICCALL ISZERO DUP1 ISZERO PUSH2 0xB31 JUMPI RETURNDATASIZE PUSH1 0x0 DUP1 RETURNDATACOPY RETURNDATASIZE PUSH1 0x0 REVERT JUMPDEST POP POP POP POP PUSH1 0x40 MLOAD RETURNDATASIZE PUSH1 0x1F NOT PUSH1 0x1F DUP3 ADD AND DUP3 ADD DUP1 PUSH1 0x40 MSTORE POP DUP2 ADD SWAP1 PUSH2 0xB55 SWAP2 SWAP1 PUSH2 0x430C JUMP JUMPDEST SWAP1 SWAP5 SWAP1 SWAP4 POP SWAP2 POP POP JUMP JUMPDEST PUSH1 0x2 PUSH1 0x0 SWAP1 SLOAD SWAP1 PUSH2 0x100 EXP SWAP1 DIV PUSH1 0x1 PUSH1 0x1 PUSH1 0xA0 SHL SUB AND PUSH1 0x1 PUSH1 0x1 PUSH1 0xA0 SHL SUB AND PUSH4 0x88A8D602 PUSH1 0x40 MLOAD DUP2 PUSH4 0xFFFFFFFF AND PUSH1 0xE0 SHL DUP2 MSTORE PUSH1 0x4 ADD PUSH1 0x20 PUSH1 0x40 MLOAD DUP1 DUP4 SUB DUP2 DUP7 DUP1 EXTCODESIZE ISZERO DUP1 ISZERO PUSH2 0xBAD JUMPI PUSH1 0x0 DUP1 REVERT JUMPDEST POP GAS STATICCALL ISZERO DUP1 ISZERO PUSH2 0xBC1 JUMPI RETURNDATASIZE PUSH1 0x0 DUP1 RETURNDATACOPY RETURNDATASIZE PUSH1 0x0 REVERT JUMPDEST POP POP POP POP PUSH1 0x40 MLOAD RETURNDATASIZE PUSH1 0x1F NOT PUSH1 0x1F DUP3 ADD AND DUP3 ADD DUP1 PUSH1 0x40 MSTORE POP DUP2 ADD SWAP1 PUSH2 0xBE5 SWAP2 SWAP1 PUSH2 0x4172 JUMP JUMPDEST PUSH1 0x1 PUSH1 0x1 PUSH1 0xA0 SHL SUB AND CALLER PUSH1 0x1 PUSH1 0x1 PUSH1 0xA0 SHL SUB AND EQ DUP1 PUSH2 0xC1C JUMPI POP PUSH2 0xC07 PUSH2 0x290F JUMP JUMPDEST PUSH1 0x1 PUSH1 0x1 PUSH1 0xA0 SHL SUB AND CALLER PUSH1 0x1 PUSH1 0x1 PUSH1 0xA0 SHL SUB AND EQ JUMPDEST PUSH2 0xC38 JUMPI PUSH1 0x40 MLOAD PUSH3 0x461BCD PUSH1 0xE5 SHL DUP2 MSTORE PUSH1 0x4 ADD PUSH2 0x684 SWAP1 PUSH2 0x469F JUMP JUMPDEST PUSH1 0x1 DUP1 SLOAD PUSH1 0x1 PUSH1 0x1 PUSH1 0xA0 SHL SUB SWAP1 SWAP3 AND PUSH2 0x100 MUL PUSH2 0x100 PUSH1 0x1 PUSH1 0xA8 SHL SUB NOT SWAP1 SWAP3 AND SWAP2 SWAP1 SWAP2 OR SWAP1 SSTORE JUMP JUMPDEST PUSH1 0xA SLOAD DUP2 JUMP JUMPDEST PUSH1 0x6 SLOAD PUSH1 0x1 PUSH1 0x1 PUSH1 0xA0 SHL SUB AND DUP2 JUMP JUMPDEST PUSH1 0x3 SLOAD PUSH1 0x1 PUSH1 0x1 PUSH1 0xA0 SHL SUB AND DUP2 JUMP JUMPDEST PUSH1 0x2 SLOAD PUSH1 0x40 MLOAD PUSH4 0x39EBF823 PUSH1 0xE0 SHL DUP2 MSTORE PUSH1 0x0 SWAP2 DUP3 SWAP2 PUSH1 0x1 PUSH1 0x1 PUSH1 0xA0 SHL SUB SWAP1 SWAP2 AND SWAP1 PUSH4 0x39EBF823 SWAP1 PUSH2 0xCB9 SWAP1 ADDRESS SWAP1 PUSH1 0x4 ADD PUSH2 0x4378 JUMP JUMPDEST PUSH2 0x120 PUSH1 0x40 MLOAD DUP1 DUP4 SUB DUP2 DUP7 DUP1 EXTCODESIZE ISZERO DUP1 ISZERO PUSH2 0xCD2 JUMPI PUSH1 0x0 DUP1 REVERT JUMPDEST POP GAS STATICCALL ISZERO DUP1 ISZERO PUSH2 0xCE6 JUMPI RETURNDATASIZE PUSH1 0x0 DUP1 RETURNDATACOPY RETURNDATASIZE PUSH1 0x0 REVERT JUMPDEST POP POP POP POP PUSH1 0x40 MLOAD RETURNDATASIZE PUSH1 0x1F NOT PUSH1 0x1F DUP3 ADD AND DUP3 ADD DUP1 PUSH1 0x40 MSTORE POP DUP2 ADD SWAP1 PUSH2 0xD0A SWAP2 SWAP1 PUSH2 0x425E JUMP JUMPDEST PUSH1 0x40 ADD MLOAD GT DUP1 PUSH2 0xD21 JUMPI POP PUSH1 0x0 PUSH2 0xD1F PUSH2 0x23E3 JUMP JUMPDEST GT JUMPDEST SWAP1 POP SWAP1 JUMP JUMPDEST PUSH1 0xE SLOAD PUSH1 0xD SLOAD PUSH1 0x40 MLOAD PUSH4 0x15B6A33 PUSH1 0xE7 SHL DUP2 MSTORE PUSH1 0x0 SWAP3 PUSH1 0x1 PUSH1 0x1 PUSH1 0xA0 SHL SUB SWAP1 DUP2 AND SWAP3 PUSH4 0xADB51980 SWAP3 PUSH2 0xD5E SWAP3 ADDRESS SWAP3 AND SWAP1 PUSH1 0x4 ADD PUSH2 0x438C JUMP JUMPDEST PUSH1 0x20 PUSH1 0x40 MLOAD DUP1 DUP4 SUB DUP2 DUP7 DUP1 EXTCODESIZE ISZERO DUP1 ISZERO PUSH2 0xD76 JUMPI PUSH1 0x0 DUP1 REVERT JUMPDEST POP GAS STATICCALL ISZERO DUP1 ISZERO PUSH2 0xD8A JUMPI RETURNDATASIZE PUSH1 0x0 DUP1 RETURNDATACOPY RETURNDATASIZE PUSH1 0x0 REVERT JUMPDEST POP POP POP POP PUSH1 0x40 MLOAD RETURNDATASIZE PUSH1 0x1F NOT PUSH1 0x1F DUP3 ADD AND DUP3 ADD DUP1 PUSH1 0x40 MSTORE POP DUP2 ADD SWAP1 PUSH2 0xD21 SWAP2 SWAP1 PUSH2 0x42F4 JUMP JUMPDEST PUSH1 0x40 DUP1 MLOAD DUP1 DUP3 ADD SWAP1 SWAP2 MSTORE PUSH1 0x5 DUP2 MSTORE PUSH5 0x18171A1719 PUSH1 0xD9 SHL PUSH1 0x20 DUP3 ADD MSTORE SWAP1 JUMP JUMPDEST PUSH1 0x8 SLOAD DUP2 JUMP JUMPDEST PUSH1 0x2 SLOAD PUSH1 0x0 SWAP1 PUSH1 0x1 PUSH1 0x1 PUSH1 0xA0 SHL SUB AND CALLER EQ PUSH2 0xE00 JUMPI PUSH1 0x40 MLOAD PUSH3 0x461BCD PUSH1 0xE5 SHL DUP2 MSTORE PUSH1 0x4 ADD PUSH2 0x684 SWAP1 PUSH2 0x4627 JUMP JUMPDEST PUSH1 0x0 PUSH2 0xE0B DUP4 PUSH2 0x29B0 JUMP JUMPDEST PUSH1 0x6 SLOAD SWAP1 SWAP4 POP SWAP1 SWAP2 POP PUSH2 0xE28 SWAP1 PUSH1 0x1 PUSH1 0x1 PUSH1 0xA0 SHL SUB AND CALLER DUP4 PUSH2 0x2991 JUMP JUMPDEST POP SWAP2 SWAP1 POP JUMP JUMPDEST PUSH1 0x3 SLOAD PUSH1 0x1 PUSH1 0x1 PUSH1 0xA0 SHL SUB AND CALLER EQ DUP1 PUSH2 0xE5F JUMPI POP PUSH2 0xE4A PUSH2 0x290F JUMP JUMPDEST PUSH1 0x1 PUSH1 0x1 PUSH1 0xA0 SHL SUB AND CALLER PUSH1 0x1 PUSH1 0x1 PUSH1 0xA0 SHL SUB AND EQ JUMPDEST PUSH2 0xE7B JUMPI PUSH1 0x40 MLOAD PUSH3 0x461BCD PUSH1 0xE5 SHL DUP2 MSTORE PUSH1 0x4 ADD PUSH2 0x684 SWAP1 PUSH2 0x469F JUMP JUMPDEST PUSH1 0x7 DUP2 SWAP1 SSTORE PUSH1 0x40 MLOAD PUSH32 0xBB2C369A0355A34B02AB5FCE0643150C87E1C8DFE7C918D465591879F57948B1 SWAP1 PUSH2 0xA97 SWAP1 DUP4 SWAP1 PUSH2 0x44DA JUMP JUMPDEST PUSH1 0xB SLOAD PUSH3 0x10000 SWAP1 DIV PUSH1 0xFF AND DUP2 JUMP JUMPDEST PUSH1 0x5 SLOAD PUSH1 0x1 PUSH1 0x1 PUSH1 0xA0 SHL SUB AND CALLER EQ DUP1 PUSH2 0xEE2 JUMPI POP PUSH1 0x3 SLOAD PUSH1 0x1 PUSH1 0x1 PUSH1 0xA0 SHL SUB AND CALLER EQ JUMPDEST DUP1 PUSH2 0xF05 JUMPI POP PUSH2 0xEF0 PUSH2 0x290F JUMP JUMPDEST PUSH1 0x1 PUSH1 0x1 PUSH1 0xA0 SHL SUB AND CALLER PUSH1 0x1 PUSH1 0x1 PUSH1 0xA0 SHL SUB AND EQ JUMPDEST DUP1 PUSH2 0xFA6 JUMPI POP PUSH1 0x2 PUSH1 0x0 SWAP1 SLOAD SWAP1 PUSH2 0x100 EXP SWAP1 DIV PUSH1 0x1 PUSH1 0x1 PUSH1 0xA0 SHL SUB AND PUSH1 0x1 PUSH1 0x1 PUSH1 0xA0 SHL SUB AND PUSH4 0x452A9320 PUSH1 0x40 MLOAD DUP2 PUSH4 0xFFFFFFFF AND PUSH1 0xE0 SHL DUP2 MSTORE PUSH1 0x4 ADD PUSH1 0x20 PUSH1 0x40 MLOAD DUP1 DUP4 SUB DUP2 DUP7 DUP1 EXTCODESIZE ISZERO DUP1 ISZERO PUSH2 0xF59 JUMPI PUSH1 0x0 DUP1 REVERT JUMPDEST POP GAS STATICCALL ISZERO DUP1 ISZERO PUSH2 0xF6D JUMPI RETURNDATASIZE PUSH1 0x0 DUP1 RETURNDATACOPY RETURNDATASIZE PUSH1 0x0 REVERT JUMPDEST POP POP POP POP PUSH1 0x40 MLOAD RETURNDATASIZE PUSH1 0x1F NOT PUSH1 0x1F DUP3 ADD AND DUP3 ADD DUP1 PUSH1 0x40 MSTORE POP DUP2 ADD SWAP1 PUSH2 0xF91 SWAP2 SWAP1 PUSH2 0x4172 JUMP JUMPDEST PUSH1 0x1 PUSH1 0x1 PUSH1 0xA0 SHL SUB AND CALLER PUSH1 0x1 PUSH1 0x1 PUSH1 0xA0 SHL SUB AND EQ JUMPDEST DUP1 PUSH2 0x1047 JUMPI POP PUSH1 0x2 PUSH1 0x0 SWAP1 SLOAD SWAP1 PUSH2 0x100 EXP SWAP1 DIV PUSH1 0x1 PUSH1 0x1 PUSH1 0xA0 SHL SUB AND PUSH1 0x1 PUSH1 0x1 PUSH1 0xA0 SHL SUB AND PUSH4 0x88A8D602 PUSH1 0x40 MLOAD DUP2 PUSH4 0xFFFFFFFF AND PUSH1 0xE0 SHL DUP2 MSTORE PUSH1 0x4 ADD PUSH1 0x20 PUSH1 0x40 MLOAD DUP1 DUP4 SUB DUP2 DUP7 DUP1 EXTCODESIZE ISZERO DUP1 ISZERO PUSH2 0xFFA JUMPI PUSH1 0x0 DUP1 REVERT JUMPDEST POP GAS STATICCALL ISZERO DUP1 ISZERO PUSH2 0x100E JUMPI RETURNDATASIZE PUSH1 0x0 DUP1 RETURNDATACOPY RETURNDATASIZE PUSH1 0x0 REVERT JUMPDEST POP POP POP POP PUSH1 0x40 MLOAD RETURNDATASIZE PUSH1 0x1F NOT PUSH1 0x1F DUP3 ADD AND DUP3 ADD DUP1 PUSH1 0x40 MSTORE POP DUP2 ADD SWAP1 PUSH2 0x1032 SWAP2 SWAP1 PUSH2 0x4172 JUMP JUMPDEST PUSH1 0x1 PUSH1 0x1 PUSH1 0xA0 SHL SUB AND CALLER PUSH1 0x1 PUSH1 0x1 PUSH1 0xA0 SHL SUB AND EQ JUMPDEST PUSH2 0x1063 JUMPI PUSH1 0x40 MLOAD PUSH3 0x461BCD PUSH1 0xE5 SHL DUP2 MSTORE PUSH1 0x4 ADD PUSH2 0x684 SWAP1 PUSH2 0x469F JUMP JUMPDEST PUSH1 0x2 SLOAD PUSH1 0x40 DUP1 MLOAD PUSH4 0xBF3759B5 PUSH1 0xE0 SHL DUP2 MSTORE SWAP1 MLOAD PUSH2 0x10E6 SWAP3 PUSH1 0x1 PUSH1 0x1 PUSH1 0xA0 SHL SUB AND SWAP2 PUSH4 0xBF3759B5 SWAP2 PUSH1 0x4 DUP1 DUP4 ADD SWAP3 PUSH1 0x20 SWAP3 SWAP2 SWAP1 DUP3 SWAP1 SUB ADD DUP2 DUP7 DUP1 EXTCODESIZE ISZERO DUP1 ISZERO PUSH2 0x10A9 JUMPI PUSH1 0x0 DUP1 REVERT JUMPDEST POP GAS STATICCALL ISZERO DUP1 ISZERO PUSH2 0x10BD JUMPI RETURNDATASIZE PUSH1 0x0 DUP1 RETURNDATACOPY RETURNDATASIZE PUSH1 0x0 REVERT JUMPDEST POP POP POP POP PUSH1 0x40 MLOAD RETURNDATASIZE PUSH1 0x1F NOT PUSH1 0x1F DUP3 ADD AND DUP3 ADD DUP1 PUSH1 0x40 MSTORE POP DUP2 ADD SWAP1 PUSH2 0x10E1 SWAP2 SWAP1 PUSH2 0x42F4 JUMP JUMPDEST PUSH2 0x2F2C JUMP JUMPDEST JUMP JUMPDEST PUSH1 0x5 SLOAD PUSH1 0x1 PUSH1 0x1 PUSH1 0xA0 SHL SUB AND CALLER EQ DUP1 PUSH2 0x110B JUMPI POP PUSH1 0x3 SLOAD PUSH1 0x1 PUSH1 0x1 PUSH1 0xA0 SHL SUB AND CALLER EQ JUMPDEST DUP1 PUSH2 0x112E JUMPI POP PUSH2 0x1119 PUSH2 0x290F JUMP JUMPDEST PUSH1 0x1 PUSH1 0x1 PUSH1 0xA0 SHL SUB AND CALLER PUSH1 0x1 PUSH1 0x1 PUSH1 0xA0 SHL SUB AND EQ JUMPDEST DUP1 PUSH2 0x11CF JUMPI POP PUSH1 0x2 PUSH1 0x0 SWAP1 SLOAD SWAP1 PUSH2 0x100 EXP SWAP1 DIV PUSH1 0x1 PUSH1 0x1 PUSH1 0xA0 SHL SUB AND PUSH1 0x1 PUSH1 0x1 PUSH1 0xA0 SHL SUB AND PUSH4 0x452A9320 PUSH1 0x40 MLOAD DUP2 PUSH4 0xFFFFFFFF AND PUSH1 0xE0 SHL DUP2 MSTORE PUSH1 0x4 ADD PUSH1 0x20 PUSH1 0x40 MLOAD DUP1 DUP4 SUB DUP2 DUP7 DUP1 EXTCODESIZE ISZERO DUP1 ISZERO PUSH2 0x1182 JUMPI PUSH1 0x0 DUP1 REVERT JUMPDEST POP GAS STATICCALL ISZERO DUP1 ISZERO PUSH2 0x1196 JUMPI RETURNDATASIZE PUSH1 0x0 DUP1 RETURNDATACOPY RETURNDATASIZE PUSH1 0x0 REVERT JUMPDEST POP POP POP POP PUSH1 0x40 MLOAD RETURNDATASIZE PUSH1 0x1F NOT PUSH1 0x1F DUP3 ADD AND DUP3 ADD DUP1 PUSH1 0x40 MSTORE POP DUP2 ADD SWAP1 PUSH2 0x11BA SWAP2 SWAP1 PUSH2 0x4172 JUMP JUMPDEST PUSH1 0x1 PUSH1 0x1 PUSH1 0xA0 SHL SUB AND CALLER PUSH1 0x1 PUSH1 0x1 PUSH1 0xA0 SHL SUB AND EQ JUMPDEST DUP1 PUSH2 0x1270 JUMPI POP PUSH1 0x2 PUSH1 0x0 SWAP1 SLOAD SWAP1 PUSH2 0x100 EXP SWAP1 DIV PUSH1 0x1 PUSH1 0x1 PUSH1 0xA0 SHL SUB AND PUSH1 0x1 PUSH1 0x1 PUSH1 0xA0 SHL SUB AND PUSH4 0x88A8D602 PUSH1 0x40 MLOAD DUP2 PUSH4 0xFFFFFFFF AND PUSH1 0xE0 SHL DUP2 MSTORE PUSH1 0x4 ADD PUSH1 0x20 PUSH1 0x40 MLOAD DUP1 DUP4 SUB DUP2 DUP7 DUP1 EXTCODESIZE ISZERO DUP1 ISZERO PUSH2 0x1223 JUMPI PUSH1 0x0 DUP1 REVERT JUMPDEST POP GAS STATICCALL ISZERO DUP1 ISZERO PUSH2 0x1237 JUMPI RETURNDATASIZE PUSH1 0x0 DUP1 RETURNDATACOPY RETURNDATASIZE PUSH1 0x0 REVERT JUMPDEST POP POP POP POP PUSH1 0x40 MLOAD RETURNDATASIZE PUSH1 0x1F NOT PUSH1 0x1F DUP3 ADD AND DUP3 ADD DUP1 PUSH1 0x40 MSTORE POP DUP2 ADD SWAP1 PUSH2 0x125B SWAP2 SWAP1 PUSH2 0x4172 JUMP JUMPDEST PUSH1 0x1 PUSH1 0x1 PUSH1 0xA0 SHL SUB AND CALLER PUSH1 0x1 PUSH1 0x1 PUSH1 0xA0 SHL SUB AND EQ JUMPDEST PUSH2 0x128C JUMPI PUSH1 0x40 MLOAD PUSH3 0x461BCD PUSH1 0xE5 SHL DUP2 MSTORE PUSH1 0x4 ADD PUSH2 0x684 SWAP1 PUSH2 0x469F JUMP JUMPDEST PUSH1 0x0 DUP1 PUSH1 0x0 PUSH1 0x2 PUSH1 0x0 SWAP1 SLOAD SWAP1 PUSH2 0x100 EXP SWAP1 DIV PUSH1 0x1 PUSH1 0x1 PUSH1 0xA0 SHL SUB AND PUSH1 0x1 PUSH1 0x1 PUSH1 0xA0 SHL SUB AND PUSH4 0xBF3759B5 PUSH1 0x40 MLOAD DUP2 PUSH4 0xFFFFFFFF AND PUSH1 0xE0 SHL DUP2 MSTORE PUSH1 0x4 ADD PUSH1 0x20 PUSH1 0x40 MLOAD DUP1 DUP4 SUB DUP2 DUP7 DUP1 EXTCODESIZE ISZERO DUP1 ISZERO PUSH2 0x12DF JUMPI PUSH1 0x0 DUP1 REVERT JUMPDEST POP GAS STATICCALL ISZERO DUP1 ISZERO PUSH2 0x12F3 JUMPI RETURNDATASIZE PUSH1 0x0 DUP1 RETURNDATACOPY RETURNDATASIZE PUSH1 0x0 REVERT JUMPDEST POP POP POP POP PUSH1 0x40 MLOAD RETURNDATASIZE PUSH1 0x1F NOT PUSH1 0x1F DUP3 ADD AND DUP3 ADD DUP1 PUSH1 0x40 MSTORE POP DUP2 ADD SWAP1 PUSH2 0x1317 SWAP2 SWAP1 PUSH2 0x42F4 JUMP JUMPDEST PUSH1 0xB SLOAD SWAP1 SWAP2 POP PUSH1 0x0 SWAP1 PUSH1 0xFF AND ISZERO PUSH2 0x1374 JUMPI PUSH1 0x0 PUSH2 0x1332 PUSH2 0x345F JUMP JUMPDEST SWAP1 POP DUP3 DUP2 LT ISZERO PUSH2 0x134D JUMPI PUSH2 0x1346 DUP4 DUP3 PUSH2 0x36F1 JUMP JUMPDEST SWAP4 POP PUSH2 0x1362 JUMP JUMPDEST DUP3 DUP2 GT ISZERO PUSH2 0x1362 JUMPI PUSH2 0x135F DUP2 DUP5 PUSH2 0x36F1 JUMP JUMPDEST SWAP5 POP JUMPDEST PUSH2 0x136C DUP4 DUP6 PUSH2 0x36F1 JUMP JUMPDEST SWAP2 POP POP PUSH2 0x1385 JUMP JUMPDEST PUSH2 0x137D DUP3 PUSH2 0x373C JUMP JUMPDEST SWAP2 SWAP6 POP SWAP4 POP SWAP1 POP JUMPDEST PUSH1 0x2 SLOAD PUSH1 0x40 MLOAD PUSH4 0x39EBF823 PUSH1 0xE0 SHL DUP2 MSTORE PUSH1 0x0 SWAP2 PUSH1 0x1 PUSH1 0x1 PUSH1 0xA0 SHL SUB AND SWAP1 PUSH4 0x39EBF823 SWAP1 PUSH2 0x13B6 SWAP1 ADDRESS SWAP1 PUSH1 0x4 ADD PUSH2 0x4378 JUMP JUMPDEST PUSH2 0x120 PUSH1 0x40 MLOAD DUP1 DUP4 SUB DUP2 DUP7 DUP1 EXTCODESIZE ISZERO DUP1 ISZERO PUSH2 0x13CF JUMPI PUSH1 0x0 DUP1 REVERT JUMPDEST POP GAS STATICCALL ISZERO DUP1 ISZERO PUSH2 0x13E3 JUMPI RETURNDATASIZE PUSH1 0x0 DUP1 RETURNDATACOPY RETURNDATASIZE PUSH1 0x0 REVERT JUMPDEST POP POP POP POP PUSH1 0x40 MLOAD RETURNDATASIZE PUSH1 0x1F NOT PUSH1 0x1F DUP3 ADD AND DUP3 ADD DUP1 PUSH1 0x40 MSTORE POP DUP2 ADD SWAP1 PUSH2 0x1407 SWAP2 SWAP1 PUSH2 0x425E JUMP JUMPDEST PUSH1 0xC0 ADD MLOAD PUSH1 0x2 SLOAD PUSH1 0x40 MLOAD PUSH4 0x28766EBF PUSH1 0xE2 SHL DUP2 MSTORE SWAP2 SWAP3 POP PUSH1 0x1 PUSH1 0x1 PUSH1 0xA0 SHL SUB AND SWAP1 PUSH4 0xA1D9BAFC SWAP1 PUSH2 0x1440 SWAP1 DUP9 SWAP1 DUP9 SWAP1 DUP8 SWAP1 PUSH1 0x4 ADD PUSH2 0x4796 JUMP JUMPDEST PUSH1 0x20 PUSH1 0x40 MLOAD DUP1 DUP4 SUB DUP2 PUSH1 0x0 DUP8 DUP1 EXTCODESIZE ISZERO DUP1 ISZERO PUSH2 0x145A JUMPI PUSH1 0x0 DUP1 REVERT JUMPDEST POP GAS CALL ISZERO DUP1 ISZERO PUSH2 0x146E JUMPI RETURNDATASIZE PUSH1 0x0 DUP1 RETURNDATACOPY RETURNDATASIZE PUSH1 0x0 REVERT JUMPDEST POP POP POP POP PUSH1 0x40 MLOAD RETURNDATASIZE PUSH1 0x1F NOT PUSH1 0x1F DUP3 ADD AND DUP3 ADD DUP1 PUSH1 0x40 MSTORE POP DUP2 ADD SWAP1 PUSH2 0x1492 SWAP2 SWAP1 PUSH2 0x42F4 JUMP JUMPDEST SWAP3 POP PUSH2 0x149D DUP4 PUSH2 0x2F2C JUMP JUMPDEST PUSH1 0x1 SLOAD PUSH1 0xFF AND DUP1 ISZERO PUSH2 0x14BE JUMPI POP PUSH1 0x1 SLOAD PUSH2 0x100 SWAP1 DIV PUSH1 0x1 PUSH1 0x1 PUSH1 0xA0 SHL SUB AND ISZERO ISZERO JUMPDEST ISZERO PUSH2 0x1570 JUMPI PUSH1 0x1 SLOAD PUSH1 0x40 MLOAD PUSH4 0xC70FA00B PUSH1 0xE0 SHL DUP2 MSTORE PUSH2 0x100 SWAP1 SWAP2 DIV PUSH1 0x1 PUSH1 0x1 PUSH1 0xA0 SHL SUB AND SWAP1 PUSH4 0xC70FA00B SWAP1 PUSH2 0x14FF SWAP1 DUP9 SWAP1 DUP9 SWAP1 DUP8 SWAP1 DUP10 SWAP1 DUP9 SWAP1 PUSH1 0x4 ADD PUSH2 0x47C7 JUMP JUMPDEST PUSH1 0x20 PUSH1 0x40 MLOAD DUP1 DUP4 SUB DUP2 DUP7 DUP1 EXTCODESIZE ISZERO DUP1 ISZERO PUSH2 0x1517 JUMPI PUSH1 0x0 DUP1 REVERT JUMPDEST POP GAS STATICCALL ISZERO DUP1 ISZERO PUSH2 0x152B JUMPI RETURNDATASIZE PUSH1 0x0 DUP1 RETURNDATACOPY RETURNDATASIZE PUSH1 0x0 REVERT JUMPDEST POP POP POP POP PUSH1 0x40 MLOAD RETURNDATASIZE PUSH1 0x1F NOT PUSH1 0x1F DUP3 ADD AND DUP3 ADD DUP1 PUSH1 0x40 MSTORE POP DUP2 ADD SWAP1 PUSH2 0x154F SWAP2 SWAP1 PUSH2 0x41D5 JUMP JUMPDEST PUSH2 0x156B JUMPI PUSH1 0x40 MLOAD PUSH3 0x461BCD PUSH1 0xE5 SHL DUP2 MSTORE PUSH1 0x4 ADD PUSH2 0x684 SWAP1 PUSH2 0x45C0 JUMP JUMPDEST PUSH2 0x157D JUMP JUMPDEST PUSH1 0x1 DUP1 SLOAD PUSH1 0xFF NOT AND DUP2 OR SWAP1 SSTORE JUMPDEST PUSH32 0x4C0F499FFE6BEFA0CA7C826B0916CF87BEA98DE658013E76938489368D60D509 DUP6 DUP6 DUP5 DUP7 PUSH1 0x40 MLOAD PUSH2 0x15B2 SWAP5 SWAP4 SWAP3 SWAP2 SWAP1 PUSH2 0x47AC JUMP JUMPDEST PUSH1 0x40 MLOAD DUP1 SWAP2 SUB SWAP1 LOG1 POP POP POP POP POP JUMP JUMPDEST PUSH1 0x3 SLOAD PUSH1 0x1 PUSH1 0x1 PUSH1 0xA0 SHL SUB AND CALLER EQ DUP1 PUSH2 0x15F2 JUMPI POP PUSH2 0x15DD PUSH2 0x290F JUMP JUMPDEST PUSH1 0x1 PUSH1 0x1 PUSH1 0xA0 SHL SUB AND CALLER PUSH1 0x1 PUSH1 0x1 PUSH1 0xA0 SHL SUB AND EQ JUMPDEST PUSH2 0x160E JUMPI PUSH1 0x40 MLOAD PUSH3 0x461BCD PUSH1 0xE5 SHL DUP2 MSTORE PUSH1 0x4 ADD PUSH2 0x684 SWAP1 PUSH2 0x469F JUMP JUMPDEST PUSH1 0xF SSTORE JUMP JUMPDEST PUSH1 0xB SLOAD PUSH1 0xFF AND DUP2 JUMP JUMPDEST PUSH1 0x0 DUP1 PUSH1 0x0 PUSH2 0x1632 PUSH8 0xDE0B6B3A7640000 PUSH2 0xAA2 JUMP JUMPDEST PUSH1 0x40 MLOAD PUSH4 0x43B0FF51 PUSH1 0xE0 SHL DUP2 MSTORE SWAP2 SWAP4 POP SWAP2 POP PUSH2 0x16C3 SWAP1 PUSH1 0x0 DUP1 MLOAD PUSH1 0x20 PUSH2 0x4861 DUP4 CODECOPY DUP2 MLOAD SWAP2 MSTORE SWAP1 PUSH4 0x43B0FF51 SWAP1 PUSH2 0x166C SWAP1 DUP6 SWAP1 PUSH1 0x4 ADD PUSH2 0x44DA JUMP JUMPDEST PUSH1 0x20 PUSH1 0x40 MLOAD DUP1 DUP4 SUB DUP2 DUP7 DUP1 EXTCODESIZE ISZERO DUP1 ISZERO PUSH2 0x1684 JUMPI PUSH1 0x0 DUP1 REVERT JUMPDEST POP GAS STATICCALL ISZERO DUP1 ISZERO PUSH2 0x1698 JUMPI RETURNDATASIZE PUSH1 0x0 DUP1 RETURNDATACOPY RETURNDATASIZE PUSH1 0x0 REVERT JUMPDEST POP POP POP POP PUSH1 0x40 MLOAD RETURNDATASIZE PUSH1 0x1F NOT PUSH1 0x1F DUP3 ADD AND DUP3 ADD DUP1 PUSH1 0x40 MSTORE POP DUP2 ADD SWAP1 PUSH2 0x16BC SWAP2 SWAP1 PUSH2 0x42F4 JUMP JUMPDEST DUP4 SWAP1 PUSH2 0x39D5 JUMP JUMPDEST SWAP2 POP PUSH1 0x0 PUSH2 0x16E3 DUP4 PUSH2 0x16DD DUP8 PUSH8 0xDE0B6B3A7640000 PUSH2 0x39FA JUMP JUMPDEST SWAP1 PUSH2 0x3A34 JUMP JUMPDEST SWAP6 SWAP5 POP POP POP POP POP JUMP JUMPDEST PUSH1 0xD SLOAD PUSH1 0x1 PUSH1 0x1 PUSH1 0xA0 SHL SUB AND DUP2 JUMP JUMPDEST PUSH1 0x0 DUP1 PUSH2 0x1707 DUP4 PUSH2 0x1BF8 JUMP JUMPDEST POP PUSH1 0x0 SWAP4 SWAP3 POP POP POP JUMP JUMPDEST PUSH1 0x1 SLOAD PUSH1 0xFF AND DUP2 JUMP JUMPDEST PUSH1 0xB SLOAD PUSH2 0x100 SWAP1 DIV PUSH1 0xFF AND DUP2 JUMP JUMPDEST PUSH1 0x3 SLOAD PUSH1 0x1 PUSH1 0x1 PUSH1 0xA0 SHL SUB AND CALLER EQ DUP1 PUSH2 0x1759 JUMPI POP PUSH2 0x1744 PUSH2 0x290F JUMP JUMPDEST PUSH1 0x1 PUSH1 0x1 PUSH1 0xA0 SHL SUB AND CALLER PUSH1 0x1 PUSH1 0x1 PUSH1 0xA0 SHL SUB AND EQ JUMPDEST DUP1 PUSH2 0x17FA JUMPI POP PUSH1 0x2 PUSH1 0x0 SWAP1 SLOAD SWAP1 PUSH2 0x100 EXP SWAP1 DIV PUSH1 0x1 PUSH1 0x1 PUSH1 0xA0 SHL SUB AND PUSH1 0x1 PUSH1 0x1 PUSH1 0xA0 SHL SUB AND PUSH4 0x452A9320 PUSH1 0x40 MLOAD DUP2 PUSH4 0xFFFFFFFF AND PUSH1 0xE0 SHL DUP2 MSTORE PUSH1 0x4 ADD PUSH1 0x20 PUSH1 0x40 MLOAD DUP1 DUP4 SUB DUP2 DUP7 DUP1 EXTCODESIZE ISZERO DUP1 ISZERO PUSH2 0x17AD JUMPI PUSH1 0x0 DUP1 REVERT JUMPDEST POP GAS STATICCALL ISZERO DUP1 ISZERO PUSH2 0x17C1 JUMPI RETURNDATASIZE PUSH1 0x0 DUP1 RETURNDATACOPY RETURNDATASIZE PUSH1 0x0 REVERT JUMPDEST POP POP POP POP PUSH1 0x40 MLOAD RETURNDATASIZE PUSH1 0x1F NOT PUSH1 0x1F DUP3 ADD AND DUP3 ADD DUP1 PUSH1 0x40 MSTORE POP DUP2 ADD SWAP1 PUSH2 0x17E5 SWAP2 SWAP1 PUSH2 0x4172 JUMP JUMPDEST PUSH1 0x1 PUSH1 0x1 PUSH1 0xA0 SHL SUB AND CALLER PUSH1 0x1 PUSH1 0x1 PUSH1 0xA0 SHL SUB AND EQ JUMPDEST DUP1 PUSH2 0x189B JUMPI POP PUSH1 0x2 PUSH1 0x0 SWAP1 SLOAD SWAP1 PUSH2 0x100 EXP SWAP1 DIV PUSH1 0x1 PUSH1 0x1 PUSH1 0xA0 SHL SUB AND PUSH1 0x1 PUSH1 0x1 PUSH1 0xA0 SHL SUB AND PUSH4 0x88A8D602 PUSH1 0x40 MLOAD DUP2 PUSH4 0xFFFFFFFF AND PUSH1 0xE0 SHL DUP2 MSTORE PUSH1 0x4 ADD PUSH1 0x20 PUSH1 0x40 MLOAD DUP1 DUP4 SUB DUP2 DUP7 DUP1 EXTCODESIZE ISZERO DUP1 ISZERO PUSH2 0x184E JUMPI PUSH1 0x0 DUP1 REVERT JUMPDEST POP GAS STATICCALL ISZERO DUP1 ISZERO PUSH2 0x1862 JUMPI RETURNDATASIZE PUSH1 0x0 DUP1 RETURNDATACOPY RETURNDATASIZE PUSH1 0x0 REVERT JUMPDEST POP POP POP POP PUSH1 0x40 MLOAD RETURNDATASIZE PUSH1 0x1F NOT PUSH1 0x1F DUP3 ADD AND DUP3 ADD DUP1 PUSH1 0x40 MSTORE POP DUP2 ADD SWAP1 PUSH2 0x1886 SWAP2 SWAP1 PUSH2 0x4172 JUMP JUMPDEST PUSH1 0x1 PUSH1 0x1 PUSH1 0xA0 SHL SUB AND CALLER PUSH1 0x1 PUSH1 0x1 PUSH1 0xA0 SHL SUB AND EQ JUMPDEST PUSH2 0x18B7 JUMPI PUSH1 0x40 MLOAD PUSH3 0x461BCD PUSH1 0xE5 SHL DUP2 MSTORE PUSH1 0x4 ADD PUSH2 0x684 SWAP1 PUSH2 0x469F JUMP JUMPDEST PUSH2 0x10E6 PUSH2 0x3A76 JUMP JUMPDEST PUSH1 0x3 SLOAD PUSH1 0x1 PUSH1 0x1 PUSH1 0xA0 SHL SUB AND CALLER EQ DUP1 PUSH2 0x18F0 JUMPI POP PUSH2 0x18DB PUSH2 0x290F JUMP JUMPDEST PUSH1 0x1 PUSH1 0x1 PUSH1 0xA0 SHL SUB AND CALLER PUSH1 0x1 PUSH1 0x1 PUSH1 0xA0 SHL SUB AND EQ JUMPDEST DUP1 PUSH2 0x1991 JUMPI POP PUSH1 0x2 PUSH1 0x0 SWAP1 SLOAD SWAP1 PUSH2 0x100 EXP SWAP1 DIV PUSH1 0x1 PUSH1 0x1 PUSH1 0xA0 SHL SUB AND PUSH1 0x1 PUSH1 0x1 PUSH1 0xA0 SHL SUB AND PUSH4 0x452A9320 PUSH1 0x40 MLOAD DUP2 PUSH4 0xFFFFFFFF AND PUSH1 0xE0 SHL DUP2 MSTORE PUSH1 0x4 ADD PUSH1 0x20 PUSH1 0x40 MLOAD DUP1 DUP4 SUB DUP2 DUP7 DUP1 EXTCODESIZE ISZERO DUP1 ISZERO PUSH2 0x1944 JUMPI PUSH1 0x0 DUP1 REVERT JUMPDEST POP GAS STATICCALL ISZERO DUP1 ISZERO PUSH2 0x1958 JUMPI RETURNDATASIZE PUSH1 0x0 DUP1 RETURNDATACOPY RETURNDATASIZE PUSH1 0x0 REVERT JUMPDEST POP POP POP POP PUSH1 0x40 MLOAD RETURNDATASIZE PUSH1 0x1F NOT PUSH1 0x1F DUP3 ADD AND DUP3 ADD DUP1 PUSH1 0x40 MSTORE POP DUP2 ADD SWAP1 PUSH2 0x197C SWAP2 SWAP1 PUSH2 0x4172 JUMP JUMPDEST PUSH1 0x1 PUSH1 0x1 PUSH1 0xA0 SHL SUB AND CALLER PUSH1 0x1 PUSH1 0x1 PUSH1 0xA0 SHL SUB AND EQ JUMPDEST DUP1 PUSH2 0x1A32 JUMPI POP PUSH1 0x2 PUSH1 0x0 SWAP1 SLOAD SWAP1 PUSH2 0x100 EXP SWAP1 DIV PUSH1 0x1 PUSH1 0x1 PUSH1 0xA0 SHL SUB AND PUSH1 0x1 PUSH1 0x1 PUSH1 0xA0 SHL SUB AND PUSH4 0x88A8D602 PUSH1 0x40 MLOAD DUP2 PUSH4 0xFFFFFFFF AND PUSH1 0xE0 SHL DUP2 MSTORE PUSH1 0x4 ADD PUSH1 0x20 PUSH1 0x40 MLOAD DUP1 DUP4 SUB DUP2 DUP7 DUP1 EXTCODESIZE ISZERO DUP1 ISZERO PUSH2 0x19E5 JUMPI PUSH1 0x0 DUP1 REVERT JUMPDEST POP GAS STATICCALL ISZERO DUP1 ISZERO PUSH2 0x19F9 JUMPI RETURNDATASIZE PUSH1 0x0 DUP1 RETURNDATACOPY RETURNDATASIZE PUSH1 0x0 REVERT JUMPDEST POP POP POP POP PUSH1 0x40 MLOAD RETURNDATASIZE PUSH1 0x1F NOT PUSH1 0x1F DUP3 ADD AND DUP3 ADD DUP1 PUSH1 0x40 MSTORE POP DUP2 ADD SWAP1 PUSH2 0x1A1D SWAP2 SWAP1 PUSH2 0x4172 JUMP JUMPDEST PUSH1 0x1 PUSH1 0x1 PUSH1 0xA0 SHL SUB AND CALLER PUSH1 0x1 PUSH1 0x1 PUSH1 0xA0 SHL SUB AND EQ JUMPDEST PUSH2 0x1A4E JUMPI PUSH1 0x40 MLOAD PUSH3 0x461BCD PUSH1 0xE5 SHL DUP2 MSTORE PUSH1 0x4 ADD PUSH2 0x684 SWAP1 PUSH2 0x469F JUMP JUMPDEST PUSH1 0xE SLOAD PUSH1 0x40 MLOAD PUSH4 0xF3FEF3A3 PUSH1 0xE0 SHL DUP2 MSTORE PUSH1 0x1 PUSH1 0x1 PUSH1 0xA0 SHL SUB SWAP1 SWAP2 AND SWAP1 PUSH4 0xF3FEF3A3 SWAP1 PUSH2 0x1A80 SWAP1 DUP6 SWAP1 DUP6 SWAP1 PUSH1 0x4 ADD PUSH2 0x4469 JUMP JUMPDEST PUSH1 0x0 PUSH1 0x40 MLOAD DUP1 DUP4 SUB DUP2 PUSH1 0x0 DUP8 DUP1 EXTCODESIZE ISZERO DUP1 ISZERO PUSH2 0x1A9A JUMPI PUSH1 0x0 DUP1 REVERT JUMPDEST POP GAS CALL ISZERO DUP1 ISZERO PUSH2 0x1AAE JUMPI RETURNDATASIZE PUSH1 0x0 DUP1 RETURNDATACOPY RETURNDATASIZE PUSH1 0x0 REVERT JUMPDEST POP POP POP POP POP POP JUMP JUMPDEST PUSH1 0x3 SLOAD PUSH1 0x1 PUSH1 0x1 PUSH1 0xA0 SHL SUB AND CALLER EQ DUP1 PUSH2 0x1AE7 JUMPI POP PUSH2 0x1AD2 PUSH2 0x290F JUMP JUMPDEST PUSH1 0x1 PUSH1 0x1 PUSH1 0xA0 SHL SUB AND CALLER PUSH1 0x1 PUSH1 0x1 PUSH1 0xA0 SHL SUB AND EQ JUMPDEST PUSH2 0x1B03 JUMPI PUSH1 0x40 MLOAD PUSH3 0x461BCD PUSH1 0xE5 SHL DUP2 MSTORE PUSH1 0x4 ADD PUSH2 0x684 SWAP1 PUSH2 0x469F JUMP JUMPDEST PUSH1 0x1 PUSH1 0x1 PUSH1 0xA0 SHL SUB DUP2 AND PUSH2 0x1B16 JUMPI PUSH1 0x0 DUP1 REVERT JUMPDEST PUSH1 0x5 DUP1 SLOAD PUSH1 0x1 PUSH1 0x1 PUSH1 0xA0 SHL SUB NOT AND PUSH1 0x1 PUSH1 0x1 PUSH1 0xA0 SHL SUB DUP4 AND OR SWAP1 SSTORE PUSH1 0x40 MLOAD PUSH32 0x2F202DDB4A2E345F6323ED90F8FC8559D770A7ABBBEEE84DDE8ACA3351FE7154 SWAP1 PUSH2 0xA97 SWAP1 DUP4 SWAP1 PUSH2 0x4378 JUMP JUMPDEST PUSH1 0x3 SLOAD PUSH1 0x1 PUSH1 0x1 PUSH1 0xA0 SHL SUB AND CALLER EQ DUP1 PUSH2 0x1B92 JUMPI POP PUSH2 0x1B7D PUSH2 0x290F JUMP JUMPDEST PUSH1 0x1 PUSH1 0x1 PUSH1 0xA0 SHL SUB AND CALLER PUSH1 0x1 PUSH1 0x1 PUSH1 0xA0 SHL SUB AND EQ JUMPDEST PUSH2 0x1BAE JUMPI PUSH1 0x40 MLOAD PUSH3 0x461BCD PUSH1 0xE5 SHL DUP2 MSTORE PUSH1 0x4 ADD PUSH2 0x684 SWAP1 PUSH2 0x469F JUMP JUMPDEST PUSH2 0x1BBA PUSH1 0x0 DUP4 DUP4 PUSH2 0x4077 JUMP JUMPDEST POP PUSH32 0x300E67D5A415B6D015A471D9C7B95DD58F3E8290AF965E84E0F845DE2996DDA6 DUP3 DUP3 PUSH1 0x40 MLOAD PUSH2 0x1BEC SWAP3 SWAP2 SWAP1 PUSH2 0x44E3 JUMP JUMPDEST PUSH1 0x40 MLOAD DUP1 SWAP2 SUB SWAP1 LOG1 POP POP JUMP JUMPDEST POP PUSH1 0x0 SWAP1 JUMP JUMPDEST PUSH1 0x9 SLOAD DUP2 JUMP JUMPDEST PUSH1 0x0 SWAP1 JUMP JUMPDEST PUSH1 0x3 SLOAD PUSH1 0x1 PUSH1 0x1 PUSH1 0xA0 SHL SUB AND CALLER EQ DUP1 PUSH2 0x1C3A JUMPI POP PUSH2 0x1C25 PUSH2 0x290F JUMP JUMPDEST PUSH1 0x1 PUSH1 0x1 PUSH1 0xA0 SHL SUB AND CALLER PUSH1 0x1 PUSH1 0x1 PUSH1 0xA0 SHL SUB AND EQ JUMPDEST PUSH2 0x1C56 JUMPI PUSH1 0x40 MLOAD PUSH3 0x461BCD PUSH1 0xE5 SHL DUP2 MSTORE PUSH1 0x4 ADD PUSH2 0x684 SWAP1 PUSH2 0x469F JUMP JUMPDEST PUSH1 0x9 DUP2 SWAP1 SSTORE PUSH1 0x40 MLOAD PUSH32 0xD94596337DF4C2F0F44D30A7FC5DB1C7BB60D9ACA4185ED77C6FD96EB45EC298 SWAP1 PUSH2 0xA97 SWAP1 DUP4 SWAP1 PUSH2 0x44DA JUMP JUMPDEST PUSH1 0x7 SLOAD DUP2 JUMP JUMPDEST PUSH1 0x4 SLOAD PUSH1 0x1 PUSH1 0x1 PUSH1 0xA0 SHL SUB AND DUP2 JUMP JUMPDEST PUSH1 0x2 PUSH1 0x0 SWAP1 SLOAD SWAP1 PUSH2 0x100 EXP SWAP1 DIV PUSH1 0x1 PUSH1 0x1 PUSH1 0xA0 SHL SUB AND PUSH1 0x1 PUSH1 0x1 PUSH1 0xA0 SHL SUB AND PUSH4 0x88A8D602 PUSH1 0x40 MLOAD DUP2 PUSH4 0xFFFFFFFF AND PUSH1 0xE0 SHL DUP2 MSTORE PUSH1 0x4 ADD PUSH1 0x20 PUSH1 0x40 MLOAD DUP1 DUP4 SUB DUP2 DUP7 DUP1 EXTCODESIZE ISZERO DUP1 ISZERO PUSH2 0x1CEE JUMPI PUSH1 0x0 DUP1 REVERT JUMPDEST POP GAS STATICCALL ISZERO DUP1 ISZERO PUSH2 0x1D02 JUMPI RETURNDATASIZE PUSH1 0x0 DUP1 RETURNDATACOPY RETURNDATASIZE PUSH1 0x0 REVERT JUMPDEST POP POP POP POP PUSH1 0x40 MLOAD RETURNDATASIZE PUSH1 0x1F NOT PUSH1 0x1F DUP3 ADD AND DUP3 ADD DUP1 PUSH1 0x40 MSTORE POP DUP2 ADD SWAP1 PUSH2 0x1D26 SWAP2 SWAP1 PUSH2 0x4172 JUMP JUMPDEST PUSH1 0x1 PUSH1 0x1 PUSH1 0xA0 SHL SUB AND CALLER PUSH1 0x1 PUSH1 0x1 PUSH1 0xA0 SHL SUB AND EQ DUP1 PUSH2 0x1D5D JUMPI POP PUSH2 0x1D48 PUSH2 0x290F JUMP JUMPDEST PUSH1 0x1 PUSH1 0x1 PUSH1 0xA0 SHL SUB AND CALLER PUSH1 0x1 PUSH1 0x1 PUSH1 0xA0 SHL SUB AND EQ JUMPDEST PUSH2 0x1D79 JUMPI PUSH1 0x40 MLOAD PUSH3 0x461BCD PUSH1 0xE5 SHL DUP2 MSTORE PUSH1 0x4 ADD PUSH2 0x684 SWAP1 PUSH2 0x469F JUMP JUMPDEST PUSH1 0x1 DUP1 SLOAD PUSH1 0xFF NOT AND SWAP2 ISZERO ISZERO SWAP2 SWAP1 SWAP2 OR SWAP1 SSTORE JUMP JUMPDEST PUSH1 0x5 SLOAD PUSH1 0x1 PUSH1 0x1 PUSH1 0xA0 SHL SUB AND DUP2 JUMP JUMPDEST PUSH1 0x1 SLOAD PUSH2 0x100 SWAP1 DIV PUSH1 0x1 PUSH1 0x1 PUSH1 0xA0 SHL SUB AND DUP2 JUMP JUMPDEST PUSH1 0x6 SLOAD PUSH1 0x40 MLOAD PUSH4 0x70A08231 PUSH1 0xE0 SHL DUP2 MSTORE PUSH1 0x0 SWAP2 PUSH1 0x1 PUSH1 0x1 PUSH1 0xA0 SHL SUB AND SWAP1 PUSH4 0x70A08231 SWAP1 PUSH2 0xD5E SWAP1 ADDRESS SWAP1 PUSH1 0x4 ADD PUSH2 0x4378 JUMP JUMPDEST PUSH1 0x3 SLOAD PUSH1 0x1 PUSH1 0x1 PUSH1 0xA0 SHL SUB AND CALLER EQ DUP1 PUSH2 0x1E11 JUMPI POP PUSH2 0x1DFC PUSH2 0x290F JUMP JUMPDEST PUSH1 0x1 PUSH1 0x1 PUSH1 0xA0 SHL SUB AND CALLER PUSH1 0x1 PUSH1 0x1 PUSH1 0xA0 SHL SUB AND EQ JUMPDEST PUSH2 0x1E2D JUMPI PUSH1 0x40 MLOAD PUSH3 0x461BCD PUSH1 0xE5 SHL DUP2 MSTORE PUSH1 0x4 ADD PUSH2 0x684 SWAP1 PUSH2 0x469F JUMP JUMPDEST PUSH1 0x1 PUSH1 0x1 PUSH1 0xA0 SHL SUB DUP2 AND PUSH2 0x1E40 JUMPI PUSH1 0x0 DUP1 REVERT JUMPDEST PUSH1 0x3 DUP1 SLOAD PUSH1 0x1 PUSH1 0x1 PUSH1 0xA0 SHL SUB NOT AND PUSH1 0x1 PUSH1 0x1 PUSH1 0xA0 SHL SUB DUP4 AND OR SWAP1 SSTORE PUSH1 0x40 MLOAD PUSH32 0x352ECECAE6D7D1E6D26BCF2C549DFD55BE1637E9B22DC0CF3B71DDB36097A6B4 SWAP1 PUSH2 0xA97 SWAP1 DUP4 SWAP1 PUSH2 0x4378 JUMP JUMPDEST PUSH1 0x2 SLOAD PUSH1 0x1 PUSH1 0x1 PUSH1 0xA0 SHL SUB AND CALLER EQ PUSH2 0x1EA2 JUMPI PUSH1 0x0 DUP1 REVERT JUMPDEST PUSH1 0x2 SLOAD PUSH1 0x40 DUP1 MLOAD PUSH4 0xFBFA77CF PUSH1 0xE0 SHL DUP2 MSTORE SWAP1 MLOAD PUSH1 0x1 PUSH1 0x1 PUSH1 0xA0 SHL SUB SWAP3 DUP4 AND SWAP3 DUP5 AND SWAP2 PUSH4 0xFBFA77CF SWAP2 PUSH1 0x4 DUP1 DUP4 ADD SWAP3 PUSH1 0x20 SWAP3 SWAP2 SWAP1 DUP3 SWAP1 SUB ADD DUP2 DUP7 DUP1 EXTCODESIZE ISZERO DUP1 ISZERO PUSH2 0x1EE9 JUMPI PUSH1 0x0 DUP1 REVERT JUMPDEST POP GAS STATICCALL ISZERO DUP1 ISZERO PUSH2 0x1EFD JUMPI RETURNDATASIZE PUSH1 0x0 DUP1 RETURNDATACOPY RETURNDATASIZE PUSH1 0x0 REVERT JUMPDEST POP POP POP POP PUSH1 0x40 MLOAD RETURNDATASIZE PUSH1 0x1F NOT PUSH1 0x1F DUP3 ADD AND DUP3 ADD DUP1 PUSH1 0x40 MSTORE POP DUP2 ADD SWAP1 PUSH2 0x1F21 SWAP2 SWAP1 PUSH2 0x4172 JUMP JUMPDEST PUSH1 0x1 PUSH1 0x1 PUSH1 0xA0 SHL SUB AND EQ PUSH2 0x1F34 JUMPI PUSH1 0x0 DUP1 REVERT JUMPDEST PUSH2 0x1F3D DUP2 PUSH2 0x3ADE JUMP JUMPDEST PUSH1 0x6 SLOAD PUSH1 0x40 MLOAD PUSH4 0x70A08231 PUSH1 0xE0 SHL DUP2 MSTORE PUSH2 0x1FD6 SWAP2 DUP4 SWAP2 PUSH1 0x1 PUSH1 0x1 PUSH1 0xA0 SHL SUB SWAP1 SWAP2 AND SWAP1 PUSH4 0x70A08231 SWAP1 PUSH2 0x1F73 SWAP1 ADDRESS SWAP1 PUSH1 0x4 ADD PUSH2 0x4378 JUMP JUMPDEST PUSH1 0x20 PUSH1 0x40 MLOAD DUP1 DUP4 SUB DUP2 DUP7 DUP1 EXTCODESIZE ISZERO DUP1 ISZERO PUSH2 0x1F8B JUMPI PUSH1 0x0 DUP1 REVERT JUMPDEST POP GAS STATICCALL ISZERO DUP1 ISZERO PUSH2 0x1F9F JUMPI RETURNDATASIZE PUSH1 0x0 DUP1 RETURNDATACOPY RETURNDATASIZE PUSH1 0x0 REVERT JUMPDEST POP POP POP POP PUSH1 0x40 MLOAD RETURNDATASIZE PUSH1 0x1F NOT PUSH1 0x1F DUP3 ADD AND DUP3 ADD DUP1 PUSH1 0x40 MSTORE POP DUP2 ADD SWAP1 PUSH2 0x1FC3 SWAP2 SWAP1 PUSH2 0x42F4 JUMP JUMPDEST PUSH1 0x6 SLOAD PUSH1 0x1 PUSH1 0x1 PUSH1 0xA0 SHL SUB AND SWAP2 SWAP1 PUSH2 0x2991 JUMP JUMPDEST POP JUMP JUMPDEST PUSH2 0x1FE1 PUSH2 0x290F JUMP JUMPDEST PUSH1 0x1 PUSH1 0x1 PUSH1 0xA0 SHL SUB AND CALLER PUSH1 0x1 PUSH1 0x1 PUSH1 0xA0 SHL SUB AND EQ PUSH2 0x2011 JUMPI PUSH1 0x40 MLOAD PUSH3 0x461BCD PUSH1 0xE5 SHL DUP2 MSTORE PUSH1 0x4 ADD PUSH2 0x684 SWAP1 PUSH2 0x469F JUMP JUMPDEST PUSH1 0xB SLOAD PUSH4 0x1000000 SWAP1 DIV PUSH1 0x1 PUSH1 0x1 PUSH1 0xA0 SHL SUB AND ISZERO PUSH2 0x2031 JUMPI PUSH2 0x2031 PUSH2 0x3A76 JUMP JUMPDEST PUSH1 0xB DUP1 SLOAD PUSH4 0x1000000 PUSH1 0x1 PUSH1 0xB8 SHL SUB NOT AND PUSH4 0x1000000 PUSH1 0x1 PUSH1 0x1 PUSH1 0xA0 SHL SUB DUP5 AND MUL OR SWAP1 SSTORE PUSH2 0x1FD6 PUSH2 0x3D16 JUMP JUMPDEST PUSH1 0x3 SLOAD PUSH1 0x1 PUSH1 0x1 PUSH1 0xA0 SHL SUB AND CALLER EQ DUP1 PUSH2 0x208E JUMPI POP PUSH2 0x2079 PUSH2 0x290F JUMP JUMPDEST PUSH1 0x1 PUSH1 0x1 PUSH1 0xA0 SHL SUB AND CALLER PUSH1 0x1 PUSH1 0x1 PUSH1 0xA0 SHL SUB AND EQ JUMPDEST PUSH2 0x20AA JUMPI PUSH1 0x40 MLOAD PUSH3 0x461BCD PUSH1 0xE5 SHL DUP2 MSTORE PUSH1 0x4 ADD PUSH2 0x684 SWAP1 PUSH2 0x469F JUMP JUMPDEST PUSH1 0xB DUP1 SLOAD SWAP2 ISZERO ISZERO PUSH3 0x10000 MUL PUSH3 0xFF0000 NOT SWAP1 SWAP3 AND SWAP2 SWAP1 SWAP2 OR SWAP1 SSTORE JUMP JUMPDEST PUSH1 0xB SLOAD PUSH4 0x1000000 SWAP1 DIV PUSH1 0x1 PUSH1 0x1 PUSH1 0xA0 SHL SUB AND DUP2 JUMP JUMPDEST PUSH1 0x3 SLOAD PUSH1 0x1 PUSH1 0x1 PUSH1 0xA0 SHL SUB AND CALLER EQ PUSH2 0x2106 JUMPI PUSH1 0x40 MLOAD PUSH3 0x461BCD PUSH1 0xE5 SHL DUP2 MSTORE PUSH1 0x4 ADD PUSH2 0x684 SWAP1 PUSH2 0x4545 JUMP JUMPDEST PUSH1 0x1 PUSH1 0x1 PUSH1 0xA0 SHL SUB DUP2 AND PUSH2 0x2119 JUMPI PUSH1 0x0 DUP1 REVERT JUMPDEST PUSH1 0x2 SLOAD PUSH1 0x4 DUP1 SLOAD PUSH1 0x40 MLOAD PUSH4 0x95EA7B3 PUSH1 0xE0 SHL DUP2 MSTORE PUSH1 0x1 PUSH1 0x1 PUSH1 0xA0 SHL SUB SWAP4 DUP5 AND SWAP4 PUSH4 0x95EA7B3 SWAP4 PUSH2 0x2150 SWAP4 SWAP1 SWAP2 AND SWAP2 PUSH1 0x0 SWAP2 ADD PUSH2 0x4469 JUMP JUMPDEST PUSH1 0x20 PUSH1 0x40 MLOAD DUP1 DUP4 SUB DUP2 PUSH1 0x0 DUP8 DUP1 EXTCODESIZE ISZERO DUP1 ISZERO PUSH2 0x216A JUMPI PUSH1 0x0 DUP1 REVERT JUMPDEST POP GAS CALL ISZERO DUP1 ISZERO PUSH2 0x217E JUMPI RETURNDATASIZE PUSH1 0x0 DUP1 RETURNDATACOPY RETURNDATASIZE PUSH1 0x0 REVERT JUMPDEST POP POP POP POP PUSH1 0x40 MLOAD RETURNDATASIZE PUSH1 0x1F NOT PUSH1 0x1F DUP3 ADD AND DUP3 ADD DUP1 PUSH1 0x40 MSTORE POP DUP2 ADD SWAP1 PUSH2 0x21A2 SWAP2 SWAP1 PUSH2 0x41D5 JUMP JUMPDEST POP PUSH1 0x4 DUP1 SLOAD PUSH1 0x1 PUSH1 0x1 PUSH1 0xA0 SHL SUB NOT AND PUSH1 0x1 PUSH1 0x1 PUSH1 0xA0 SHL SUB DUP4 DUP2 AND SWAP2 SWAP1 SWAP2 OR DUP1 DUP4 SSTORE PUSH1 0x2 SLOAD PUSH1 0x40 MLOAD PUSH4 0x95EA7B3 PUSH1 0xE0 SHL DUP2 MSTORE SWAP1 DUP4 AND SWAP4 PUSH4 0x95EA7B3 SWAP4 PUSH2 0x21ED SWAP4 AND SWAP2 PUSH1 0x0 NOT SWAP2 ADD PUSH2 0x4469 JUMP JUMPDEST PUSH1 0x20 PUSH1 0x40 MLOAD DUP1 DUP4 SUB DUP2 PUSH1 0x0 DUP8 DUP1 EXTCODESIZE ISZERO DUP1 ISZERO PUSH2 0x2207 JUMPI PUSH1 0x0 DUP1 REVERT JUMPDEST POP GAS CALL ISZERO DUP1 ISZERO PUSH2 0x221B JUMPI RETURNDATASIZE PUSH1 0x0 DUP1 RETURNDATACOPY RETURNDATASIZE PUSH1 0x0 REVERT JUMPDEST POP POP POP POP PUSH1 0x40 MLOAD RETURNDATASIZE PUSH1 0x1F NOT PUSH1 0x1F DUP3 ADD AND DUP3 ADD DUP1 PUSH1 0x40 MSTORE POP DUP2 ADD SWAP1 PUSH2 0x223F SWAP2 SWAP1 PUSH2 0x41D5 JUMP JUMPDEST POP PUSH32 0xAFBB66ABF8F3B719799940473A4052A3717CDD8E40FB6C8A3FAADAB316B1A069 DUP2 PUSH1 0x40 MLOAD PUSH2 0xA97 SWAP2 SWAP1 PUSH2 0x4378 JUMP JUMPDEST PUSH1 0x0 PUSH2 0x2279 PUSH2 0x40F5 JUMP JUMPDEST PUSH1 0x2 SLOAD PUSH1 0x40 MLOAD PUSH4 0x39EBF823 PUSH1 0xE0 SHL DUP2 MSTORE PUSH1 0x1 PUSH1 0x1 PUSH1 0xA0 SHL SUB SWAP1 SWAP2 AND SWAP1 PUSH4 0x39EBF823 SWAP1 PUSH2 0x22A9 SWAP1 ADDRESS SWAP1 PUSH1 0x4 ADD PUSH2 0x4378 JUMP JUMPDEST PUSH2 0x120 PUSH1 0x40 MLOAD DUP1 DUP4 SUB DUP2 DUP7 DUP1 EXTCODESIZE ISZERO DUP1 ISZERO PUSH2 0x22C2 JUMPI PUSH1 0x0 DUP1 REVERT JUMPDEST POP GAS STATICCALL ISZERO DUP1 ISZERO PUSH2 0x22D6 JUMPI RETURNDATASIZE PUSH1 0x0 DUP1 RETURNDATACOPY RETURNDATASIZE PUSH1 0x0 REVERT JUMPDEST POP POP POP POP PUSH1 0x40 MLOAD RETURNDATASIZE PUSH1 0x1F NOT PUSH1 0x1F DUP3 ADD AND DUP3 ADD DUP1 PUSH1 0x40 MSTORE POP DUP2 ADD SWAP1 PUSH2 0x22FA SWAP2 SWAP1 PUSH2 0x425E JUMP JUMPDEST SWAP1 POP PUSH1 0x8 SLOAD PUSH2 0x2316 DUP3 PUSH1 0xA0 ADD MLOAD TIMESTAMP PUSH2 0x36F1 SWAP1 SWAP2 SWAP1 PUSH4 0xFFFFFFFF AND JUMP JUMPDEST GT ISZERO PUSH2 0x2326 JUMPI PUSH1 0x1 SWAP2 POP POP PUSH2 0x900 JUMP JUMPDEST PUSH1 0xE SLOAD PUSH1 0x1 PUSH1 0xA0 SHL SWAP1 DIV PUSH1 0xFF AND ISZERO PUSH2 0x2342 JUMPI PUSH1 0x1 SWAP2 POP POP PUSH2 0x900 JUMP JUMPDEST PUSH1 0xF SLOAD PUSH1 0x2 PUSH1 0x0 SWAP1 SLOAD SWAP1 PUSH2 0x100 EXP SWAP1 DIV PUSH1 0x1 PUSH1 0x1 PUSH1 0xA0 SHL SUB AND PUSH1 0x1 PUSH1 0x1 PUSH1 0xA0 SHL SUB AND PUSH4 0x112C1F9B PUSH1 0x40 MLOAD DUP2 PUSH4 0xFFFFFFFF AND PUSH1 0xE0 SHL DUP2 MSTORE PUSH1 0x4 ADD PUSH1 0x20 PUSH1 0x40 MLOAD DUP1 DUP4 SUB DUP2 DUP7 DUP1 EXTCODESIZE ISZERO DUP1 ISZERO PUSH2 0x2393 JUMPI PUSH1 0x0 DUP1 REVERT JUMPDEST POP GAS STATICCALL ISZERO DUP1 ISZERO PUSH2 0x23A7 JUMPI RETURNDATASIZE PUSH1 0x0 DUP1 RETURNDATACOPY RETURNDATASIZE PUSH1 0x0 REVERT JUMPDEST POP POP POP POP PUSH1 0x40 MLOAD RETURNDATASIZE PUSH1 0x1F NOT PUSH1 0x1F DUP3 ADD AND DUP3 ADD DUP1 PUSH1 0x40 MSTORE POP DUP2 ADD SWAP1 PUSH2 0x23CB SWAP2 SWAP1 PUSH2 0x42F4 JUMP JUMPDEST LT PUSH2 0x23DA JUMPI PUSH1 0x1 SWAP2 POP POP PUSH2 0x900 JUMP JUMPDEST POP PUSH1 0x0 SWAP3 SWAP2 POP POP JUMP JUMPDEST PUSH1 0xD SLOAD PUSH1 0x40 MLOAD PUSH4 0x70A08231 PUSH1 0xE0 SHL DUP2 MSTORE PUSH1 0x0 SWAP2 DUP3 SWAP2 PUSH2 0x2478 SWAP2 PUSH1 0x1 PUSH1 0x1 PUSH1 0xA0 SHL SUB AND SWAP1 PUSH4 0x70A08231 SWAP1 PUSH2 0x241A SWAP1 ADDRESS SWAP1 PUSH1 0x4 ADD PUSH2 0x4378 JUMP JUMPDEST PUSH1 0x20 PUSH1 0x40 MLOAD DUP1 DUP4 SUB DUP2 DUP7 DUP1 EXTCODESIZE ISZERO DUP1 ISZERO PUSH2 0x2432 JUMPI PUSH1 0x0 DUP1 REVERT JUMPDEST POP GAS STATICCALL ISZERO DUP1 ISZERO PUSH2 0x2446 JUMPI RETURNDATASIZE PUSH1 0x0 DUP1 RETURNDATACOPY RETURNDATASIZE PUSH1 0x0 REVERT JUMPDEST POP POP POP POP PUSH1 0x40 MLOAD RETURNDATASIZE PUSH1 0x1F NOT PUSH1 0x1F DUP3 ADD AND DUP3 ADD DUP1 PUSH1 0x40 MSTORE POP DUP2 ADD SWAP1 PUSH2 0x246A SWAP2 SWAP1 PUSH2 0x42F4 JUMP JUMPDEST PUSH2 0x2472 PUSH2 0xD26 JUMP JUMPDEST SWAP1 PUSH2 0x39D5 JUMP JUMPDEST SWAP1 POP PUSH1 0x0 DUP1 PUSH2 0x2486 DUP4 PUSH2 0xAA2 JUMP JUMPDEST SWAP2 POP SWAP2 POP PUSH1 0x0 PUSH2 0x2523 PUSH2 0x388 PUSH1 0x0 DUP1 MLOAD PUSH1 0x20 PUSH2 0x4861 DUP4 CODECOPY DUP2 MLOAD SWAP2 MSTORE PUSH1 0x1 PUSH1 0x1 PUSH1 0xA0 SHL SUB AND PUSH4 0x70A08231 ADDRESS PUSH1 0x40 MLOAD DUP3 PUSH4 0xFFFFFFFF AND PUSH1 0xE0 SHL DUP2 MSTORE PUSH1 0x4 ADD PUSH2 0x24CC SWAP2 SWAP1 PUSH2 0x4378 JUMP JUMPDEST PUSH1 0x20 PUSH1 0x40 MLOAD DUP1 DUP4 SUB DUP2 DUP7 DUP1 EXTCODESIZE ISZERO DUP1 ISZERO PUSH2 0x24E4 JUMPI PUSH1 0x0 DUP1 REVERT JUMPDEST POP GAS STATICCALL ISZERO DUP1 ISZERO PUSH2 0x24F8 JUMPI RETURNDATASIZE PUSH1 0x0 DUP1 RETURNDATACOPY RETURNDATASIZE PUSH1 0x0 REVERT JUMPDEST POP POP POP POP PUSH1 0x40 MLOAD RETURNDATASIZE PUSH1 0x1F NOT PUSH1 0x1F DUP3 ADD AND DUP3 ADD DUP1 PUSH1 0x40 MSTORE POP DUP2 ADD SWAP1 PUSH2 0x251C SWAP2 SWAP1 PUSH2 0x42F4 JUMP JUMPDEST DUP5 SWAP1 PUSH2 0x39D5 JUMP JUMPDEST SWAP1 POP PUSH2 0x2534 DUP4 PUSH2 0x2472 PUSH2 0x251C PUSH2 0x1DAF JUMP JUMPDEST SWAP5 POP POP POP POP POP SWAP1 JUMP JUMPDEST PUSH1 0x3 SLOAD PUSH1 0x1 PUSH1 0x1 PUSH1 0xA0 SHL SUB AND CALLER EQ DUP1 PUSH2 0x256E JUMPI POP PUSH2 0x2559 PUSH2 0x290F JUMP JUMPDEST PUSH1 0x1 PUSH1 0x1 PUSH1 0xA0 SHL SUB AND CALLER PUSH1 0x1 PUSH1 0x1 PUSH1 0xA0 SHL SUB AND EQ JUMPDEST PUSH2 0x258A JUMPI PUSH1 0x40 MLOAD PUSH3 0x461BCD PUSH1 0xE5 SHL DUP2 MSTORE PUSH1 0x4 ADD PUSH2 0x684 SWAP1 PUSH2 0x469F JUMP JUMPDEST PUSH1 0x8 DUP2 SWAP1 SSTORE PUSH1 0x40 MLOAD PUSH32 0x5430E11864AD7AA9775B07D12657FE52DF9AA2BA734355BD8EF8747BE2C800C5 SWAP1 PUSH2 0xA97 SWAP1 DUP4 SWAP1 PUSH2 0x44DA JUMP JUMPDEST PUSH1 0xF SLOAD DUP2 JUMP JUMPDEST PUSH1 0x2 SLOAD PUSH1 0x1 PUSH1 0x1 PUSH1 0xA0 SHL SUB AND DUP2 JUMP JUMPDEST PUSH1 0x3 SLOAD PUSH1 0x1 PUSH1 0x1 PUSH1 0xA0 SHL SUB AND CALLER EQ DUP1 PUSH2 0x2605 JUMPI POP PUSH2 0x25F0 PUSH2 0x290F JUMP JUMPDEST PUSH1 0x1 PUSH1 0x1 PUSH1 0xA0 SHL SUB AND CALLER PUSH1 0x1 PUSH1 0x1 PUSH1 0xA0 SHL SUB AND EQ JUMPDEST DUP1 PUSH2 0x26A6 JUMPI POP PUSH1 0x2 PUSH1 0x0 SWAP1 SLOAD SWAP1 PUSH2 0x100 EXP SWAP1 DIV PUSH1 0x1 PUSH1 0x1 PUSH1 0xA0 SHL SUB AND PUSH1 0x1 PUSH1 0x1 PUSH1 0xA0 SHL SUB AND PUSH4 0x452A9320 PUSH1 0x40 MLOAD DUP2 PUSH4 0xFFFFFFFF AND PUSH1 0xE0 SHL DUP2 MSTORE PUSH1 0x4 ADD PUSH1 0x20 PUSH1 0x40 MLOAD DUP1 DUP4 SUB DUP2 DUP7 DUP1 EXTCODESIZE ISZERO DUP1 ISZERO PUSH2 0x2659 JUMPI PUSH1 0x0 DUP1 REVERT JUMPDEST POP GAS STATICCALL ISZERO DUP1 ISZERO PUSH2 0x266D JUMPI RETURNDATASIZE PUSH1 0x0 DUP1 RETURNDATACOPY RETURNDATASIZE PUSH1 0x0 REVERT JUMPDEST POP POP POP POP PUSH1 0x40 MLOAD RETURNDATASIZE PUSH1 0x1F NOT PUSH1 0x1F DUP3 ADD AND DUP3 ADD DUP1 PUSH1 0x40 MSTORE POP DUP2 ADD SWAP1 PUSH2 0x2691 SWAP2 SWAP1 PUSH2 0x4172 JUMP JUMPDEST PUSH1 0x1 PUSH1 0x1 PUSH1 0xA0 SHL SUB AND CALLER PUSH1 0x1 PUSH1 0x1 PUSH1 0xA0 SHL SUB AND EQ JUMPDEST DUP1 PUSH2 0x2747 JUMPI POP PUSH1 0x2 PUSH1 0x0 SWAP1 SLOAD SWAP1 PUSH2 0x100 EXP SWAP1 DIV PUSH1 0x1 PUSH1 0x1 PUSH1 0xA0 SHL SUB AND PUSH1 0x1 PUSH1 0x1 PUSH1 0xA0 SHL SUB AND PUSH4 0x88A8D602 PUSH1 0x40 MLOAD DUP2 PUSH4 0xFFFFFFFF AND PUSH1 0xE0 SHL DUP2 MSTORE PUSH1 0x4 ADD PUSH1 0x20 PUSH1 0x40 MLOAD DUP1 DUP4 SUB DUP2 DUP7 DUP1 EXTCODESIZE ISZERO DUP1 ISZERO PUSH2 0x26FA JUMPI PUSH1 0x0 DUP1 REVERT JUMPDEST POP GAS STATICCALL ISZERO DUP1 ISZERO PUSH2 0x270E JUMPI RETURNDATASIZE PUSH1 0x0 DUP1 RETURNDATACOPY RETURNDATASIZE PUSH1 0x0 REVERT JUMPDEST POP POP POP POP PUSH1 0x40 MLOAD RETURNDATASIZE PUSH1 0x1F NOT PUSH1 0x1F DUP3 ADD AND DUP3 ADD DUP1 PUSH1 0x40 MSTORE POP DUP2 ADD SWAP1 PUSH2 0x2732 SWAP2 SWAP1 PUSH2 0x4172 JUMP JUMPDEST PUSH1 0x1 PUSH1 0x1 PUSH1 0xA0 SHL SUB AND CALLER PUSH1 0x1 PUSH1 0x1 PUSH1 0xA0 SHL SUB AND EQ JUMPDEST PUSH2 0x2763 JUMPI PUSH1 0x40 MLOAD PUSH3 0x461BCD PUSH1 0xE5 SHL DUP2 MSTORE PUSH1 0x4 ADD PUSH2 0x684 SWAP1 PUSH2 0x469F JUMP JUMPDEST PUSH1 0xB DUP1 SLOAD PUSH1 0xFF NOT AND PUSH1 0x1 OR SWAP1 SSTORE PUSH1 0x2 SLOAD PUSH1 0x40 DUP1 MLOAD PUSH4 0x507257CD PUSH1 0xE1 SHL DUP2 MSTORE SWAP1 MLOAD PUSH1 0x1 PUSH1 0x1 PUSH1 0xA0 SHL SUB SWAP1 SWAP3 AND SWAP2 PUSH4 0xA0E4AF9A SWAP2 PUSH1 0x4 DUP1 DUP3 ADD SWAP3 PUSH1 0x0 SWAP3 SWAP1 SWAP2 SWAP1 DUP3 SWAP1 SUB ADD DUP2 DUP4 DUP8 DUP1 EXTCODESIZE ISZERO DUP1 ISZERO PUSH2 0x27B6 JUMPI PUSH1 0x0 DUP1 REVERT JUMPDEST POP GAS CALL ISZERO DUP1 ISZERO PUSH2 0x27CA JUMPI RETURNDATASIZE PUSH1 0x0 DUP1 RETURNDATACOPY RETURNDATASIZE PUSH1 0x0 REVERT JUMPDEST POP POP PUSH1 0x40 MLOAD PUSH32 0x97E963041E952738788B9D4871D854D282065B8F90A464928D6528F2E9A4FD0B SWAP3 POP PUSH1 0x0 SWAP2 POP LOG1 JUMP JUMPDEST DUP1 ISZERO DUP1 PUSH2 0x2881 JUMPI POP PUSH1 0x40 MLOAD PUSH4 0x6EB1769F PUSH1 0xE1 SHL DUP2 MSTORE PUSH1 0x1 PUSH1 0x1 PUSH1 0xA0 SHL SUB DUP5 AND SWAP1 PUSH4 0xDD62ED3E SWAP1 PUSH2 0x282F SWAP1 ADDRESS SWAP1 DUP7 SWAP1 PUSH1 0x4 ADD PUSH2 0x438C JUMP JUMPDEST PUSH1 0x20 PUSH1 0x40 MLOAD DUP1 DUP4 SUB DUP2 DUP7 DUP1 EXTCODESIZE ISZERO DUP1 ISZERO PUSH2 0x2847 JUMPI PUSH1 0x0 DUP1 REVERT JUMPDEST POP GAS STATICCALL ISZERO DUP1 ISZERO PUSH2 0x285B JUMPI RETURNDATASIZE PUSH1 0x0 DUP1 RETURNDATACOPY RETURNDATASIZE PUSH1 0x0 REVERT JUMPDEST POP POP POP POP PUSH1 0x40 MLOAD RETURNDATASIZE PUSH1 0x1F NOT PUSH1 0x1F DUP3 ADD AND DUP3 ADD DUP1 PUSH1 0x40 MSTORE POP DUP2 ADD SWAP1 PUSH2 0x287F SWAP2 SWAP1 PUSH2 0x42F4 JUMP JUMPDEST ISZERO JUMPDEST PUSH2 0x289D JUMPI PUSH1 0x40 MLOAD PUSH3 0x461BCD PUSH1 0xE5 SHL DUP2 MSTORE PUSH1 0x4 ADD PUSH2 0x684 SWAP1 PUSH2 0x4732 JUMP JUMPDEST PUSH2 0x28F3 DUP4 PUSH4 0x95EA7B3 PUSH1 0xE0 SHL DUP5 DUP5 PUSH1 0x40 MLOAD PUSH1 0x24 ADD PUSH2 0x28BC SWAP3 SWAP2 SWAP1 PUSH2 0x4469 JUMP JUMPDEST PUSH1 0x40 DUP1 MLOAD PUSH1 0x1F NOT DUP2 DUP5 SUB ADD DUP2 MSTORE SWAP2 SWAP1 MSTORE PUSH1 0x20 DUP2 ADD DUP1 MLOAD PUSH1 0x1 PUSH1 0x1 PUSH1 0xE0 SHL SUB AND PUSH1 0x1 PUSH1 0x1 PUSH1 0xE0 SHL SUB NOT SWAP1 SWAP4 AND SWAP3 SWAP1 SWAP3 OR SWAP1 SWAP2 MSTORE PUSH2 0x3E72 JUMP JUMPDEST POP POP POP JUMP JUMPDEST PUSH1 0x60 PUSH2 0x2907 DUP5 DUP5 PUSH1 0x0 DUP6 PUSH2 0x3F01 JUMP JUMPDEST SWAP5 SWAP4 POP POP POP POP JUMP JUMPDEST PUSH1 0x2 SLOAD PUSH1 0x40 DUP1 MLOAD PUSH4 0x5AA6E675 PUSH1 0xE0 SHL DUP2 MSTORE SWAP1 MLOAD PUSH1 0x0 SWAP3 PUSH1 0x1 PUSH1 0x1 PUSH1 0xA0 SHL SUB AND SWAP2 PUSH4 0x5AA6E675 SWAP2 PUSH1 0x4 DUP1 DUP4 ADD SWAP3 PUSH1 0x20 SWAP3 SWAP2 SWAP1 DUP3 SWAP1 SUB ADD DUP2 DUP7 DUP1 EXTCODESIZE ISZERO DUP1 ISZERO PUSH2 0x2954 JUMPI PUSH1 0x0 DUP1 REVERT JUMPDEST POP GAS STATICCALL ISZERO DUP1 ISZERO PUSH2 0x2968 JUMPI RETURNDATASIZE PUSH1 0x0 DUP1 RETURNDATACOPY RETURNDATASIZE PUSH1 0x0 REVERT JUMPDEST POP POP POP POP PUSH1 0x40 MLOAD RETURNDATASIZE PUSH1 0x1F NOT PUSH1 0x1F DUP3 ADD AND DUP3 ADD DUP1 PUSH1 0x40 MSTORE POP DUP2 ADD SWAP1 PUSH2 0xD21 SWAP2 SWAP1 PUSH2 0x4172 JUMP JUMPDEST PUSH1 0x60 SWAP1 JUMP JUMPDEST PUSH2 0x28F3 DUP4 PUSH4 0xA9059CBB PUSH1 0xE0 SHL DUP5 DUP5 PUSH1 0x40 MLOAD PUSH1 0x24 ADD PUSH2 0x28BC SWAP3 SWAP2 SWAP1 PUSH2 0x4469 JUMP JUMPDEST PUSH1 0x40 MLOAD PUSH4 0x70A08231 PUSH1 0xE0 SHL DUP2 MSTORE PUSH1 0x0 SWAP1 DUP2 SWAP1 PUSH1 0x0 DUP1 MLOAD PUSH1 0x20 PUSH2 0x4861 DUP4 CODECOPY DUP2 MLOAD SWAP2 MSTORE SWAP1 PUSH4 0x67DFD4C9 SWAP1 DUP3 SWAP1 PUSH4 0x70A08231 SWAP1 PUSH2 0x29EE SWAP1 ADDRESS SWAP1 PUSH1 0x4 ADD PUSH2 0x4378 JUMP JUMPDEST PUSH1 0x20 PUSH1 0x40 MLOAD DUP1 DUP4 SUB DUP2 DUP7 DUP1 EXTCODESIZE ISZERO DUP1 ISZERO PUSH2 0x2A06 JUMPI PUSH1 0x0 DUP1 REVERT JUMPDEST POP GAS STATICCALL ISZERO DUP1 ISZERO PUSH2 0x2A1A JUMPI RETURNDATASIZE PUSH1 0x0 DUP1 RETURNDATACOPY RETURNDATASIZE PUSH1 0x0 REVERT JUMPDEST POP POP POP POP PUSH1 0x40 MLOAD RETURNDATASIZE PUSH1 0x1F NOT PUSH1 0x1F DUP3 ADD AND DUP3 ADD DUP1 PUSH1 0x40 MSTORE POP DUP2 ADD SWAP1 PUSH2 0x2A3E SWAP2 SWAP1 PUSH2 0x42F4 JUMP JUMPDEST PUSH1 0x40 MLOAD DUP3 PUSH4 0xFFFFFFFF AND PUSH1 0xE0 SHL DUP2 MSTORE PUSH1 0x4 ADD PUSH2 0x2A5A SWAP2 SWAP1 PUSH2 0x44DA JUMP JUMPDEST PUSH1 0x0 PUSH1 0x40 MLOAD DUP1 DUP4 SUB DUP2 PUSH1 0x0 DUP8 DUP1 EXTCODESIZE ISZERO DUP1 ISZERO PUSH2 0x2A74 JUMPI PUSH1 0x0 DUP1 REVERT JUMPDEST POP GAS CALL ISZERO DUP1 ISZERO PUSH2 0x2A88 JUMPI RETURNDATASIZE PUSH1 0x0 DUP1 RETURNDATACOPY RETURNDATASIZE PUSH1 0x0 REVERT JUMPDEST POP POP PUSH1 0x6 SLOAD PUSH1 0x40 MLOAD PUSH4 0x70A08231 PUSH1 0xE0 SHL DUP2 MSTORE PUSH1 0x0 SWAP4 POP PUSH1 0x1 PUSH1 0x1 PUSH1 0xA0 SHL SUB SWAP1 SWAP2 AND SWAP2 POP PUSH4 0x70A08231 SWAP1 PUSH2 0x2ABF SWAP1 ADDRESS SWAP1 PUSH1 0x4 ADD PUSH2 0x4378 JUMP JUMPDEST PUSH1 0x20 PUSH1 0x40 MLOAD DUP1 DUP4 SUB DUP2 DUP7 DUP1 EXTCODESIZE ISZERO DUP1 ISZERO PUSH2 0x2AD7 JUMPI PUSH1 0x0 DUP1 REVERT JUMPDEST POP GAS STATICCALL ISZERO DUP1 ISZERO PUSH2 0x2AEB JUMPI RETURNDATASIZE PUSH1 0x0 DUP1 RETURNDATACOPY RETURNDATASIZE PUSH1 0x0 REVERT JUMPDEST POP POP POP POP PUSH1 0x40 MLOAD RETURNDATASIZE PUSH1 0x1F NOT PUSH1 0x1F DUP3 ADD AND DUP3 ADD DUP1 PUSH1 0x40 MSTORE POP DUP2 ADD SWAP1 PUSH2 0x2B0F SWAP2 SWAP1 PUSH2 0x42F4 JUMP JUMPDEST SWAP1 POP DUP4 DUP2 LT ISZERO PUSH2 0x2F22 JUMPI PUSH1 0x0 PUSH2 0x2B25 DUP6 DUP4 PUSH2 0x36F1 JUMP JUMPDEST SWAP1 POP PUSH1 0x0 PUSH2 0x2B32 DUP3 PUSH2 0x161C JUMP JUMPDEST PUSH1 0xD SLOAD PUSH1 0x40 MLOAD PUSH4 0x70A08231 PUSH1 0xE0 SHL DUP2 MSTORE SWAP2 SWAP3 POP PUSH1 0x0 SWAP2 PUSH1 0x1 PUSH1 0x1 PUSH1 0xA0 SHL SUB SWAP1 SWAP2 AND SWAP1 PUSH4 0x70A08231 SWAP1 PUSH2 0x2B68 SWAP1 ADDRESS SWAP1 PUSH1 0x4 ADD PUSH2 0x4378 JUMP JUMPDEST PUSH1 0x20 PUSH1 0x40 MLOAD DUP1 DUP4 SUB DUP2 DUP7 DUP1 EXTCODESIZE ISZERO DUP1 ISZERO PUSH2 0x2B80 JUMPI PUSH1 0x0 DUP1 REVERT JUMPDEST POP GAS STATICCALL ISZERO DUP1 ISZERO PUSH2 0x2B94 JUMPI RETURNDATASIZE PUSH1 0x0 DUP1 RETURNDATACOPY RETURNDATASIZE PUSH1 0x0 REVERT JUMPDEST POP POP POP POP PUSH1 0x40 MLOAD RETURNDATASIZE PUSH1 0x1F NOT PUSH1 0x1F DUP3 ADD AND DUP3 ADD DUP1 PUSH1 0x40 MSTORE POP DUP2 ADD SWAP1 PUSH2 0x2BB8 SWAP2 SWAP1 PUSH2 0x42F4 JUMP JUMPDEST SWAP1 POP DUP2 DUP2 LT ISZERO PUSH2 0x2CD4 JUMPI PUSH1 0x0 PUSH2 0x2BCE DUP4 DUP4 PUSH2 0x36F1 JUMP JUMPDEST SWAP1 POP PUSH1 0x0 PUSH2 0x2BDA PUSH2 0xD26 JUMP JUMPDEST PUSH1 0xE SLOAD PUSH1 0xD SLOAD SWAP2 SWAP3 POP PUSH1 0x1 PUSH1 0x1 PUSH1 0xA0 SHL SUB SWAP1 DUP2 AND SWAP2 PUSH4 0xF3FEF3A3 SWAP2 AND PUSH2 0x2C00 DUP6 DUP6 PUSH2 0x3FC5 JUMP JUMPDEST PUSH1 0x40 MLOAD DUP4 PUSH4 0xFFFFFFFF AND PUSH1 0xE0 SHL DUP2 MSTORE PUSH1 0x4 ADD PUSH2 0x2C1D SWAP3 SWAP2 SWAP1 PUSH2 0x4469 JUMP JUMPDEST PUSH1 0x0 PUSH1 0x40 MLOAD DUP1 DUP4 SUB DUP2 PUSH1 0x0 DUP8 DUP1 EXTCODESIZE ISZERO DUP1 ISZERO PUSH2 0x2C37 JUMPI PUSH1 0x0 DUP1 REVERT JUMPDEST POP GAS CALL ISZERO DUP1 ISZERO PUSH2 0x2C4B JUMPI RETURNDATASIZE PUSH1 0x0 DUP1 RETURNDATACOPY RETURNDATASIZE PUSH1 0x0 REVERT JUMPDEST POP POP PUSH1 0xD SLOAD PUSH1 0x40 MLOAD PUSH4 0x70A08231 PUSH1 0xE0 SHL DUP2 MSTORE PUSH1 0x1 PUSH1 0x1 PUSH1 0xA0 SHL SUB SWAP1 SWAP2 AND SWAP3 POP PUSH4 0x70A08231 SWAP2 POP PUSH2 0x2C7F SWAP1 ADDRESS SWAP1 PUSH1 0x4 ADD PUSH2 0x4378 JUMP JUMPDEST PUSH1 0x20 PUSH1 0x40 MLOAD DUP1 DUP4 SUB DUP2 DUP7 DUP1 EXTCODESIZE ISZERO DUP1 ISZERO PUSH2 0x2C97 JUMPI PUSH1 0x0 DUP1 REVERT JUMPDEST POP GAS STATICCALL ISZERO DUP1 ISZERO PUSH2 0x2CAB JUMPI RETURNDATASIZE PUSH1 0x0 DUP1 RETURNDATACOPY RETURNDATASIZE PUSH1 0x0 REVERT JUMPDEST POP POP POP POP PUSH1 0x40 MLOAD RETURNDATASIZE PUSH1 0x1F NOT PUSH1 0x1F DUP3 ADD AND DUP3 ADD DUP1 PUSH1 0x40 MSTORE POP DUP2 ADD SWAP1 PUSH2 0x2CCF SWAP2 SWAP1 PUSH2 0x42F4 JUMP JUMPDEST SWAP3 POP POP POP JUMPDEST PUSH1 0x0 DUP1 PUSH20 0xA38CD27185A464914D3046F0AB9D43356B34829D PUSH4 0xDEDE6C4 PUSH20 0x841FAD6EAE12C286D1FD18D1D525DFFA75C7EFFE PUSH1 0x0 DUP1 MLOAD PUSH1 0x20 PUSH2 0x4861 DUP4 CODECOPY DUP2 MLOAD SWAP2 MSTORE DUP5 PUSH2 0x2D20 DUP10 DUP10 PUSH2 0x3FC5 JUMP JUMPDEST PUSH1 0x0 DUP1 ADDRESS PUSH1 0x0 NOT PUSH1 0x40 MLOAD DUP10 PUSH4 0xFFFFFFFF AND PUSH1 0xE0 SHL DUP2 MSTORE PUSH1 0x4 ADD PUSH2 0x2D4A SWAP9 SWAP8 SWAP7 SWAP6 SWAP5 SWAP4 SWAP3 SWAP2 SWAP1 PUSH2 0x43D1 JUMP JUMPDEST PUSH1 0x40 DUP1 MLOAD DUP1 DUP4 SUB DUP2 PUSH1 0x0 DUP8 DUP1 EXTCODESIZE ISZERO DUP1 ISZERO PUSH2 0x2D63 JUMPI PUSH1 0x0 DUP1 REVERT JUMPDEST POP GAS CALL ISZERO DUP1 ISZERO PUSH2 0x2D77 JUMPI RETURNDATASIZE PUSH1 0x0 DUP1 RETURNDATACOPY RETURNDATASIZE PUSH1 0x0 REVERT JUMPDEST POP POP POP POP PUSH1 0x40 MLOAD RETURNDATASIZE PUSH1 0x1F NOT PUSH1 0x1F DUP3 ADD AND DUP3 ADD DUP1 PUSH1 0x40 MSTORE POP DUP2 ADD SWAP1 PUSH2 0x2D9B SWAP2 SWAP1 PUSH2 0x430C JUMP JUMPDEST PUSH1 0x40 MLOAD PUSH4 0x70A08231 PUSH1 0xE0 SHL DUP2 MSTORE SWAP2 SWAP4 POP SWAP2 POP PUSH1 0x0 DUP1 MLOAD PUSH1 0x20 PUSH2 0x4861 DUP4 CODECOPY DUP2 MLOAD SWAP2 MSTORE SWAP1 PUSH4 0x67DFD4C9 SWAP1 DUP3 SWAP1 PUSH4 0x70A08231 SWAP1 PUSH2 0x2DD9 SWAP1 ADDRESS SWAP1 PUSH1 0x4 ADD PUSH2 0x4378 JUMP JUMPDEST PUSH1 0x20 PUSH1 0x40 MLOAD DUP1 DUP4 SUB DUP2 DUP7 DUP1 EXTCODESIZE ISZERO DUP1 ISZERO PUSH2 0x2DF1 JUMPI PUSH1 0x0 DUP1 REVERT JUMPDEST POP GAS STATICCALL ISZERO DUP1 ISZERO PUSH2 0x2E05 JUMPI RETURNDATASIZE PUSH1 0x0 DUP1 RETURNDATACOPY RETURNDATASIZE PUSH1 0x0 REVERT JUMPDEST POP POP POP POP PUSH1 0x40 MLOAD RETURNDATASIZE PUSH1 0x1F NOT PUSH1 0x1F DUP3 ADD AND DUP3 ADD DUP1 PUSH1 0x40 MSTORE POP DUP2 ADD SWAP1 PUSH2 0x2E29 SWAP2 SWAP1 PUSH2 0x42F4 JUMP JUMPDEST PUSH1 0x40 MLOAD DUP3 PUSH4 0xFFFFFFFF AND PUSH1 0xE0 SHL DUP2 MSTORE PUSH1 0x4 ADD PUSH2 0x2E45 SWAP2 SWAP1 PUSH2 0x44DA JUMP JUMPDEST PUSH1 0x0 PUSH1 0x40 MLOAD DUP1 DUP4 SUB DUP2 PUSH1 0x0 DUP8 DUP1 EXTCODESIZE ISZERO DUP1 ISZERO PUSH2 0x2E5F JUMPI PUSH1 0x0 DUP1 REVERT JUMPDEST POP GAS CALL ISZERO DUP1 ISZERO PUSH2 0x2E73 JUMPI RETURNDATASIZE PUSH1 0x0 DUP1 RETURNDATACOPY RETURNDATASIZE PUSH1 0x0 REVERT JUMPDEST POP POP PUSH1 0x6 SLOAD PUSH1 0x40 MLOAD PUSH4 0x70A08231 PUSH1 0xE0 SHL DUP2 MSTORE PUSH2 0x2F01 SWAP4 POP PUSH1 0x1 PUSH1 0x1 PUSH1 0xA0 SHL SUB SWAP1 SWAP2 AND SWAP2 POP PUSH4 0x70A08231 SWAP1 PUSH2 0x2EAB SWAP1 ADDRESS SWAP1 PUSH1 0x4 ADD PUSH2 0x4378 JUMP JUMPDEST PUSH1 0x20 PUSH1 0x40 MLOAD DUP1 DUP4 SUB DUP2 DUP7 DUP1 EXTCODESIZE ISZERO DUP1 ISZERO PUSH2 0x2EC3 JUMPI PUSH1 0x0 DUP1 REVERT JUMPDEST POP GAS STATICCALL ISZERO DUP1 ISZERO PUSH2 0x2ED7 JUMPI RETURNDATASIZE PUSH1 0x0 DUP1 RETURNDATACOPY RETURNDATASIZE PUSH1 0x0 REVERT JUMPDEST POP POP POP POP PUSH1 0x40 MLOAD RETURNDATASIZE PUSH1 0x1F NOT PUSH1 0x1F DUP3 ADD AND DUP3 ADD DUP1 PUSH1 0x40 MSTORE POP DUP2 ADD SWAP1 PUSH2 0x2EFB SWAP2 SWAP1 PUSH2 0x42F4 JUMP JUMPDEST DUP11 PUSH2 0x3FC5 JUMP JUMPDEST SWAP8 POP DUP9 DUP9 LT ISZERO PUSH2 0x2F18 JUMPI PUSH2 0x2F15 DUP10 DUP10 PUSH2 0x36F1 JUMP JUMPDEST SWAP7 POP JUMPDEST POP POP POP POP POP PUSH2 0x2F26 JUMP JUMPDEST DUP4 SWAP3 POP JUMPDEST POP SWAP2 POP SWAP2 JUMP JUMPDEST PUSH1 0xB SLOAD PUSH1 0xFF AND ISZERO PUSH2 0x2F3C JUMPI PUSH2 0x1FD6 JUMP JUMPDEST PUSH1 0x0 PUSH2 0x2F46 PUSH2 0x1DAF JUMP JUMPDEST SWAP1 POP DUP1 ISZERO PUSH2 0x7E7 JUMPI PUSH1 0xD SLOAD PUSH1 0x40 MLOAD PUSH4 0x70A08231 PUSH1 0xE0 SHL DUP2 MSTORE PUSH1 0x0 SWAP2 PUSH20 0x841FAD6EAE12C286D1FD18D1D525DFFA75C7EFFE SWAP2 PUSH4 0x70A08231 SWAP2 PUSH2 0x2F95 SWAP2 PUSH1 0x1 PUSH1 0x1 PUSH1 0xA0 SHL SUB SWAP1 SWAP2 AND SWAP1 PUSH1 0x4 ADD PUSH2 0x4378 JUMP JUMPDEST PUSH1 0x20 PUSH1 0x40 MLOAD DUP1 DUP4 SUB DUP2 DUP7 DUP1 EXTCODESIZE ISZERO DUP1 ISZERO PUSH2 0x2FAD JUMPI PUSH1 0x0 DUP1 REVERT JUMPDEST POP GAS STATICCALL ISZERO DUP1 ISZERO PUSH2 0x2FC1 JUMPI RETURNDATASIZE PUSH1 0x0 DUP1 RETURNDATACOPY RETURNDATASIZE PUSH1 0x0 REVERT JUMPDEST POP POP POP POP PUSH1 0x40 MLOAD RETURNDATASIZE PUSH1 0x1F NOT PUSH1 0x1F DUP3 ADD AND DUP3 ADD DUP1 PUSH1 0x40 MSTORE POP DUP2 ADD SWAP1 PUSH2 0x2FE5 SWAP2 SWAP1 PUSH2 0x42F4 JUMP JUMPDEST PUSH1 0xD SLOAD PUSH1 0x40 MLOAD PUSH4 0x70A08231 PUSH1 0xE0 SHL DUP2 MSTORE SWAP2 SWAP3 POP PUSH1 0x0 SWAP2 PUSH1 0x0 DUP1 MLOAD PUSH1 0x20 PUSH2 0x4861 DUP4 CODECOPY DUP2 MLOAD SWAP2 MSTORE SWAP2 PUSH4 0x70A08231 SWAP2 PUSH2 0x3027 SWAP2 PUSH1 0x1 PUSH1 0x1 PUSH1 0xA0 SHL SUB AND SWAP1 PUSH1 0x4 ADD PUSH2 0x4378 JUMP JUMPDEST PUSH1 0x20 PUSH1 0x40 MLOAD DUP1 DUP4 SUB DUP2 DUP7 DUP1 EXTCODESIZE ISZERO DUP1 ISZERO PUSH2 0x303F JUMPI PUSH1 0x0 DUP1 REVERT JUMPDEST POP GAS STATICCALL ISZERO DUP1 ISZERO PUSH2 0x3053 JUMPI RETURNDATASIZE PUSH1 0x0 DUP1 RETURNDATACOPY RETURNDATASIZE PUSH1 0x0 REVERT JUMPDEST POP POP POP POP PUSH1 0x40 MLOAD RETURNDATASIZE PUSH1 0x1F NOT PUSH1 0x1F DUP3 ADD AND DUP3 ADD DUP1 PUSH1 0x40 MSTORE POP DUP2 ADD SWAP1 PUSH2 0x3077 SWAP2 SWAP1 PUSH2 0x42F4 JUMP JUMPDEST SWAP1 POP PUSH1 0x0 PUSH2 0x3091 DUP4 PUSH2 0x16DD DUP5 PUSH8 0xDE0B6B3A7640000 PUSH2 0x39FA JUMP JUMPDEST PUSH1 0x40 MLOAD PUSH4 0x43B0FF51 PUSH1 0xE0 SHL DUP2 MSTORE SWAP1 SWAP2 POP PUSH1 0x0 SWAP1 PUSH1 0x0 DUP1 MLOAD PUSH1 0x20 PUSH2 0x4861 DUP4 CODECOPY DUP2 MLOAD SWAP2 MSTORE SWAP1 PUSH4 0x43B0FF51 SWAP1 PUSH2 0x30D0 SWAP1 PUSH8 0xDE0B6B3A7640000 SWAP1 PUSH1 0x4 ADD PUSH2 0x44DA JUMP JUMPDEST PUSH1 0x20 PUSH1 0x40 MLOAD DUP1 DUP4 SUB DUP2 DUP7 DUP1 EXTCODESIZE ISZERO DUP1 ISZERO PUSH2 0x30E8 JUMPI PUSH1 0x0 DUP1 REVERT JUMPDEST POP GAS STATICCALL ISZERO DUP1 ISZERO PUSH2 0x30FC JUMPI RETURNDATASIZE PUSH1 0x0 DUP1 RETURNDATACOPY RETURNDATASIZE PUSH1 0x0 REVERT JUMPDEST POP POP POP POP PUSH1 0x40 MLOAD RETURNDATASIZE PUSH1 0x1F NOT PUSH1 0x1F DUP3 ADD AND DUP3 ADD DUP1 PUSH1 0x40 MSTORE POP DUP2 ADD SWAP1 PUSH2 0x3120 SWAP2 SWAP1 PUSH2 0x42F4 JUMP JUMPDEST SWAP1 POP PUSH1 0x0 PUSH2 0x312E DUP7 DUP4 PUSH2 0x39FA JUMP JUMPDEST SWAP1 POP PUSH1 0x0 PUSH2 0x313C DUP4 DUP6 PUSH2 0x39D5 JUMP JUMPDEST SWAP1 POP PUSH1 0x0 PUSH2 0x3157 PUSH3 0xF4240 PUSH2 0x3151 DUP6 DUP6 PUSH2 0x3A34 JUMP JUMPDEST SWAP1 PUSH2 0x36F1 JUMP JUMPDEST PUSH1 0x40 MLOAD PUSH4 0x2967CF83 PUSH1 0xE2 SHL DUP2 MSTORE SWAP1 SWAP2 POP PUSH1 0x0 DUP1 MLOAD PUSH1 0x20 PUSH2 0x4861 DUP4 CODECOPY DUP2 MLOAD SWAP2 MSTORE SWAP1 PUSH4 0xA59F3E0C SWAP1 PUSH2 0x318B SWAP1 DUP5 SWAP1 PUSH1 0x4 ADD PUSH2 0x44DA JUMP JUMPDEST PUSH1 0x0 PUSH1 0x40 MLOAD DUP1 DUP4 SUB DUP2 PUSH1 0x0 DUP8 DUP1 EXTCODESIZE ISZERO DUP1 ISZERO PUSH2 0x31A5 JUMPI PUSH1 0x0 DUP1 REVERT JUMPDEST POP GAS CALL ISZERO DUP1 ISZERO PUSH2 0x31B9 JUMPI RETURNDATASIZE PUSH1 0x0 DUP1 RETURNDATACOPY RETURNDATASIZE PUSH1 0x0 REVERT JUMPDEST POP POP PUSH1 0x40 MLOAD PUSH4 0x70A08231 PUSH1 0xE0 SHL DUP2 MSTORE PUSH20 0xA38CD27185A464914D3046F0AB9D43356B34829D SWAP3 POP PUSH4 0x5A47DDC3 SWAP2 POP PUSH20 0x841FAD6EAE12C286D1FD18D1D525DFFA75C7EFFE SWAP1 PUSH1 0x0 DUP1 MLOAD PUSH1 0x20 PUSH2 0x4861 DUP4 CODECOPY DUP2 MLOAD SWAP2 MSTORE SWAP1 PUSH1 0x0 SWAP1 DUP4 SWAP1 PUSH4 0x70A08231 SWAP1 PUSH2 0x3225 SWAP1 ADDRESS SWAP1 PUSH1 0x4 ADD PUSH2 0x4378 JUMP JUMPDEST PUSH1 0x20 PUSH1 0x40 MLOAD DUP1 DUP4 SUB DUP2 DUP7 DUP1 EXTCODESIZE ISZERO DUP1 ISZERO PUSH2 0x323D JUMPI PUSH1 0x0 DUP1 REVERT JUMPDEST POP GAS STATICCALL ISZERO DUP1 ISZERO PUSH2 0x3251 JUMPI RETURNDATASIZE PUSH1 0x0 DUP1 RETURNDATACOPY RETURNDATASIZE PUSH1 0x0 REVERT JUMPDEST POP POP POP POP PUSH1 0x40 MLOAD RETURNDATASIZE PUSH1 0x1F NOT PUSH1 0x1F DUP3 ADD AND DUP3 ADD DUP1 PUSH1 0x40 MSTORE POP DUP2 ADD SWAP1 PUSH2 0x3275 SWAP2 SWAP1 PUSH2 0x42F4 JUMP JUMPDEST PUSH1 0x40 MLOAD PUSH4 0x70A08231 PUSH1 0xE0 SHL DUP2 MSTORE PUSH1 0x0 DUP1 MLOAD PUSH1 0x20 PUSH2 0x4861 DUP4 CODECOPY DUP2 MLOAD SWAP2 MSTORE SWAP1 PUSH4 0x70A08231 SWAP1 PUSH2 0x32A6 SWAP1 ADDRESS SWAP1 PUSH1 0x4 ADD PUSH2 0x4378 JUMP JUMPDEST PUSH1 0x20 PUSH1 0x40 MLOAD DUP1 DUP4 SUB DUP2 DUP7 DUP1 EXTCODESIZE ISZERO DUP1 ISZERO PUSH2 0x32BE JUMPI PUSH1 0x0 DUP1 REVERT JUMPDEST POP GAS STATICCALL ISZERO DUP1 ISZERO PUSH2 0x32D2 JUMPI RETURNDATASIZE PUSH1 0x0 DUP1 RETURNDATACOPY RETURNDATASIZE PUSH1 0x0 REVERT JUMPDEST POP POP POP POP PUSH1 0x40 MLOAD RETURNDATASIZE PUSH1 0x1F NOT PUSH1 0x1F DUP3 ADD AND DUP3 ADD DUP1 PUSH1 0x40 MSTORE POP DUP2 ADD SWAP1 PUSH2 0x32F6 SWAP2 SWAP1 PUSH2 0x42F4 JUMP JUMPDEST PUSH1 0x0 DUP1 ADDRESS PUSH1 0x0 NOT PUSH1 0x40 MLOAD DUP11 PUSH4 0xFFFFFFFF AND PUSH1 0xE0 SHL DUP2 MSTORE PUSH1 0x4 ADD PUSH2 0x3321 SWAP10 SWAP9 SWAP8 SWAP7 SWAP6 SWAP5 SWAP4 SWAP3 SWAP2 SWAP1 PUSH2 0x441A JUMP JUMPDEST PUSH1 0x60 PUSH1 0x40 MLOAD DUP1 DUP4 SUB DUP2 PUSH1 0x0 DUP8 DUP1 EXTCODESIZE ISZERO DUP1 ISZERO PUSH2 0x333B JUMPI PUSH1 0x0 DUP1 REVERT JUMPDEST POP GAS CALL ISZERO DUP1 ISZERO PUSH2 0x334F JUMPI RETURNDATASIZE PUSH1 0x0 DUP1 RETURNDATACOPY RETURNDATASIZE PUSH1 0x0 REVERT JUMPDEST POP POP POP POP PUSH1 0x40 MLOAD RETURNDATASIZE PUSH1 0x1F NOT PUSH1 0x1F DUP3 ADD AND DUP3 ADD DUP1 PUSH1 0x40 MSTORE POP DUP2 ADD SWAP1 PUSH2 0x3373 SWAP2 SWAP1 PUSH2 0x432F JUMP JUMPDEST POP POP PUSH1 0xE SLOAD PUSH1 0xD SLOAD PUSH1 0x40 MLOAD PUSH4 0x70A08231 PUSH1 0xE0 SHL DUP2 MSTORE PUSH1 0x1 PUSH1 0x1 PUSH1 0xA0 SHL SUB SWAP3 DUP4 AND SWAP4 POP PUSH4 0x47E7EF24 SWAP3 SWAP1 SWAP2 AND SWAP1 DUP2 SWAP1 PUSH4 0x70A08231 SWAP1 PUSH2 0x33B5 SWAP1 ADDRESS SWAP1 PUSH1 0x4 ADD PUSH2 0x4378 JUMP JUMPDEST PUSH1 0x20 PUSH1 0x40 MLOAD DUP1 DUP4 SUB DUP2 DUP7 DUP1 EXTCODESIZE ISZERO DUP1 ISZERO PUSH2 0x33CD JUMPI PUSH1 0x0 DUP1 REVERT JUMPDEST POP GAS STATICCALL ISZERO DUP1 ISZERO PUSH2 0x33E1 JUMPI RETURNDATASIZE PUSH1 0x0 DUP1 RETURNDATACOPY RETURNDATASIZE PUSH1 0x0 REVERT JUMPDEST POP POP POP POP PUSH1 0x40 MLOAD RETURNDATASIZE PUSH1 0x1F NOT PUSH1 0x1F DUP3 ADD AND DUP3 ADD DUP1 PUSH1 0x40 MSTORE POP DUP2 ADD SWAP1 PUSH2 0x3405 SWAP2 SWAP1 PUSH2 0x42F4 JUMP JUMPDEST PUSH1 0x40 MLOAD DUP4 PUSH4 0xFFFFFFFF AND PUSH1 0xE0 SHL DUP2 MSTORE PUSH1 0x4 ADD PUSH2 0x3422 SWAP3 SWAP2 SWAP1 PUSH2 0x4469 JUMP JUMPDEST PUSH1 0x0 PUSH1 0x40 MLOAD DUP1 DUP4 SUB DUP2 PUSH1 0x0 DUP8 DUP1 EXTCODESIZE ISZERO DUP1 ISZERO PUSH2 0x343C JUMPI PUSH1 0x0 DUP1 REVERT JUMPDEST POP GAS CALL ISZERO DUP1 ISZERO PUSH2 0x3450 JUMPI RETURNDATASIZE PUSH1 0x0 DUP1 RETURNDATACOPY RETURNDATASIZE PUSH1 0x0 REVERT JUMPDEST POP POP POP POP POP POP POP POP POP POP POP POP POP JUMP JUMPDEST PUSH1 0xE SLOAD PUSH1 0xD SLOAD PUSH1 0x0 SWAP2 PUSH1 0x1 PUSH1 0x1 PUSH1 0xA0 SHL SUB SWAP1 DUP2 AND SWAP2 PUSH4 0xF3FEF3A3 SWAP2 AND PUSH2 0x3483 PUSH2 0xD26 JUMP JUMPDEST PUSH1 0x40 MLOAD DUP4 PUSH4 0xFFFFFFFF AND PUSH1 0xE0 SHL DUP2 MSTORE PUSH1 0x4 ADD PUSH2 0x34A0 SWAP3 SWAP2 SWAP1 PUSH2 0x4469 JUMP JUMPDEST PUSH1 0x0 PUSH1 0x40 MLOAD DUP1 DUP4 SUB DUP2 PUSH1 0x0 DUP8 DUP1 EXTCODESIZE ISZERO DUP1 ISZERO PUSH2 0x34BA JUMPI PUSH1 0x0 DUP1 REVERT JUMPDEST POP GAS CALL ISZERO DUP1 ISZERO PUSH2 0x34CE JUMPI RETURNDATASIZE PUSH1 0x0 DUP1 RETURNDATACOPY RETURNDATASIZE PUSH1 0x0 REVERT JUMPDEST POP POP PUSH1 0xD SLOAD PUSH1 0x40 MLOAD PUSH4 0x70A08231 PUSH1 0xE0 SHL DUP2 MSTORE PUSH20 0xA38CD27185A464914D3046F0AB9D43356B34829D SWAP4 POP PUSH4 0xDEDE6C4 SWAP3 POP PUSH20 0x841FAD6EAE12C286D1FD18D1D525DFFA75C7EFFE SWAP2 PUSH1 0x0 DUP1 MLOAD PUSH1 0x20 PUSH2 0x4861 DUP4 CODECOPY DUP2 MLOAD SWAP2 MSTORE SWAP2 PUSH1 0x0 SWAP2 PUSH1 0x1 PUSH1 0x1 PUSH1 0xA0 SHL SUB AND SWAP1 PUSH4 0x70A08231 SWAP1 PUSH2 0x3545 SWAP1 ADDRESS SWAP1 PUSH1 0x4 ADD PUSH2 0x4378 JUMP JUMPDEST PUSH1 0x20 PUSH1 0x40 MLOAD DUP1 DUP4 SUB DUP2 DUP7 DUP1 EXTCODESIZE ISZERO DUP1 ISZERO PUSH2 0x355D JUMPI PUSH1 0x0 DUP1 REVERT JUMPDEST POP GAS STATICCALL ISZERO DUP1 ISZERO PUSH2 0x3571 JUMPI RETURNDATASIZE PUSH1 0x0 DUP1 RETURNDATACOPY RETURNDATASIZE PUSH1 0x0 REVERT JUMPDEST POP POP POP POP PUSH1 0x40 MLOAD RETURNDATASIZE PUSH1 0x1F NOT PUSH1 0x1F DUP3 ADD AND DUP3 ADD DUP1 PUSH1 0x40 MSTORE POP DUP2 ADD SWAP1 PUSH2 0x3595 SWAP2 SWAP1 PUSH2 0x42F4 JUMP JUMPDEST PUSH1 0x0 DUP1 ADDRESS PUSH1 0x0 NOT PUSH1 0x40 MLOAD DUP10 PUSH4 0xFFFFFFFF AND PUSH1 0xE0 SHL DUP2 MSTORE PUSH1 0x4 ADD PUSH2 0x35BF SWAP9 SWAP8 SWAP7 SWAP6 SWAP5 SWAP4 SWAP3 SWAP2 SWAP1 PUSH2 0x43D1 JUMP JUMPDEST PUSH1 0x40 DUP1 MLOAD DUP1 DUP4 SUB DUP2 PUSH1 0x0 DUP8 DUP1 EXTCODESIZE ISZERO DUP1 ISZERO PUSH2 0x35D8 JUMPI PUSH1 0x0 DUP1 REVERT JUMPDEST POP GAS CALL ISZERO DUP1 ISZERO PUSH2 0x35EC JUMPI RETURNDATASIZE PUSH1 0x0 DUP1 RETURNDATACOPY RETURNDATASIZE PUSH1 0x0 REVERT JUMPDEST POP POP POP POP PUSH1 0x40 MLOAD RETURNDATASIZE PUSH1 0x1F NOT PUSH1 0x1F DUP3 ADD AND DUP3 ADD DUP1 PUSH1 0x40 MSTORE POP DUP2 ADD SWAP1 PUSH2 0x3610 SWAP2 SWAP1 PUSH2 0x430C JUMP JUMPDEST POP POP PUSH1 0x40 MLOAD PUSH4 0x70A08231 PUSH1 0xE0 SHL DUP2 MSTORE PUSH1 0x0 DUP1 MLOAD PUSH1 0x20 PUSH2 0x4861 DUP4 CODECOPY DUP2 MLOAD SWAP2 MSTORE SWAP1 PUSH4 0x67DFD4C9 SWAP1 DUP3 SWAP1 PUSH4 0x70A08231 SWAP1 PUSH2 0x364B SWAP1 ADDRESS SWAP1 PUSH1 0x4 ADD PUSH2 0x4378 JUMP JUMPDEST PUSH1 0x20 PUSH1 0x40 MLOAD DUP1 DUP4 SUB DUP2 DUP7 DUP1 EXTCODESIZE ISZERO DUP1 ISZERO PUSH2 0x3663 JUMPI PUSH1 0x0 DUP1 REVERT JUMPDEST POP GAS STATICCALL ISZERO DUP1 ISZERO PUSH2 0x3677 JUMPI RETURNDATASIZE PUSH1 0x0 DUP1 RETURNDATACOPY RETURNDATASIZE PUSH1 0x0 REVERT JUMPDEST POP POP POP POP PUSH1 0x40 MLOAD RETURNDATASIZE PUSH1 0x1F NOT PUSH1 0x1F DUP3 ADD AND DUP3 ADD DUP1 PUSH1 0x40 MSTORE POP DUP2 ADD SWAP1 PUSH2 0x369B SWAP2 SWAP1 PUSH2 0x42F4 JUMP JUMPDEST PUSH1 0x40 MLOAD DUP3 PUSH4 0xFFFFFFFF AND PUSH1 0xE0 SHL DUP2 MSTORE PUSH1 0x4 ADD PUSH2 0x36B7 SWAP2 SWAP1 PUSH2 0x44DA JUMP JUMPDEST PUSH1 0x0 PUSH1 0x40 MLOAD DUP1 DUP4 SUB DUP2 PUSH1 0x0 DUP8 DUP1 EXTCODESIZE ISZERO DUP1 ISZERO PUSH2 0x36D1 JUMPI PUSH1 0x0 DUP1 REVERT JUMPDEST POP GAS CALL ISZERO DUP1 ISZERO PUSH2 0x36E5 JUMPI RETURNDATASIZE PUSH1 0x0 DUP1 RETURNDATACOPY RETURNDATASIZE PUSH1 0x0 REVERT JUMPDEST POP POP POP POP PUSH2 0xD21 PUSH2 0x1DAF JUMP JUMPDEST PUSH1 0x0 PUSH2 0x3733 DUP4 DUP4 PUSH1 0x40 MLOAD DUP1 PUSH1 0x40 ADD PUSH1 0x40 MSTORE DUP1 PUSH1 0x1E DUP2 MSTORE PUSH1 0x20 ADD PUSH32 0x536166654D6174683A207375627472616374696F6E206F766572666C6F770000 DUP2 MSTORE POP PUSH2 0x3FDB JUMP JUMPDEST SWAP1 POP JUMPDEST SWAP3 SWAP2 POP POP JUMP JUMPDEST PUSH1 0xB SLOAD PUSH1 0x0 SWAP1 DUP2 SWAP1 DUP2 SWAP1 PUSH2 0x100 SWAP1 DIV PUSH1 0xFF AND ISZERO DUP1 ISZERO PUSH2 0x376C JUMPI POP PUSH1 0xB SLOAD PUSH4 0x1000000 SWAP1 DIV PUSH1 0x1 PUSH1 0x1 PUSH1 0xA0 SHL SUB AND ISZERO ISZERO JUMPDEST ISZERO PUSH2 0x3779 JUMPI PUSH2 0x3779 PUSH2 0x3D16 JUMP JUMPDEST PUSH1 0x40 DUP1 MLOAD PUSH1 0x1 DUP1 DUP3 MSTORE DUP2 DUP4 ADD SWAP1 SWAP3 MSTORE PUSH1 0x60 SWAP2 PUSH1 0x20 DUP1 DUP4 ADD SWAP1 DUP1 CALLDATASIZE DUP4 CALLDATACOPY POP POP PUSH1 0xD SLOAD DUP3 MLOAD SWAP3 SWAP4 POP PUSH1 0x1 PUSH1 0x1 PUSH1 0xA0 SHL SUB AND SWAP2 DUP4 SWAP2 POP PUSH1 0x0 SWAP1 PUSH2 0x37B5 JUMPI INVALID JUMPDEST PUSH1 0x1 PUSH1 0x1 PUSH1 0xA0 SHL SUB SWAP3 DUP4 AND PUSH1 0x20 SWAP2 DUP3 MUL SWAP3 SWAP1 SWAP3 ADD ADD MSTORE PUSH1 0xE SLOAD PUSH1 0x40 MLOAD PUSH4 0x3FEBE831 PUSH1 0xE1 SHL DUP2 MSTORE SWAP2 AND SWAP1 PUSH4 0x7FD7D062 SWAP1 PUSH2 0x37F2 SWAP1 DUP5 SWAP1 PUSH1 0x4 ADD PUSH2 0x4482 JUMP JUMPDEST PUSH1 0x0 PUSH1 0x40 MLOAD DUP1 DUP4 SUB DUP2 PUSH1 0x0 DUP8 DUP1 EXTCODESIZE ISZERO DUP1 ISZERO PUSH2 0x380C JUMPI PUSH1 0x0 DUP1 REVERT JUMPDEST POP GAS CALL ISZERO DUP1 ISZERO PUSH2 0x3820 JUMPI RETURNDATASIZE PUSH1 0x0 DUP1 RETURNDATACOPY RETURNDATASIZE PUSH1 0x0 REVERT JUMPDEST POP POP POP POP PUSH1 0x0 PUSH2 0x382E PUSH2 0x23E3 JUMP JUMPDEST SWAP1 POP PUSH1 0x0 PUSH2 0x383A PUSH2 0x1DAF JUMP JUMPDEST PUSH1 0x2 SLOAD PUSH1 0x40 MLOAD PUSH4 0x39EBF823 PUSH1 0xE0 SHL DUP2 MSTORE SWAP2 SWAP3 POP PUSH1 0x0 SWAP2 PUSH1 0x1 PUSH1 0x1 PUSH1 0xA0 SHL SUB SWAP1 SWAP2 AND SWAP1 PUSH4 0x39EBF823 SWAP1 PUSH2 0x3870 SWAP1 ADDRESS SWAP1 PUSH1 0x4 ADD PUSH2 0x4378 JUMP JUMPDEST PUSH2 0x120 PUSH1 0x40 MLOAD DUP1 DUP4 SUB DUP2 DUP7 DUP1 EXTCODESIZE ISZERO DUP1 ISZERO PUSH2 0x3889 JUMPI PUSH1 0x0 DUP1 REVERT JUMPDEST POP GAS STATICCALL ISZERO DUP1 ISZERO PUSH2 0x389D JUMPI RETURNDATASIZE PUSH1 0x0 DUP1 RETURNDATACOPY RETURNDATASIZE PUSH1 0x0 REVERT JUMPDEST POP POP POP POP PUSH1 0x40 MLOAD RETURNDATASIZE PUSH1 0x1F NOT PUSH1 0x1F DUP3 ADD AND DUP3 ADD DUP1 PUSH1 0x40 MSTORE POP DUP2 ADD SWAP1 PUSH2 0x38C1 SWAP2 SWAP1 PUSH2 0x425E JUMP JUMPDEST PUSH1 0xC0 ADD MLOAD SWAP1 POP PUSH1 0x0 DUP2 DUP5 LT PUSH2 0x39BA JUMPI DUP9 SWAP6 POP PUSH2 0x38DD DUP5 DUP4 PUSH2 0x36F1 JUMP JUMPDEST SWAP8 POP PUSH2 0x38E9 DUP9 DUP8 PUSH2 0x39D5 JUMP JUMPDEST SWAP1 POP PUSH1 0x0 DUP2 GT DUP1 ISZERO PUSH2 0x38FA JUMPI POP DUP1 DUP4 LT JUMPDEST ISZERO PUSH2 0x39BA JUMPI PUSH2 0x3908 DUP2 PUSH2 0x29B0 JUMP JUMPDEST POP POP PUSH1 0x6 SLOAD PUSH1 0x40 MLOAD PUSH4 0x70A08231 PUSH1 0xE0 SHL DUP2 MSTORE PUSH1 0x0 SWAP2 PUSH1 0x1 PUSH1 0x1 PUSH1 0xA0 SHL SUB AND SWAP1 PUSH4 0x70A08231 SWAP1 PUSH2 0x393B SWAP1 ADDRESS SWAP1 PUSH1 0x4 ADD PUSH2 0x4378 JUMP JUMPDEST PUSH1 0x20 PUSH1 0x40 MLOAD DUP1 DUP4 SUB DUP2 DUP7 DUP1 EXTCODESIZE ISZERO DUP1 ISZERO PUSH2 0x3953 JUMPI PUSH1 0x0 DUP1 REVERT JUMPDEST POP GAS STATICCALL ISZERO DUP1 ISZERO PUSH2 0x3967 JUMPI RETURNDATASIZE PUSH1 0x0 DUP1 RETURNDATACOPY RETURNDATASIZE PUSH1 0x0 REVERT JUMPDEST POP POP POP POP PUSH1 0x40 MLOAD RETURNDATASIZE PUSH1 0x1F NOT PUSH1 0x1F DUP3 ADD AND DUP3 ADD DUP1 PUSH1 0x40 MSTORE POP DUP2 ADD SWAP1 PUSH2 0x398B SWAP2 SWAP1 PUSH2 0x42F4 JUMP JUMPDEST SWAP1 POP DUP2 DUP2 LT ISZERO PUSH2 0x39B8 JUMPI DUP1 DUP10 GT ISZERO PUSH2 0x39A9 JUMPI DUP1 SWAP9 POP PUSH1 0x0 SWAP7 POP PUSH2 0x39B8 JUMP JUMPDEST PUSH2 0x39B5 DUP10 DUP3 SUB DUP9 PUSH2 0x3FC5 JUMP JUMPDEST SWAP7 POP JUMPDEST POP JUMPDEST POP POP PUSH1 0xE DUP1 SLOAD PUSH1 0xFF PUSH1 0xA0 SHL NOT AND SWAP1 SSTORE POP SWAP4 SWAP6 SWAP3 SWAP5 POP SWAP1 SWAP3 POP POP JUMP JUMPDEST PUSH1 0x0 DUP3 DUP3 ADD DUP4 DUP2 LT ISZERO PUSH2 0x3733 JUMPI PUSH1 0x40 MLOAD PUSH3 0x461BCD PUSH1 0xE5 SHL DUP2 MSTORE PUSH1 0x4 ADD PUSH2 0x684 SWAP1 PUSH2 0x4589 JUMP JUMPDEST PUSH1 0x0 DUP3 PUSH2 0x3A09 JUMPI POP PUSH1 0x0 PUSH2 0x3736 JUMP JUMPDEST DUP3 DUP3 MUL DUP3 DUP5 DUP3 DUP2 PUSH2 0x3A16 JUMPI INVALID JUMPDEST DIV EQ PUSH2 0x3733 JUMPI PUSH1 0x40 MLOAD PUSH3 0x461BCD PUSH1 0xE5 SHL DUP2 MSTORE PUSH1 0x4 ADD PUSH2 0x684 SWAP1 PUSH2 0x45E6 JUMP JUMPDEST PUSH1 0x0 PUSH2 0x3733 DUP4 DUP4 PUSH1 0x40 MLOAD DUP1 PUSH1 0x40 ADD PUSH1 0x40 MSTORE DUP1 PUSH1 0x1A DUP2 MSTORE PUSH1 0x20 ADD PUSH32 0x536166654D6174683A206469766973696F6E206279207A65726F000000000000 DUP2 MSTORE POP PUSH2 0x4007 JUMP JUMPDEST PUSH1 0xB SLOAD PUSH4 0x1000000 SWAP1 DIV PUSH1 0x1 PUSH1 0x1 PUSH1 0xA0 SHL SUB AND PUSH2 0x3AA9 PUSH20 0xD31FCD1F7BA190DBC75354046F6024A9B86014D7 DUP3 PUSH1 0x0 PUSH2 0x27F9 JUMP JUMPDEST PUSH2 0x3AC9 PUSH20 0x888EF71766CA594DED1F0FA3AE64ED2941740A20 DUP3 PUSH1 0x0 PUSH2 0x27F9 JUMP JUMPDEST POP PUSH1 0xB DUP1 SLOAD PUSH3 0xFF0100 PUSH1 0x1 PUSH1 0xB8 SHL SUB NOT AND SWAP1 SSTORE JUMP JUMPDEST PUSH1 0xB SLOAD PUSH3 0x10000 SWAP1 DIV PUSH1 0xFF AND PUSH2 0x3B5F JUMPI PUSH1 0xE SLOAD PUSH1 0xD SLOAD PUSH1 0x1 PUSH1 0x1 PUSH1 0xA0 SHL SUB SWAP2 DUP3 AND SWAP2 PUSH4 0xF3FEF3A3 SWAP2 AND PUSH2 0x3B0F PUSH2 0xD26 JUMP JUMPDEST PUSH1 0x40 MLOAD DUP4 PUSH4 0xFFFFFFFF AND PUSH1 0xE0 SHL DUP2 MSTORE PUSH1 0x4 ADD PUSH2 0x3B2C SWAP3 SWAP2 SWAP1 PUSH2 0x4469 JUMP JUMPDEST PUSH1 0x0 PUSH1 0x40 MLOAD DUP1 DUP4 SUB DUP2 PUSH1 0x0 DUP8 DUP1 EXTCODESIZE ISZERO DUP1 ISZERO PUSH2 0x3B46 JUMPI PUSH1 0x0 DUP1 REVERT JUMPDEST POP GAS CALL ISZERO DUP1 ISZERO PUSH2 0x3B5A JUMPI RETURNDATASIZE PUSH1 0x0 DUP1 RETURNDATACOPY RETURNDATASIZE PUSH1 0x0 REVERT JUMPDEST POP POP POP POP JUMPDEST PUSH1 0xD SLOAD PUSH1 0x40 MLOAD PUSH4 0x70A08231 PUSH1 0xE0 SHL DUP2 MSTORE PUSH1 0x0 SWAP2 PUSH1 0x1 PUSH1 0x1 PUSH1 0xA0 SHL SUB AND SWAP1 PUSH4 0x70A08231 SWAP1 PUSH2 0x3B90 SWAP1 ADDRESS SWAP1 PUSH1 0x4 ADD PUSH2 0x4378 JUMP JUMPDEST PUSH1 0x20 PUSH1 0x40 MLOAD DUP1 DUP4 SUB DUP2 DUP7 DUP1 EXTCODESIZE ISZERO DUP1 ISZERO PUSH2 0x3BA8 JUMPI PUSH1 0x0 DUP1 REVERT JUMPDEST POP GAS STATICCALL ISZERO DUP1 ISZERO PUSH2 0x3BBC JUMPI RETURNDATASIZE PUSH1 0x0 DUP1 RETURNDATACOPY RETURNDATASIZE PUSH1 0x0 REVERT JUMPDEST POP POP POP POP PUSH1 0x40 MLOAD RETURNDATASIZE PUSH1 0x1F NOT PUSH1 0x1F DUP3 ADD AND DUP3 ADD DUP1 PUSH1 0x40 MSTORE POP DUP2 ADD SWAP1 PUSH2 0x3BE0 SWAP2 SWAP1 PUSH2 0x42F4 JUMP JUMPDEST SWAP1 POP DUP1 ISZERO PUSH2 0x3BFF JUMPI PUSH1 0xD SLOAD PUSH2 0x3BFF SWAP1 PUSH1 0x1 PUSH1 0x1 PUSH1 0xA0 SHL SUB AND DUP4 DUP4 PUSH2 0x2991 JUMP JUMPDEST PUSH1 0x40 MLOAD PUSH4 0x70A08231 PUSH1 0xE0 SHL DUP2 MSTORE PUSH1 0x0 SWAP1 PUSH1 0x0 DUP1 MLOAD PUSH1 0x20 PUSH2 0x4861 DUP4 CODECOPY DUP2 MLOAD SWAP2 MSTORE SWAP1 PUSH4 0x70A08231 SWAP1 PUSH2 0x3C33 SWAP1 ADDRESS SWAP1 PUSH1 0x4 ADD PUSH2 0x4378 JUMP JUMPDEST PUSH1 0x20 PUSH1 0x40 MLOAD DUP1 DUP4 SUB DUP2 DUP7 DUP1 EXTCODESIZE ISZERO DUP1 ISZERO PUSH2 0x3C4B JUMPI PUSH1 0x0 DUP1 REVERT JUMPDEST POP GAS STATICCALL ISZERO DUP1 ISZERO PUSH2 0x3C5F JUMPI RETURNDATASIZE PUSH1 0x0 DUP1 RETURNDATACOPY RETURNDATASIZE PUSH1 0x0 REVERT JUMPDEST POP POP POP POP PUSH1 0x40 MLOAD RETURNDATASIZE PUSH1 0x1F NOT PUSH1 0x1F DUP3 ADD AND DUP3 ADD DUP1 PUSH1 0x40 MSTORE POP DUP2 ADD SWAP1 PUSH2 0x3C83 SWAP2 SWAP1 PUSH2 0x42F4 JUMP JUMPDEST SWAP1 POP DUP1 ISZERO PUSH2 0x28F3 JUMPI PUSH1 0x40 MLOAD PUSH4 0xA9059CBB PUSH1 0xE0 SHL DUP2 MSTORE PUSH1 0x0 DUP1 MLOAD PUSH1 0x20 PUSH2 0x4861 DUP4 CODECOPY DUP2 MLOAD SWAP2 MSTORE SWAP1 PUSH4 0xA9059CBB SWAP1 PUSH2 0x3CBE SWAP1 DUP7 SWAP1 DUP6 SWAP1 PUSH1 0x4 ADD PUSH2 0x4469 JUMP JUMPDEST PUSH1 0x20 PUSH1 0x40 MLOAD DUP1 DUP4 SUB DUP2 PUSH1 0x0 DUP8 DUP1 EXTCODESIZE ISZERO DUP1 ISZERO PUSH2 0x3CD8 JUMPI PUSH1 0x0 DUP1 REVERT JUMPDEST POP GAS CALL ISZERO DUP1 ISZERO PUSH2 0x3CEC JUMPI RETURNDATASIZE PUSH1 0x0 DUP1 RETURNDATACOPY RETURNDATASIZE PUSH1 0x0 REVERT JUMPDEST POP POP POP POP PUSH1 0x40 MLOAD RETURNDATASIZE PUSH1 0x1F NOT PUSH1 0x1F DUP3 ADD AND DUP3 ADD DUP1 PUSH1 0x40 MSTORE POP DUP2 ADD SWAP1 PUSH2 0x3D10 SWAP2 SWAP1 PUSH2 0x41D5 JUMP JUMPDEST POP POP POP POP JUMP JUMPDEST PUSH1 0xB SLOAD PUSH4 0x1000000 SWAP1 DIV PUSH1 0x1 PUSH1 0x1 PUSH1 0xA0 SHL SUB AND DUP1 PUSH2 0x3D4B PUSH20 0xD31FCD1F7BA190DBC75354046F6024A9B86014D7 DUP3 PUSH1 0x0 NOT PUSH2 0x27F9 JUMP JUMPDEST PUSH1 0x6 SLOAD PUSH1 0x40 MLOAD PUSH4 0x2642A093 PUSH1 0xE1 SHL DUP2 MSTORE PUSH1 0x1 PUSH1 0x1 PUSH1 0xA0 SHL SUB DUP1 DUP5 AND SWAP3 PUSH4 0x4C854126 SWAP3 PUSH2 0x3D91 SWAP3 PUSH20 0xD31FCD1F7BA190DBC75354046F6024A9B86014D7 SWAP3 AND SWAP1 PUSH1 0x4 ADD PUSH2 0x438C JUMP JUMPDEST PUSH1 0x0 PUSH1 0x40 MLOAD DUP1 DUP4 SUB DUP2 PUSH1 0x0 DUP8 DUP1 EXTCODESIZE ISZERO DUP1 ISZERO PUSH2 0x3DAB JUMPI PUSH1 0x0 DUP1 REVERT JUMPDEST POP GAS CALL ISZERO DUP1 ISZERO PUSH2 0x3DBF JUMPI RETURNDATASIZE PUSH1 0x0 DUP1 RETURNDATACOPY RETURNDATASIZE PUSH1 0x0 REVERT JUMPDEST POP PUSH2 0x3DE7 SWAP3 POP PUSH20 0x888EF71766CA594DED1F0FA3AE64ED2941740A20 SWAP2 POP DUP5 SWAP1 POP PUSH1 0x0 NOT PUSH2 0x27F9 JUMP JUMPDEST PUSH1 0x6 SLOAD PUSH1 0x40 MLOAD PUSH4 0x2642A093 PUSH1 0xE1 SHL DUP2 MSTORE PUSH1 0x1 PUSH1 0x1 PUSH1 0xA0 SHL SUB DUP1 DUP5 AND SWAP3 PUSH4 0x4C854126 SWAP3 PUSH2 0x3E2D SWAP3 PUSH20 0x888EF71766CA594DED1F0FA3AE64ED2941740A20 SWAP3 AND SWAP1 PUSH1 0x4 ADD PUSH2 0x438C JUMP JUMPDEST PUSH1 0x0 PUSH1 0x40 MLOAD DUP1 DUP4 SUB DUP2 PUSH1 0x0 DUP8 DUP1 EXTCODESIZE ISZERO DUP1 ISZERO PUSH2 0x3E47 JUMPI PUSH1 0x0 DUP1 REVERT JUMPDEST POP GAS CALL ISZERO DUP1 ISZERO PUSH2 0x3E5B JUMPI RETURNDATASIZE PUSH1 0x0 DUP1 RETURNDATACOPY RETURNDATASIZE PUSH1 0x0 REVERT JUMPDEST POP POP PUSH1 0xB DUP1 SLOAD PUSH2 0xFF00 NOT AND PUSH2 0x100 OR SWAP1 SSTORE POP POP POP POP JUMP JUMPDEST PUSH1 0x60 PUSH2 0x3EC7 DUP3 PUSH1 0x40 MLOAD DUP1 PUSH1 0x40 ADD PUSH1 0x40 MSTORE DUP1 PUSH1 0x20 DUP2 MSTORE PUSH1 0x20 ADD PUSH32 0x5361666545524332303A206C6F772D6C6576656C2063616C6C206661696C6564 DUP2 MSTORE POP DUP6 PUSH1 0x1 PUSH1 0x1 PUSH1 0xA0 SHL SUB AND PUSH2 0x28F8 SWAP1 SWAP3 SWAP2 SWAP1 PUSH4 0xFFFFFFFF AND JUMP JUMPDEST DUP1 MLOAD SWAP1 SWAP2 POP ISZERO PUSH2 0x28F3 JUMPI DUP1 DUP1 PUSH1 0x20 ADD SWAP1 MLOAD DUP2 ADD SWAP1 PUSH2 0x3EE5 SWAP2 SWAP1 PUSH2 0x41D5 JUMP JUMPDEST PUSH2 0x28F3 JUMPI PUSH1 0x40 MLOAD PUSH3 0x461BCD PUSH1 0xE5 SHL DUP2 MSTORE PUSH1 0x4 ADD PUSH2 0x684 SWAP1 PUSH2 0x46C4 JUMP JUMPDEST PUSH1 0x60 PUSH2 0x3F0C DUP6 PUSH2 0x403E JUMP JUMPDEST PUSH2 0x3F28 JUMPI PUSH1 0x40 MLOAD PUSH3 0x461BCD PUSH1 0xE5 SHL DUP2 MSTORE PUSH1 0x4 ADD PUSH2 0x684 SWAP1 PUSH2 0x4668 JUMP JUMPDEST PUSH1 0x0 PUSH1 0x60 DUP7 PUSH1 0x1 PUSH1 0x1 PUSH1 0xA0 SHL SUB AND DUP6 DUP8 PUSH1 0x40 MLOAD PUSH2 0x3F45 SWAP2 SWAP1 PUSH2 0x435C JUMP JUMPDEST PUSH1 0x0 PUSH1 0x40 MLOAD DUP1 DUP4 SUB DUP2 DUP6 DUP8 GAS CALL SWAP3 POP POP POP RETURNDATASIZE DUP1 PUSH1 0x0 DUP2 EQ PUSH2 0x3F82 JUMPI PUSH1 0x40 MLOAD SWAP2 POP PUSH1 0x1F NOT PUSH1 0x3F RETURNDATASIZE ADD AND DUP3 ADD PUSH1 0x40 MSTORE RETURNDATASIZE DUP3 MSTORE RETURNDATASIZE PUSH1 0x0 PUSH1 0x20 DUP5 ADD RETURNDATACOPY PUSH2 0x3F87 JUMP JUMPDEST PUSH1 0x60 SWAP2 POP JUMPDEST POP SWAP2 POP SWAP2 POP DUP2 ISZERO PUSH2 0x3F9B JUMPI SWAP2 POP PUSH2 0x2907 SWAP1 POP JUMP JUMPDEST DUP1 MLOAD ISZERO PUSH2 0x3FAB JUMPI DUP1 MLOAD DUP1 DUP3 PUSH1 0x20 ADD REVERT JUMPDEST DUP4 PUSH1 0x40 MLOAD PUSH3 0x461BCD PUSH1 0xE5 SHL DUP2 MSTORE PUSH1 0x4 ADD PUSH2 0x684 SWAP2 SWAP1 PUSH2 0x4512 JUMP JUMPDEST PUSH1 0x0 DUP2 DUP4 LT PUSH2 0x3FD4 JUMPI DUP2 PUSH2 0x3733 JUMP JUMPDEST POP SWAP1 SWAP2 SWAP1 POP JUMP JUMPDEST PUSH1 0x0 DUP2 DUP5 DUP5 GT ISZERO PUSH2 0x3FFF JUMPI PUSH1 0x40 MLOAD PUSH3 0x461BCD PUSH1 0xE5 SHL DUP2 MSTORE PUSH1 0x4 ADD PUSH2 0x684 SWAP2 SWAP1 PUSH2 0x4512 JUMP JUMPDEST POP POP POP SWAP1 SUB SWAP1 JUMP JUMPDEST PUSH1 0x0 DUP2 DUP4 PUSH2 0x4028 JUMPI PUSH1 0x40 MLOAD PUSH3 0x461BCD PUSH1 0xE5 SHL DUP2 MSTORE PUSH1 0x4 ADD PUSH2 0x684 SWAP2 SWAP1 PUSH2 0x4512 JUMP JUMPDEST POP PUSH1 0x0 DUP4 DUP6 DUP2 PUSH2 0x4034 JUMPI INVALID JUMPDEST DIV SWAP6 SWAP5 POP POP POP POP POP JUMP JUMPDEST PUSH1 0x0 DUP2 EXTCODEHASH PUSH32 0xC5D2460186F7233C927E7DB2DCC703C0E500B653CA82273B7BFAD8045D85A470 DUP2 DUP2 EQ DUP1 ISZERO SWAP1 PUSH2 0x2907 JUMPI POP POP ISZERO ISZERO SWAP3 SWAP2 POP POP JUMP JUMPDEST DUP3 DUP1 SLOAD PUSH1 0x1 DUP2 PUSH1 0x1 AND ISZERO PUSH2 0x100 MUL SUB AND PUSH1 0x2 SWAP1 DIV SWAP1 PUSH1 0x0 MSTORE PUSH1 0x20 PUSH1 0x0 KECCAK256 SWAP1 PUSH1 0x1F ADD PUSH1 0x20 SWAP1 DIV DUP2 ADD SWAP3 DUP3 PUSH1 0x1F LT PUSH2 0x40B8 JUMPI DUP3 DUP1 ADD PUSH1 0xFF NOT DUP3 CALLDATALOAD AND OR DUP6 SSTORE PUSH2 0x40E5 JUMP JUMPDEST DUP3 DUP1 ADD PUSH1 0x1 ADD DUP6 SSTORE DUP3 ISZERO PUSH2 0x40E5 JUMPI SWAP2 DUP3 ADD JUMPDEST DUP3 DUP2 GT ISZERO PUSH2 0x40E5 JUMPI DUP3 CALLDATALOAD DUP3 SSTORE SWAP2 PUSH1 0x20 ADD SWAP2 SWAP1 PUSH1 0x1 ADD SWAP1 PUSH2 0x40CA JUMP JUMPDEST POP PUSH2 0x40F1 SWAP3 SWAP2 POP PUSH2 0x4141 JUMP JUMPDEST POP SWAP1 JUMP JUMPDEST PUSH1 0x40 MLOAD DUP1 PUSH2 0x120 ADD PUSH1 0x40 MSTORE DUP1 PUSH1 0x0 DUP2 MSTORE PUSH1 0x20 ADD PUSH1 0x0 DUP2 MSTORE PUSH1 0x20 ADD PUSH1 0x0 DUP2 MSTORE PUSH1 0x20 ADD PUSH1 0x0 DUP2 MSTORE PUSH1 0x20 ADD PUSH1 0x0 DUP2 MSTORE PUSH1 0x20 ADD PUSH1 0x0 DUP2 MSTORE PUSH1 0x20 ADD PUSH1 0x0 DUP2 MSTORE PUSH1 0x20 ADD PUSH1 0x0 DUP2 MSTORE PUSH1 0x20 ADD PUSH1 0x0 DUP2 MSTORE POP SWAP1 JUMP JUMPDEST JUMPDEST DUP1 DUP3 GT ISZERO PUSH2 0x40F1 JUMPI PUSH1 0x0 DUP2 SSTORE PUSH1 0x1 ADD PUSH2 0x4142 JUMP JUMPDEST PUSH1 0x0 PUSH1 0x20 DUP3 DUP5 SUB SLT ISZERO PUSH2 0x4167 JUMPI DUP1 DUP2 REVERT JUMPDEST DUP2 CALLDATALOAD PUSH2 0x3733 DUP2 PUSH2 0x483D JUMP JUMPDEST PUSH1 0x0 PUSH1 0x20 DUP3 DUP5 SUB SLT ISZERO PUSH2 0x4183 JUMPI DUP1 DUP2 REVERT JUMPDEST DUP2 MLOAD PUSH2 0x3733 DUP2 PUSH2 0x483D JUMP JUMPDEST PUSH1 0x0 DUP1 PUSH1 0x40 DUP4 DUP6 SUB SLT ISZERO PUSH2 0x41A0 JUMPI DUP1 DUP2 REVERT JUMPDEST DUP3 CALLDATALOAD PUSH2 0x41AB DUP2 PUSH2 0x483D JUMP JUMPDEST SWAP5 PUSH1 0x20 SWAP4 SWAP1 SWAP4 ADD CALLDATALOAD SWAP4 POP POP POP JUMP JUMPDEST PUSH1 0x0 PUSH1 0x20 DUP3 DUP5 SUB SLT ISZERO PUSH2 0x41CA JUMPI DUP1 DUP2 REVERT JUMPDEST DUP2 CALLDATALOAD PUSH2 0x3733 DUP2 PUSH2 0x4852 JUMP JUMPDEST PUSH1 0x0 PUSH1 0x20 DUP3 DUP5 SUB SLT ISZERO PUSH2 0x41E6 JUMPI DUP1 DUP2 REVERT JUMPDEST DUP2 MLOAD PUSH2 0x3733 DUP2 PUSH2 0x4852 JUMP JUMPDEST PUSH1 0x0 DUP1 PUSH1 0x20 DUP4 DUP6 SUB SLT ISZERO PUSH2 0x4203 JUMPI DUP2 DUP3 REVERT JUMPDEST DUP3 CALLDATALOAD PUSH8 0xFFFFFFFFFFFFFFFF DUP1 DUP3 GT ISZERO PUSH2 0x421A JUMPI DUP4 DUP5 REVERT JUMPDEST DUP2 DUP6 ADD SWAP2 POP DUP6 PUSH1 0x1F DUP4 ADD SLT PUSH2 0x422D JUMPI DUP4 DUP5 REVERT JUMPDEST DUP2 CALLDATALOAD DUP2 DUP2 GT ISZERO PUSH2 0x423B JUMPI DUP5 DUP6 REVERT JUMPDEST DUP7 PUSH1 0x20 DUP3 DUP6 ADD ADD GT ISZERO PUSH2 0x424C JUMPI DUP5 DUP6 REVERT JUMPDEST PUSH1 0x20 SWAP3 SWAP1 SWAP3 ADD SWAP7 SWAP2 SWAP6 POP SWAP1 SWAP4 POP POP POP POP JUMP JUMPDEST PUSH1 0x0 PUSH2 0x120 DUP1 DUP4 DUP6 SUB SLT ISZERO PUSH2 0x4271 JUMPI DUP2 DUP3 REVERT JUMPDEST PUSH2 0x427A DUP2 PUSH2 0x47EA JUMP JUMPDEST SWAP1 POP DUP3 MLOAD DUP2 MSTORE PUSH1 0x20 DUP4 ADD MLOAD PUSH1 0x20 DUP3 ADD MSTORE PUSH1 0x40 DUP4 ADD MLOAD PUSH1 0x40 DUP3 ADD MSTORE PUSH1 0x60 DUP4 ADD MLOAD PUSH1 0x60 DUP3 ADD MSTORE PUSH1 0x80 DUP4 ADD MLOAD PUSH1 0x80 DUP3 ADD MSTORE PUSH1 0xA0 DUP4 ADD MLOAD PUSH1 0xA0 DUP3 ADD MSTORE PUSH1 0xC0 DUP4 ADD MLOAD PUSH1 0xC0 DUP3 ADD MSTORE PUSH1 0xE0 DUP4 ADD MLOAD PUSH1 0xE0 DUP3 ADD MSTORE PUSH2 0x100 DUP1 DUP5 ADD MLOAD DUP2 DUP4 ADD MSTORE POP DUP1 SWAP2 POP POP SWAP3 SWAP2 POP POP JUMP JUMPDEST PUSH1 0x0 PUSH1 0x20 DUP3 DUP5 SUB SLT ISZERO PUSH2 0x42ED JUMPI DUP1 DUP2 REVERT JUMPDEST POP CALLDATALOAD SWAP2 SWAP1 POP JUMP JUMPDEST PUSH1 0x0 PUSH1 0x20 DUP3 DUP5 SUB SLT ISZERO PUSH2 0x4305 JUMPI DUP1 DUP2 REVERT JUMPDEST POP MLOAD SWAP2 SWAP1 POP JUMP JUMPDEST PUSH1 0x0 DUP1 PUSH1 0x40 DUP4 DUP6 SUB SLT ISZERO PUSH2 0x431E JUMPI DUP2 DUP3 REVERT JUMPDEST POP POP DUP1 MLOAD PUSH1 0x20 SWAP1 SWAP2 ADD MLOAD SWAP1 SWAP3 SWAP1 SWAP2 POP JUMP JUMPDEST PUSH1 0x0 DUP1 PUSH1 0x0 PUSH1 0x60 DUP5 DUP7 SUB SLT ISZERO PUSH2 0x4343 JUMPI DUP1 DUP2 REVERT JUMPDEST DUP4 MLOAD SWAP3 POP PUSH1 0x20 DUP5 ADD MLOAD SWAP2 POP PUSH1 0x40 DUP5 ADD MLOAD SWAP1 POP SWAP3 POP SWAP3 POP SWAP3 JUMP JUMPDEST PUSH1 0x0 DUP3 MLOAD PUSH2 0x436E DUP2 DUP5 PUSH1 0x20 DUP8 ADD PUSH2 0x4811 JUMP JUMPDEST SWAP2 SWAP1 SWAP2 ADD SWAP3 SWAP2 POP POP JUMP JUMPDEST PUSH1 0x1 PUSH1 0x1 PUSH1 0xA0 SHL SUB SWAP2 SWAP1 SWAP2 AND DUP2 MSTORE PUSH1 0x20 ADD SWAP1 JUMP JUMPDEST PUSH1 0x1 PUSH1 0x1 PUSH1 0xA0 SHL SUB SWAP3 DUP4 AND DUP2 MSTORE SWAP2 AND PUSH1 0x20 DUP3 ADD MSTORE PUSH1 0x40 ADD SWAP1 JUMP JUMPDEST PUSH1 0x1 PUSH1 0x1 PUSH1 0xA0 SHL SUB SWAP5 DUP6 AND DUP2 MSTORE SWAP3 SWAP1 SWAP4 AND PUSH1 0x20 DUP4 ADD MSTORE ISZERO ISZERO PUSH1 0x40 DUP3 ADD MSTORE PUSH1 0x60 DUP2 ADD SWAP2 SWAP1 SWAP2 MSTORE PUSH1 0x80 ADD SWAP1 JUMP JUMPDEST PUSH1 0x1 PUSH1 0x1 PUSH1 0xA0 SHL SUB SWAP9 DUP10 AND DUP2 MSTORE SWAP7 DUP9 AND PUSH1 0x20 DUP9 ADD MSTORE SWAP5 ISZERO ISZERO PUSH1 0x40 DUP8 ADD MSTORE PUSH1 0x60 DUP7 ADD SWAP4 SWAP1 SWAP4 MSTORE PUSH1 0x80 DUP6 ADD SWAP2 SWAP1 SWAP2 MSTORE PUSH1 0xA0 DUP5 ADD MSTORE SWAP1 SWAP3 AND PUSH1 0xC0 DUP3 ADD MSTORE PUSH1 0xE0 DUP2 ADD SWAP2 SWAP1 SWAP2 MSTORE PUSH2 0x100 ADD SWAP1 JUMP JUMPDEST PUSH1 0x1 PUSH1 0x1 PUSH1 0xA0 SHL SUB SWAP10 DUP11 AND DUP2 MSTORE SWAP8 DUP10 AND PUSH1 0x20 DUP10 ADD MSTORE SWAP6 ISZERO ISZERO PUSH1 0x40 DUP9 ADD MSTORE PUSH1 0x60 DUP8 ADD SWAP5 SWAP1 SWAP5 MSTORE PUSH1 0x80 DUP7 ADD SWAP3 SWAP1 SWAP3 MSTORE PUSH1 0xA0 DUP6 ADD MSTORE PUSH1 0xC0 DUP5 ADD MSTORE SWAP1 SWAP3 AND PUSH1 0xE0 DUP3 ADD MSTORE PUSH2 0x100 DUP2 ADD SWAP2 SWAP1 SWAP2 MSTORE PUSH2 0x120 ADD SWAP1 JUMP JUMPDEST PUSH1 0x1 PUSH1 0x1 PUSH1 0xA0 SHL SUB SWAP3 SWAP1 SWAP3 AND DUP3 MSTORE PUSH1 0x20 DUP3 ADD MSTORE PUSH1 0x40 ADD SWAP1 JUMP JUMPDEST PUSH1 0x20 DUP1 DUP3 MSTORE DUP3 MLOAD DUP3 DUP3 ADD DUP2 SWAP1 MSTORE PUSH1 0x0 SWAP2 SWAP1 DUP5 DUP3 ADD SWAP1 PUSH1 0x40 DUP6 ADD SWAP1 DUP5 JUMPDEST DUP2 DUP2 LT ISZERO PUSH2 0x44C3 JUMPI DUP4 MLOAD PUSH1 0x1 PUSH1 0x1 PUSH1 0xA0 SHL SUB AND DUP4 MSTORE SWAP3 DUP5 ADD SWAP3 SWAP2 DUP5 ADD SWAP2 PUSH1 0x1 ADD PUSH2 0x449E JUMP JUMPDEST POP SWAP1 SWAP7 SWAP6 POP POP POP POP POP POP JUMP JUMPDEST SWAP1 ISZERO ISZERO DUP2 MSTORE PUSH1 0x20 ADD SWAP1 JUMP JUMPDEST SWAP1 DUP2 MSTORE PUSH1 0x20 ADD SWAP1 JUMP JUMPDEST PUSH1 0x0 PUSH1 0x20 DUP3 MSTORE DUP3 PUSH1 0x20 DUP4 ADD MSTORE DUP3 DUP5 PUSH1 0x40 DUP5 ADD CALLDATACOPY DUP2 DUP4 ADD PUSH1 0x40 SWAP1 DUP2 ADD SWAP2 SWAP1 SWAP2 MSTORE PUSH1 0x1F SWAP1 SWAP3 ADD PUSH1 0x1F NOT AND ADD ADD SWAP2 SWAP1 POP JUMP JUMPDEST PUSH1 0x0 PUSH1 0x20 DUP3 MSTORE DUP3 MLOAD DUP1 PUSH1 0x20 DUP5 ADD MSTORE PUSH2 0x4531 DUP2 PUSH1 0x40 DUP6 ADD PUSH1 0x20 DUP8 ADD PUSH2 0x4811 JUMP JUMPDEST PUSH1 0x1F ADD PUSH1 0x1F NOT AND SWAP2 SWAP1 SWAP2 ADD PUSH1 0x40 ADD SWAP3 SWAP2 POP POP JUMP JUMPDEST PUSH1 0x20 DUP1 DUP3 MSTORE PUSH1 0xB SWAP1 DUP3 ADD MSTORE PUSH11 0x85CDD1C985D1959DA5CDD PUSH1 0xAA SHL PUSH1 0x40 DUP3 ADD MSTORE PUSH1 0x60 ADD SWAP1 JUMP JUMPDEST PUSH1 0x20 DUP1 DUP3 MSTORE PUSH1 0x5 SWAP1 DUP3 ADD MSTORE PUSH5 0x85DD85B9D PUSH1 0xDA SHL PUSH1 0x40 DUP3 ADD MSTORE PUSH1 0x60 ADD SWAP1 JUMP JUMPDEST PUSH1 0x20 DUP1 DUP3 MSTORE PUSH1 0x1B SWAP1 DUP3 ADD MSTORE PUSH32 0x536166654D6174683A206164646974696F6E206F766572666C6F770000000000 PUSH1 0x40 DUP3 ADD MSTORE PUSH1 0x60 ADD SWAP1 JUMP JUMPDEST PUSH1 0x20 DUP1 DUP3 MSTORE PUSH1 0xC SWAP1 DUP3 ADD MSTORE PUSH12 0x216865616C7468636865636B PUSH1 0xA0 SHL PUSH1 0x40 DUP3 ADD MSTORE PUSH1 0x60 ADD SWAP1 JUMP JUMPDEST PUSH1 0x20 DUP1 DUP3 MSTORE PUSH1 0x21 SWAP1 DUP3 ADD MSTORE PUSH32 0x536166654D6174683A206D756C7469706C69636174696F6E206F766572666C6F PUSH1 0x40 DUP3 ADD MSTORE PUSH1 0x77 PUSH1 0xF8 SHL PUSH1 0x60 DUP3 ADD MSTORE PUSH1 0x80 ADD SWAP1 JUMP JUMPDEST PUSH1 0x20 DUP1 DUP3 MSTORE PUSH1 0x6 SWAP1 DUP3 ADD MSTORE PUSH6 0x85D985D5B1D PUSH1 0xD2 SHL PUSH1 0x40 DUP3 ADD MSTORE PUSH1 0x60 ADD SWAP1 JUMP JUMPDEST PUSH1 0x20 DUP1 DUP3 MSTORE PUSH1 0x7 SWAP1 DUP3 ADD MSTORE PUSH7 0x21736861726573 PUSH1 0xC8 SHL PUSH1 0x40 DUP3 ADD MSTORE PUSH1 0x60 ADD SWAP1 JUMP JUMPDEST PUSH1 0x20 DUP1 DUP3 MSTORE PUSH1 0x1D SWAP1 DUP3 ADD MSTORE PUSH32 0x416464726573733A2063616C6C20746F206E6F6E2D636F6E7472616374000000 PUSH1 0x40 DUP3 ADD MSTORE PUSH1 0x60 ADD SWAP1 JUMP JUMPDEST PUSH1 0x20 DUP1 DUP3 MSTORE PUSH1 0xB SWAP1 DUP3 ADD MSTORE PUSH11 0x8585D5D1A1BDC9A5E9959 PUSH1 0xAA SHL PUSH1 0x40 DUP3 ADD MSTORE PUSH1 0x60 ADD SWAP1 JUMP JUMPDEST PUSH1 0x20 DUP1 DUP3 MSTORE PUSH1 0x2A SWAP1 DUP3 ADD MSTORE PUSH32 0x5361666545524332303A204552433230206F7065726174696F6E20646964206E PUSH1 0x40 DUP3 ADD MSTORE PUSH10 0x1BDD081CDD58D8D95959 PUSH1 0xB2 SHL PUSH1 0x60 DUP3 ADD MSTORE PUSH1 0x80 ADD SWAP1 JUMP JUMPDEST PUSH1 0x20 DUP1 DUP3 MSTORE PUSH1 0xA SWAP1 DUP3 ADD MSTORE PUSH10 0x85C1C9BDD1958DD1959 PUSH1 0xB2 SHL PUSH1 0x40 DUP3 ADD MSTORE PUSH1 0x60 ADD SWAP1 JUMP JUMPDEST PUSH1 0x20 DUP1 DUP3 MSTORE PUSH1 0x36 SWAP1 DUP3 ADD MSTORE PUSH32 0x5361666545524332303A20617070726F76652066726F6D206E6F6E2D7A65726F PUSH1 0x40 DUP3 ADD MSTORE PUSH22 0x20746F206E6F6E2D7A65726F20616C6C6F77616E6365 PUSH1 0x50 SHL PUSH1 0x60 DUP3 ADD MSTORE PUSH1 0x80 ADD SWAP1 JUMP JUMPDEST SWAP2 DUP3 MSTORE PUSH1 0x20 DUP3 ADD MSTORE PUSH1 0x40 ADD SWAP1 JUMP JUMPDEST SWAP3 DUP4 MSTORE PUSH1 0x20 DUP4 ADD SWAP2 SWAP1 SWAP2 MSTORE PUSH1 0x40 DUP3 ADD MSTORE PUSH1 0x60 ADD SWAP1 JUMP JUMPDEST SWAP4 DUP5 MSTORE PUSH1 0x20 DUP5 ADD SWAP3 SWAP1 SWAP3 MSTORE PUSH1 0x40 DUP4 ADD MSTORE PUSH1 0x60 DUP3 ADD MSTORE PUSH1 0x80 ADD SWAP1 JUMP JUMPDEST SWAP5 DUP6 MSTORE PUSH1 0x20 DUP6 ADD SWAP4 SWAP1 SWAP4 MSTORE PUSH1 0x40 DUP5 ADD SWAP2 SWAP1 SWAP2 MSTORE PUSH1 0x60 DUP4 ADD MSTORE PUSH1 0x80 DUP3 ADD MSTORE PUSH1 0xA0 ADD SWAP1 JUMP JUMPDEST PUSH1 0x40 MLOAD DUP2 DUP2 ADD PUSH8 0xFFFFFFFFFFFFFFFF DUP2 GT DUP3 DUP3 LT OR ISZERO PUSH2 0x4809 JUMPI PUSH1 0x0 DUP1 REVERT JUMPDEST PUSH1 0x40 MSTORE SWAP2 SWAP1 POP JUMP JUMPDEST PUSH1 0x0 JUMPDEST DUP4 DUP2 LT ISZERO PUSH2 0x482C JUMPI DUP2 DUP2 ADD MLOAD DUP4 DUP3 ADD MSTORE PUSH1 0x20 ADD PUSH2 0x4814 JUMP JUMPDEST DUP4 DUP2 GT ISZERO PUSH2 0x3D10 JUMPI POP POP PUSH1 0x0 SWAP2 ADD MSTORE JUMP JUMPDEST PUSH1 0x1 PUSH1 0x1 PUSH1 0xA0 SHL SUB DUP2 AND DUP2 EQ PUSH2 0x1FD6 JUMPI PUSH1 0x0 DUP1 REVERT JUMPDEST DUP1 ISZERO ISZERO DUP2 EQ PUSH2 0x1FD6 JUMPI PUSH1 0x0 DUP1 REVERT INVALID STOP STOP STOP STOP STOP STOP STOP STOP STOP STOP STOP STOP LOG4 DUP14 SWAP6 SWAP11 0xE2 0xE8 DUP16 SAR 0xAA PUSH30 0x5F611E01908106DE7598A2646970667358221220D2E07C9AA948F169D44F 0x4A PC 0x21 PUSH28 0xDE6FDFA078DEF8CD14E5626BB282EC5D703364736F6C634300060C00 CALLER ",
  "sha1": "244adbb189269ec015bd2a3abf83e347d8aa0431",
  "source": "// SPDX-License-Identifier: AGPL-3.0\n// Feel free to change the license, but this is what we use\n\n// Feel free to change this version of Solidity. We support >=0.6.0 <0.7.0;\npragma solidity 0.6.12;\npragma experimental ABIEncoderV2;\n// Gary's Fork\n// These are the core Yearn libraries\nimport {BaseStrategy, StrategyParams} from \"@yearnvaults/contracts/BaseStrategy.sol\";\nimport {SafeERC20, SafeMath, IERC20, Address} from \"@openzeppelin/contracts/token/ERC20/SafeERC20.sol\";\nimport \"@openzeppelin/contracts/math/Math.sol\";\n\ninterface ISolidlyRouter {\n    function addLiquidity(\n        address,\n        address,\n        bool,\n        uint256,\n        uint256,\n        uint256,\n        uint256,\n        address,\n        uint256\n    )\n        external\n        returns (\n            uint256 amountA,\n            uint256 amountB,\n            uint256 liquidity\n        );\n\n    function removeLiquidity(\n        address tokenA,\n        address tokenB,\n        bool stable,\n        uint256 liquidity,\n        uint256 amountAMin,\n        uint256 amountBMin,\n        address to,\n        uint256 deadline\n    ) external returns (uint256 amountA, uint256 amountB);\n\n    function quoteRemoveLiquidity(\n        address tokenA,\n        address tokenB,\n        bool stable,\n        uint256 liquidity\n    ) external view returns (uint256 amountA, uint256 amountB);\n}\n\n// boo:xboo ratios, enter = \"Locks Boo and mints xBoo\", leave = \"Unlocks the staked + gained Boo, and burns xBoo\"\ninterface IXboo is IERC20 {\n    function xBOOForBOO(uint256) external view returns (uint256);\n\n    function BOOForxBOO(uint256) external view returns (uint256);\n\n    function enter(uint256) external;\n\n    function leave(uint256) external;\n}\n\ninterface ITradeFactory {\n    function enable(address, address) external;\n}\n\ninterface ILpDepositer {\n    function deposit(address pool, uint256 _amount) external;\n\n    function withdraw(address pool, uint256 _amount) external; // use amount = 0 for harvesting rewards\n\n    function userBalances(address user, address pool)\n        external\n        view\n        returns (uint256);\n\n    function getReward(address[] memory lps) external;\n}\n\ncontract Strategy is BaseStrategy {\n    using SafeERC20 for IERC20;\n    using Address for address;\n    using SafeMath for uint256;\n\n    /* ========== STATE VARIABLES ========== */\n\n    // swap stuff\n    address internal constant solidlyRouter =\n        0xa38cd27185a464914D3046f0AB9d43356B34829D;\n    bool public tradesEnabled;\n    bool public depositerAvoid;\n    address public tradeFactory =\n        address(0xD3f89C21719Ec5961a3E6B0f9bBf9F9b4180E9e9);\n\n    IERC20 internal constant boo =\n        IERC20(0x841FAD6EAe12c286d1Fd18d1d525DFfA75C7EFFE);\n    IXboo internal constant xboo =\n        IXboo(0xa48d959AE2E88f1dAA7D5F611E01908106dE7598);\n\n    IERC20 internal constant sex =\n        IERC20(0xD31Fcd1f7Ba190dBc75354046F6024A9b86014d7);\n    IERC20 internal constant solid =\n        IERC20(0x888EF71766ca594DED1F0FA3AE64eD2941740A20);\n\n    string internal stratName; // we use this for our strategy's name on cloning\n    address public lpToken =\n        address(0x5804F6C40f44cF7593F73cf3aa16F7037213A623);\n    ILpDepositer public lpDepositer =\n        ILpDepositer(0x26E1A0d851CF28E697870e1b7F053B605C8b060F);\n\n    bool internal forceHarvestTriggerOnce; // only set this to true externally when we want to trigger our keepers to harvest for us\n    uint256 public minHarvestCredit; // if we hit this amount of credit, harvest the strategy\n\n    /* ========== CONSTRUCTOR ========== */\n\n    constructor(address _vault, string memory _name)\n        public\n        BaseStrategy(_vault)\n    {\n        _initializeStrat(_name);\n    }\n\n    /* ========== CLONING ========== */\n\n    event Cloned(address indexed clone);\n\n    // this is called by our original strategy, as well as any clones\n    function _initializeStrat(string memory _name) internal {\n        // initialize variables\n        maxReportDelay = 43200; // 1/2 day in seconds, if we hit this then harvestTrigger = True\n        healthCheck = address(0xf13Cd6887C62B5beC145e30c38c4938c5E627fe0); // Fantom common health check\n\n        // set our strategy's name\n        stratName = _name;\n\n        // turn off our credit harvest trigger to start with\n        minHarvestCredit = type(uint256).max;\n\n        // add approvals on all tokens\n        IERC20(lpToken).approve(address(lpDepositer), type(uint256).max);\n        IERC20(lpToken).approve(address(solidlyRouter), type(uint256).max);\n        xboo.approve(address(solidlyRouter), type(uint256).max);\n        boo.approve(address(xboo), type(uint256).max);\n        boo.approve(address(solidlyRouter), type(uint256).max);\n    }\n\n    /* ========== VIEWS ========== */\n\n    function name() external view override returns (string memory) {\n        return stratName;\n    }\n\n    // balance of boo in strat - should be zero most of the time\n    function balanceOfWant() public view returns (uint256) {\n        return want.balanceOf(address(this));\n    }\n\n    function balanceOfXbooInWant(uint256 xbooAmount)\n        public\n        view\n        returns (uint256)\n    {\n        return xboo.xBOOForBOO(xbooAmount);\n    }\n\n    function balanceOfLPStaked() public view returns (uint256) {\n        return lpDepositer.userBalances(address(this), lpToken);\n    }\n\n    function balanceOfConstituents(uint256 liquidity)\n        public\n        view\n        returns (uint256 amountBoo, uint256 amountXBoo)\n    {\n        (amountBoo, amountXBoo) = ISolidlyRouter(solidlyRouter)\n            .quoteRemoveLiquidity(\n                address(boo),\n                address(xboo),\n                false,\n                liquidity\n            );\n    }\n\n    function estimatedTotalAssets() public view override returns (uint256) {\n        uint256 lpTokens = balanceOfLPStaked().add(\n            IERC20(lpToken).balanceOf(address(this))\n        );\n\n        (uint256 amountBoo, uint256 amountXBoo) = balanceOfConstituents(\n            lpTokens\n        );\n\n        uint256 balanceOfxBooinBoo = balanceOfXbooInWant(\n            amountXBoo.add(xboo.balanceOf(address(this)))\n        );\n\n        // look at our staked tokens and any free tokens sitting in the strategy\n        return balanceOfxBooinBoo.add(balanceOfWant()).add(amountBoo);\n    }\n\n    function _setUpTradeFactory() internal {\n        //approve and set up trade factory\n        address _tradeFactory = tradeFactory;\n\n        ITradeFactory tf = ITradeFactory(_tradeFactory);\n        sex.safeApprove(_tradeFactory, type(uint256).max);\n        tf.enable(address(sex), address(want));\n\n        solid.safeApprove(_tradeFactory, type(uint256).max);\n        tf.enable(address(solid), address(want));\n        tradesEnabled = true;\n    }\n\n    /* ========== MUTATIVE FUNCTIONS ========== */\n\n    function prepareReturn(uint256 _debtOutstanding)\n        internal\n        override\n        returns (\n            uint256 _profit,\n            uint256 _loss,\n            uint256 _debtPayment\n        )\n    {\n        if (tradesEnabled == false && tradeFactory != address(0)) {\n            _setUpTradeFactory();\n        }\n        // claim our rewards\n        address[] memory pairs = new address[](1);\n        pairs[0] = address(lpToken);\n        lpDepositer.getReward(pairs);\n\n        uint256 assets = estimatedTotalAssets();\n        uint256 wantBal = balanceOfWant();\n\n        uint256 debt = vault.strategies(address(this)).totalDebt;\n        uint256 amountToFree;\n\n        if (assets >= debt) {\n            _debtPayment = _debtOutstanding;\n            _profit = assets.sub(debt);\n\n            amountToFree = _profit.add(_debtPayment);\n\n            if (amountToFree > 0 && wantBal < amountToFree) {\n                liquidatePosition(amountToFree);\n\n                uint256 newLoose = want.balanceOf(address(this));\n\n                //if we dont have enough money adjust _debtOutstanding and only change profit if needed\n                if (newLoose < amountToFree) {\n                    if (_profit > newLoose) {\n                        _profit = newLoose;\n                        _debtPayment = 0;\n                    } else {\n                        _debtPayment = Math.min(\n                            newLoose - _profit,\n                            _debtPayment\n                        );\n                    }\n                }\n            }\n        } else {\n            //loss should never happen. so leave blank. small potential for IP i suppose. lets not record if so and handle manually\n        }\n\n        // we're done harvesting, so reset our trigger if we used it\n        forceHarvestTriggerOnce = false;\n    }\n\n    function adjustPosition(uint256 _debtOutstanding) internal override {\n        if (emergencyExit) {\n            return;\n        }\n        // send all of our want tokens to be deposited\n        uint256 toInvest = balanceOfWant();\n        // stake only if we have something to stake\n        if (toInvest > 0) {\n            uint256 booB = boo.balanceOf(lpToken);\n            uint256 xbooB = xboo.balanceOf(lpToken);\n\n            //ratio we need of boo to xboo to lp\n            uint256 ratio_lp = xbooB.mul(1e18).div(booB);\n\n            //ratio boo to xboo in xBoo\n            uint256 ratio_xboo = xboo.xBOOForBOO(1e18);\n\n            //amount to swap is:\n            // B0 * Rxboo / (Rlp + Rxboo)\n            uint256 numerator = toInvest.mul(ratio_xboo);\n            uint256 denom = ratio_xboo.add(ratio_lp);\n\n            uint256 newInvest = (numerator.div(denom)).sub(1e6); // remove a bit incase of rounding error\n\n            // deposit our boo into xboo\n            xboo.enter(newInvest);\n\n            // deposit into lp\n            ISolidlyRouter(solidlyRouter).addLiquidity(\n                address(boo),\n                address(xboo),\n                false,\n                boo.balanceOf(address(this)),\n                xboo.balanceOf(address(this)),\n                0,\n                0,\n                address(this),\n                2**256 - 1\n            );\n\n            //deposit to lp depositer\n            lpDepositer.deposit(\n                lpToken,\n                IERC20(lpToken).balanceOf(address(this))\n            );\n        }\n    }\n\n    //returns lp tokens needed to get that amount of boo\n    function booToLpTokens(uint256 amountOfBooWeWant) public returns (uint256) {\n        //amount of boo and xboo for 1 lp token\n        (uint256 amountBooPerLp, uint256 amountXBoo) = balanceOfConstituents(\n            1e18\n        );\n\n        //1 lp token is this amoubt of boo\n        amountBooPerLp = amountBooPerLp.add(xboo.xBOOForBOO(amountXBoo));\n\n        uint256 lpTokensWeNeed = amountOfBooWeWant.mul(1e18).div(\n            amountBooPerLp\n        );\n\n        return lpTokensWeNeed;\n    }\n\n    function liquidatePosition(uint256 _amountNeeded)\n        internal\n        override\n        returns (uint256 _liquidatedAmount, uint256 _loss)\n    {\n        //if we have loose xboo. liquidated it\n        xboo.leave(xboo.balanceOf(address(this)));\n\n        uint256 balanceOfBoo = want.balanceOf(address(this));\n\n        // if we need more boo than is already loose in the contract\n        if (balanceOfBoo < _amountNeeded) {\n            // boo needed beyond any boo that is already loose in the contract\n            uint256 amountToFree = _amountNeeded.sub(balanceOfBoo);\n\n            // converts this amount into lpTokens\n            uint256 lpTokensNeeded = booToLpTokens(amountToFree);\n\n            uint256 balanceOfLpTokens = IERC20(lpToken).balanceOf(\n                address(this)\n            );\n\n            if (balanceOfLpTokens < lpTokensNeeded) {\n                uint256 toWithdrawfromSolidex = lpTokensNeeded.sub(\n                    balanceOfLpTokens\n                );\n\n                uint256 staked = balanceOfLPStaked();\n                lpDepositer.withdraw(\n                    lpToken,\n                    Math.min(toWithdrawfromSolidex, staked)\n                );\n\n                balanceOfLpTokens = IERC20(lpToken).balanceOf(address(this));\n            }\n\n            (uint256 amountBoo, uint256 amountxBoo) = ISolidlyRouter(\n                solidlyRouter\n            ).removeLiquidity(\n                    address(boo),\n                    address(xboo),\n                    false,\n                    Math.min(lpTokensNeeded, balanceOfLpTokens),\n                    0,\n                    0,\n                    address(this),\n                    type(uint256).max\n                );\n\n            xboo.leave(xboo.balanceOf(address(this)));\n\n            _liquidatedAmount = Math.min(\n                want.balanceOf(address(this)),\n                _amountNeeded\n            );\n\n            if (_liquidatedAmount < _amountNeeded) {\n                _loss = _amountNeeded.sub(_liquidatedAmount);\n            }\n        } else {\n            _liquidatedAmount = _amountNeeded;\n        }\n    }\n\n    function liquidateAllPositions() internal override returns (uint256) {\n        lpDepositer.withdraw(lpToken, balanceOfLPStaked());\n        ISolidlyRouter(solidlyRouter).removeLiquidity(\n            address(boo),\n            address(xboo),\n            false,\n            IERC20(lpToken).balanceOf(address(this)),\n            0,\n            0,\n            address(this),\n            type(uint256).max\n        );\n        xboo.leave(xboo.balanceOf(address(this)));\n\n        return balanceOfWant();\n    }\n\n    function prepareMigration(address _newStrategy) internal override {\n        if (!depositerAvoid) {\n            lpDepositer.withdraw(lpToken, balanceOfLPStaked());\n        }\n\n        uint256 lpBalance = IERC20(lpToken).balanceOf(address(this));\n\n        if (lpBalance > 0) {\n            IERC20(lpToken).safeTransfer(_newStrategy, lpBalance);\n        }\n\n        uint256 xbooBalance = xboo.balanceOf(address(this));\n\n        if (xbooBalance > 0) {\n            // send our total balance of xboo to the new strategy\n            xboo.transfer(_newStrategy, xbooBalance);\n        }\n    }\n\n    function manualWithdraw(address lp, uint256 amount)\n        external\n        onlyEmergencyAuthorized\n    {\n        lpDepositer.withdraw(lp, amount);\n    }\n\n    function protectedTokens()\n        internal\n        view\n        override\n        returns (address[] memory)\n    {}\n\n    // our main trigger is regarding our DCA since there is low liquidity for our emissionToken\n    function harvestTrigger(uint256 callCostinEth)\n        public\n        view\n        override\n        returns (bool)\n    {\n        StrategyParams memory params = vault.strategies(address(this));\n\n        // harvest no matter what once we reach our maxDelay\n        if (block.timestamp.sub(params.lastReport) > maxReportDelay) {\n            return true;\n        }\n\n        // trigger if we want to manually harvest\n        if (forceHarvestTriggerOnce) {\n            return true;\n        }\n\n        // trigger if we have enough credit\n        if (vault.creditAvailable() >= minHarvestCredit) {\n            return true;\n        }\n\n        // otherwise, we don't harvest\n        return false;\n    }\n\n    function ethToWant(uint256 _amtInWei)\n        public\n        view\n        override\n        returns (uint256)\n    {}\n\n    function updateTradeFactory(address _newTradeFactory)\n        external\n        onlyGovernance\n    {\n        if (tradeFactory != address(0)) {\n            _removeTradeFactoryPermissions();\n        }\n\n        tradeFactory = _newTradeFactory;\n        _setUpTradeFactory();\n    }\n\n    function removeTradeFactoryPermissions() external onlyEmergencyAuthorized {\n        _removeTradeFactoryPermissions();\n    }\n\n    function _removeTradeFactoryPermissions() internal {\n        address _tradeFactory = tradeFactory;\n        sex.safeApprove(_tradeFactory, 0);\n\n        solid.safeApprove(_tradeFactory, 0);\n\n        tradeFactory = address(0);\n        tradesEnabled = false;\n    }\n\n    /* ========== SETTERS ========== */\n\n    ///@notice This allows us to manually harvest with our keeper as needed\n    function setForceHarvestTriggerOnce(bool _forceHarvestTriggerOnce)\n        external\n        onlyAuthorized\n    {\n        forceHarvestTriggerOnce = _forceHarvestTriggerOnce;\n    }\n\n    ///@notice When our strategy has this much credit, harvestTrigger will be true.\n    function setMinHarvestCredit(uint256 _minHarvestCredit)\n        external\n        onlyAuthorized\n    {\n        minHarvestCredit = _minHarvestCredit;\n    }\n\n    function setDepositerAvoid(bool _avoid) external onlyAuthorized {\n        depositerAvoid = _avoid;\n    }\n}\n",
  "sourcePath": "contracts/Strategy.sol",
  "type": "contract"
}